{"contracts/Governance.sol":{"Governance":{"abi":[{"inputs":[{"internalType":"address","name":"initialOwner","type":"address"}],"stateMutability":"nonpayable","type":"constructor"},{"inputs":[],"name":"AlreadyVoted","type":"error"},{"inputs":[],"name":"ExecutionDelayNotMet","type":"error"},{"inputs":[],"name":"ExecutionFailed","type":"error"},{"inputs":[],"name":"InsufficientVotingPower","type":"error"},{"inputs":[],"name":"InvalidProposalType","type":"error"},{"inputs":[{"internalType":"address","name":"owner","type":"address"}],"name":"OwnableInvalidOwner","type":"error"},{"inputs":[{"internalType":"address","name":"account","type":"address"}],"name":"OwnableUnauthorizedAccount","type":"error"},{"inputs":[],"name":"ProposalNotActive","type":"error"},{"inputs":[],"name":"ProposalNotPassed","type":"error"},{"inputs":[],"name":"QuorumNotMet","type":"error"},{"inputs":[],"name":"ReentrancyGuardReentrantCall","type":"error"},{"inputs":[],"name":"UnauthorizedContract","type":"error"},{"anonymous":false,"inputs":[{"indexed":true,"internalType":"address","name":"contractAddress","type":"address"},{"indexed":false,"internalType":"bool","name":"authorized","type":"bool"}],"name":"ContractAuthorized","type":"event"},{"anonymous":false,"inputs":[{"indexed":true,"internalType":"address","name":"previousOwner","type":"address"},{"indexed":true,"internalType":"address","name":"newOwner","type":"address"}],"name":"OwnershipTransferred","type":"event"},{"anonymous":false,"inputs":[{"indexed":true,"internalType":"uint256","name":"proposalId","type":"uint256"},{"indexed":false,"internalType":"enum Governance.ProposalType","name":"proposalType","type":"uint8"},{"indexed":false,"internalType":"string","name":"title","type":"string"},{"indexed":true,"internalType":"address","name":"proposer","type":"address"},{"indexed":false,"internalType":"uint256","name":"endTime","type":"uint256"}],"name":"ProposalCreated","type":"event"},{"anonymous":false,"inputs":[{"indexed":true,"internalType":"uint256","name":"proposalId","type":"uint256"},{"indexed":false,"internalType":"bool","name":"success","type":"bool"},{"indexed":false,"internalType":"bytes","name":"returnData","type":"bytes"}],"name":"ProposalExecuted","type":"event"},{"anonymous":false,"inputs":[{"indexed":true,"internalType":"uint256","name":"proposalId","type":"uint256"},{"indexed":false,"internalType":"enum Governance.ProposalState","name":"oldState","type":"uint8"},{"indexed":false,"internalType":"enum Governance.ProposalState","name":"newState","type":"uint8"}],"name":"ProposalStateChanged","type":"event"},{"anonymous":false,"inputs":[{"indexed":true,"internalType":"uint256","name":"proposalId","type":"uint256"},{"indexed":true,"internalType":"address","name":"voter","type":"address"},{"indexed":false,"internalType":"bool","name":"support","type":"bool"},{"indexed":false,"internalType":"uint256","name":"votingPower","type":"uint256"}],"name":"VoteCast","type":"event"},{"anonymous":false,"inputs":[{"indexed":true,"internalType":"address","name":"user","type":"address"},{"indexed":false,"internalType":"uint256","name":"oldPower","type":"uint256"},{"indexed":false,"internalType":"uint256","name":"newPower","type":"uint256"}],"name":"VotingPowerUpdated","type":"event"},{"inputs":[],"name":"APPROVAL_THRESHOLD","outputs":[{"internalType":"uint256","name":"","type":"uint256"}],"stateMutability":"view","type":"function"},{"inputs":[],"name":"EXECUTION_DELAY","outputs":[{"internalType":"uint256","name":"","type":"uint256"}],"stateMutability":"view","type":"function"},{"inputs":[],"name":"MIN_PROPOSAL_POWER","outputs":[{"internalType":"uint256","name":"","type":"uint256"}],"stateMutability":"view","type":"function"},{"inputs":[],"name":"QUORUM_THRESHOLD","outputs":[{"internalType":"uint256","name":"","type":"uint256"}],"stateMutability":"view","type":"function"},{"inputs":[],"name":"VOTING_PERIOD","outputs":[{"internalType":"uint256","name":"","type":"uint256"}],"stateMutability":"view","type":"function"},{"inputs":[{"internalType":"uint256","name":"","type":"uint256"}],"name":"activeProposals","outputs":[{"internalType":"uint256","name":"","type":"uint256"}],"stateMutability":"view","type":"function"},{"inputs":[{"internalType":"address","name":"","type":"address"}],"name":"authorizedContracts","outputs":[{"internalType":"bool","name":"","type":"bool"}],"stateMutability":"view","type":"function"},{"inputs":[{"internalType":"uint256","name":"proposalId","type":"uint256"}],"name":"canExecuteProposal","outputs":[{"internalType":"bool","name":"","type":"bool"}],"stateMutability":"view","type":"function"},{"inputs":[{"internalType":"uint256","name":"proposalId","type":"uint256"}],"name":"cancelProposal","outputs":[],"stateMutability":"nonpayable","type":"function"},{"inputs":[{"internalType":"enum Governance.ProposalType","name":"proposalType","type":"uint8"},{"internalType":"string","name":"title","type":"string"},{"internalType":"string","name":"description","type":"string"},{"internalType":"bytes","name":"executionData","type":"bytes"},{"internalType":"address","name":"targetContract","type":"address"}],"name":"createProposal","outputs":[{"internalType":"uint256","name":"proposalId","type":"uint256"}],"stateMutability":"nonpayable","type":"function"},{"inputs":[{"internalType":"uint256","name":"proposalId","type":"uint256"}],"name":"executeProposal","outputs":[],"stateMutability":"nonpayable","type":"function"},{"inputs":[{"internalType":"uint256","name":"proposalId","type":"uint256"}],"name":"finalizeProposal","outputs":[],"stateMutability":"nonpayable","type":"function"},{"inputs":[],"name":"getActiveProposals","outputs":[{"internalType":"uint256[]","name":"","type":"uint256[]"}],"stateMutability":"view","type":"function"},{"inputs":[{"internalType":"uint256","name":"proposalId","type":"uint256"}],"name":"getProposal","outputs":[{"components":[{"internalType":"uint256","name":"id","type":"uint256"},{"internalType":"enum Governance.ProposalType","name":"proposalType","type":"uint8"},{"internalType":"string","name":"title","type":"string"},{"internalType":"string","name":"description","type":"string"},{"internalType":"address","name":"proposer","type":"address"},{"internalType":"uint256","name":"startTime","type":"uint256"},{"internalType":"uint256","name":"endTime","type":"uint256"},{"internalType":"uint256","name":"yesVotes","type":"uint256"},{"internalType":"uint256","name":"noVotes","type":"uint256"},{"internalType":"uint256","name":"totalVotingPower","type":"uint256"},{"internalType":"enum Governance.ProposalState","name":"state","type":"uint8"},{"internalType":"bytes","name":"executionData","type":"bytes"},{"internalType":"address","name":"targetContract","type":"address"},{"internalType":"uint256","name":"executionTime","type":"uint256"}],"internalType":"struct Governance.Proposal","name":"","type":"tuple"}],"stateMutability":"view","type":"function"},{"inputs":[{"internalType":"uint256","name":"proposalId","type":"uint256"}],"name":"getProposalResults","outputs":[{"internalType":"uint256","name":"yesVotes","type":"uint256"},{"internalType":"uint256","name":"noVotes","type":"uint256"},{"internalType":"uint256","name":"totalVotingPower","type":"uint256"},{"internalType":"uint256","name":"quorumRequired","type":"uint256"},{"internalType":"bool","name":"quorumMet","type":"bool"},{"internalType":"bool","name":"approved","type":"bool"}],"stateMutability":"view","type":"function"},{"inputs":[],"name":"getTotalVotingPower","outputs":[{"internalType":"uint256","name":"","type":"uint256"}],"stateMutability":"view","type":"function"},{"inputs":[{"internalType":"uint256","name":"proposalId","type":"uint256"},{"internalType":"address","name":"voter","type":"address"}],"name":"getVote","outputs":[{"components":[{"internalType":"uint256","name":"votingPower","type":"uint256"},{"internalType":"bool","name":"hasVoted","type":"bool"},{"internalType":"bool","name":"support","type":"bool"},{"internalType":"uint256","name":"votedAt","type":"uint256"}],"internalType":"struct Governance.Voter","name":"","type":"tuple"}],"stateMutability":"view","type":"function"},{"inputs":[],"name":"owner","outputs":[{"internalType":"address","name":"","type":"address"}],"stateMutability":"view","type":"function"},{"inputs":[],"name":"proposalCount","outputs":[{"internalType":"uint256","name":"","type":"uint256"}],"stateMutability":"view","type":"function"},{"inputs":[{"internalType":"uint256","name":"","type":"uint256"}],"name":"proposals","outputs":[{"internalType":"uint256","name":"id","type":"uint256"},{"internalType":"enum Governance.ProposalType","name":"proposalType","type":"uint8"},{"internalType":"string","name":"title","type":"string"},{"internalType":"string","name":"description","type":"string"},{"internalType":"address","name":"proposer","type":"address"},{"internalType":"uint256","name":"startTime","type":"uint256"},{"internalType":"uint256","name":"endTime","type":"uint256"},{"internalType":"uint256","name":"yesVotes","type":"uint256"},{"internalType":"uint256","name":"noVotes","type":"uint256"},{"internalType":"uint256","name":"totalVotingPower","type":"uint256"},{"internalType":"enum Governance.ProposalState","name":"state","type":"uint8"},{"internalType":"bytes","name":"executionData","type":"bytes"},{"internalType":"address","name":"targetContract","type":"address"},{"internalType":"uint256","name":"executionTime","type":"uint256"}],"stateMutability":"view","type":"function"},{"inputs":[],"name":"renounceOwnership","outputs":[],"stateMutability":"nonpayable","type":"function"},{"inputs":[{"internalType":"address","name":"contractAddress","type":"address"},{"internalType":"bool","name":"authorized","type":"bool"}],"name":"setContractAuthorization","outputs":[],"stateMutability":"nonpayable","type":"function"},{"inputs":[{"internalType":"address","name":"newOwner","type":"address"}],"name":"transferOwnership","outputs":[],"stateMutability":"nonpayable","type":"function"},{"inputs":[{"internalType":"address","name":"user","type":"address"},{"internalType":"uint256","name":"newPower","type":"uint256"}],"name":"updateVotingPower","outputs":[],"stateMutability":"nonpayable","type":"function"},{"inputs":[{"internalType":"uint256","name":"proposalId","type":"uint256"},{"internalType":"bool","name":"support","type":"bool"}],"name":"vote","outputs":[],"stateMutability":"nonpayable","type":"function"},{"inputs":[{"internalType":"uint256","name":"","type":"uint256"},{"internalType":"address","name":"","type":"address"}],"name":"votes","outputs":[{"internalType":"uint256","name":"votingPower","type":"uint256"},{"internalType":"bool","name":"hasVoted","type":"bool"},{"internalType":"bool","name":"support","type":"bool"},{"internalType":"uint256","name":"votedAt","type":"uint256"}],"stateMutability":"view","type":"function"},{"inputs":[{"internalType":"address","name":"","type":"address"}],"name":"votingPower","outputs":[{"internalType":"uint256","name":"","type":"uint256"}],"stateMutability":"view","type":"function"}],"evm":{"bytecode":{"linkReferences":{},"object":"60803460c057601f611e1238819003918201601f19168301916001600160401b0383118484101760c55780849260209460405283398101031260c057516001600160a01b0381169081900360c057801560aa57600080546001600160a01b031981168317825560405192916001600160a01b03909116907f8be0079c531659141344cd1fd0a4f28419497f9722a3daafe3b4186f6b6457e09080a360018055611d3690816100dc8239f35b631e4fbdf760e01b600052600060045260246000fd5b600080fd5b634e487b7160e01b600052604160045260246000fdfe608080604052600436101561001357600080fd5b60003560e01c908163013cf08b146113db575080630d61b5191461115b57806311acc1a71461113d57806337f135d71461111f5780633ab34290146111025780635584c4f9146110485780635652077c14610fb15780635bdcd00814610edc5780635e510b6014610ebf578063715018a614610e66578063824ea8ed14610e05578063859f89e71461080a5780638da5cb5b146107e1578063a48ac1ea146107c4578063b1610d7e146107a6578063bc3f931f146106ed578063c07473f6146106b3578063c7f758a814610534578063c9d27afe1461050e578063d23254b41461049f578063d5b9221b14610460578063da35c66414610442578063e0a8f6f514610366578063e40824f81461032e578063eadc29c714610254578063f2fde38b146101cb5763f60ccc861461014857600080fd5b346101c65760403660031901126101c657610161611702565b7f3213ab8ec2ed122402f038736b41878b69ae9f61f49a7edd0666bce891d29fc9602061018c611718565b92610195611cb7565b6001600160a01b031660008181526006835260409020805460ff191660ff86151516179055926040519015158152a2005b600080fd5b346101c65760203660031901126101c6576101e4611702565b6101ec611cb7565b6001600160a01b0316801561023e57600080546001600160a01b03198116831782556001600160a01b0316907f8be0079c531659141344cd1fd0a4f28419497f9722a3daafe3b4186f6b6457e09080a3005b631e4fbdf760e01b600052600060045260246000fd5b346101c65760403660031901126101c65761026d611702565b6024359033600052600660205260ff60406000205416801561031a575b156102e4576001600160a01b031660008181526005602090815260409182902080549085905582519081529081019390935290917f2a1b0acb0a6fe010db932fc889bec652a0daadc5cafa0d648ada6b79e48937d29190a2005b60405162461bcd60e51b815260206004820152600e60248201526d139bdd08185d5d1a1bdc9a5e995960921b6044820152606490fd5b506000546001600160a01b0316331461028a565b346101c65760203660031901126101c6576004356007548110156101c657610357602091611727565b90549060031b1c604051908152f35b346101c65760203660031901126101c657600435610382611cb7565b806000526003602052600a60406000200160ff81541690600582101561042c5781158015610422575b156103ed57805460ff19166004179055600080516020611ce1833981519152906040906103d784611ae7565b6103e3825180926116b1565b60046020820152a2005b60405162461bcd60e51b815260206004820152600d60248201526c10d85b9b9bdd0818d85b98d95b609a1b6044820152606490fd5b50600182146103ab565b634e487b7160e01b600052602160045260246000fd5b346101c65760003660031901126101c6576020600254604051908152f35b346101c65760203660031901126101c6576001600160a01b03610481611702565b166000526006602052602060ff604060002054166040519015158152f35b346101c65760403660031901126101c657608060406104bc6116ec565b60043560005260046020528160002060009160018060a01b031682526020522080549060ff60026001830154920154916040519384528181161515602085015260081c16151560408301526060820152f35b346101c65760403660031901126101c65761053261052a611718565b600435611930565b005b346101c65760203660031901126101c65760006101a0604051610556816115f2565b828152826020820152606060408201526060808201528260808201528260a08201528260c08201528260e0820152826101008201528261012082015282610140820152606061016082015282610180820152015260043560005260036020526105c26040600020611764565b604051809160208252805160208301526105e460208201516040840190611663565b6101a061069361061e61060860408501516101c060608801526101e0870190611670565b6060850151868203601f19016080880152611670565b60018060a01b0360808501511660a086015260a084015160c086015260c084015160e086015260e084015161010086015261010084015161012086015261012084015161014086015261067b6101408501516101608701906116b1565b610160840151858203601f1901610180870152611670565b6101808301516001600160a01b0316848301529101516101c08301520390f35b346101c65760203660031901126101c6576001600160a01b036106d4611702565b1660005260056020526020604060002054604051908152f35b346101c65760403660031901126101c6576080604061070a6116ec565b60006060835161071981611625565b8281528260208201528285820152015260043560005260046020528160002060009160018060a01b031682526020522060405161075581611625565b81549182825260018101549060606002602085019260ff85161515845260ff604087019560081c16151585520154930192835260405193845251151560208401525115156040830152516060820152f35b346101c65760003660031901126101c657602060405162093a808152f35b346101c65760003660031901126101c65760206040516103e88152f35b346101c65760003660031901126101c6576000546040516001600160a01b039091168152602090f35b346101c65760a03660031901126101c6576004803510156101c65760243567ffffffffffffffff81116101c6576108459036906004016116be565b9060443567ffffffffffffffff81116101c6576108669036906004016116be565b92909160643567ffffffffffffffff81116101c6576108899036906004016116be565b936084356001600160a01b03811692908390036101c657336000526005602052620186a060406000205410610df457600254956000198714610dde576001870160025562093a804201804211610dde57610916610952946040519a6108ed8c6115f2565b8a8c526108ff60043560208e01611758565b61090a368b8b6118a7565b60408d015236916118a7565b60608a01523360808a01524260a08a015260c0890152600060e089015260006101008901526000610120890152600061014089015236916118a7565b61016086015261018085015260006101a0850152826000526003602052604060002084518155602085015194600486101561042c5760009560ff80196001850154169116176001830155604081015180519067ffffffffffffffff8211610d61576109cd826109c46002870154611535565b600287016118de565b602090601f8311600114610d75576109fd9291899183610ced575b50508160011b916000199060031b1c19161790565b60028301555b606081015180519067ffffffffffffffff8211610d6157610a3482610a2b6003870154611535565b600387016118de565b602090601f8311600114610cf857610a639291899183610ced5750508160011b916000199060031b1c19161790565b60038301555b60808101516004830180546001600160a01b0319166001600160a01b039290921691909117905560a081015160058084019190915560c0820151600684015560e0820151600784015561010082015160088401556101208201516009840155610140820151600a840191811015610cd95760ff80198354169116179055600b820161016082015180519067ffffffffffffffff8211610cc557610b1682610b108554611535565b856118de565b602090601f8311600114610c5b5782600d95936101a09593610b4d938d92610c505750508160011b916000199060031b1c19161790565b90555b610180810151600c850180546001600160a01b0319166001600160a01b0392909216919091179055015191015560075468010000000000000000811015610c3c578391602095610be484610bcb8560017f8defab9ee71e899835ffddf06ccc008a3c1c0ab51c88fbc0ff7c3f3eae179f6a9701600755611727565b90919082549060031b91821b91600019901b1916179055565b838152600387526006604082200154908560405193610c0585600435611663565b60608a86015281606086015260808501376080868401015260408201526080813395601f80199101168101030190a3604051908152f35b634e487b7160e01b85526041600452602485fd5b015190508c806109e8565b838a52818a209190601f1984168b5b818110610cad5750926001928592600d98966101a0989610610c94575b505050811b019055610b50565b015160001960f88460031b161c191690558b8080610c87565b92936020600181928786015181550195019301610c6a565b634e487b7160e01b89526041600452602489fd5b634e487b7160e01b88526021600452602488fd5b0151905089806109e8565b6003850189528189209190601f1984168a5b818110610d495750908460019594939210610d30575b505050811b016003830155610a69565b015160001960f88460031b161c19169055888080610d20565b92936020600181928786015181550195019301610d0a565b634e487b7160e01b88526041600452602488fd5b6002850189528189209190601f1984168a5b818110610dc65750908460019594939210610dad575b505050811b016002830155610a03565b015160001960f88460031b161c19169055888080610d9d565b92936020600181928786015181550195019301610d87565b634e487b7160e01b600052601160045260246000fd5b63cabeb65560e01b60005260046000fd5b346101c65760203660031901126101c6576004356000526003602052610e2e6040600020611764565b61014081015190600582101561042c576001602092149081610e56575b506040519015158152f35b6101a09150015142101582610e4b565b346101c65760003660031901126101c657610e7f611cb7565b600080546001600160a01b0319811682556001600160a01b03167f8be0079c531659141344cd1fd0a4f28419497f9722a3daafe3b4186f6b6457e08280a3005b346101c65760003660031901126101c6576020604051610bb88152f35b346101c65760203660031901126101c6576004356000526003602052610f056040600020611764565b610120810190620493e08251101560009060e08301610f2d610100825195019485519061189a565b610f70575b519251935160c09483610f67575b60405194855260208501526040840152620493e060608401526080830152151560a0820152f35b92508192610f40565b80925051936127108502948086046127101490151715610dde57611770610fa660c096610fa0865188519061189a565b9061187a565b101592909450610f32565b346101c65760203660031901126101c657600435806000526003602052604060002060ff600a82015416600581101561042c576110375760060154421115610ffc5761053290611bd0565b60405162461bcd60e51b8152602060048201526013602482015272566f74696e67207374696c6c2061637469766560681b6044820152606490fd5b637becc13f60e01b60005260046000fd5b346101c65760003660031901126101c6576040518060206007549283815201809260076000527fa66cc928b5edb82af9bd49922954155ab7b0942694bea4ce44661d9a8736c6889060005b8181106110ec57505050816110a9910382611641565b6040519182916020830190602084525180915260408301919060005b8181106110d3575050500390f35b82518452859450602093840193909201916001016110c5565b8254845260209093019260019283019201611093565b346101c65760003660031901126101c65760206040516117708152f35b346101c65760003660031901126101c65760206040516202a3008152f35b346101c65760003660031901126101c6576020604051620f42408152f35b346101c65760203660031901126101c6576004358060005260036020526040600020600a810160ff815416600581101561042c576001036113ca57600d82015442106113b957805460ff191660031790556111b582611ae7565b6060600b8201918254916111c883611535565b1515806113a3575b156113635750600c01546001600160a01b031660008181526006602052604090205490929060ff1615611352576040519160009161120d82611535565b916001811690811561133a5750600114611304575b505091816000809493819403925af1903d156112d857807faf8f9d0e884d3306a083e846741a0bc4d75908e2b0ec63b558219652ae4c1b9061129f3d6112678161185e565b906112756040519283611641565b81523d6000602083013e5b945b604051918291159687158352604060208401526040830190611670565b0390a2600080516020611ce1833981519152604080516001815260036020820152a26112c757005b632b3f6d1160e21b60005260046000fd5b807faf8f9d0e884d3306a083e846741a0bc4d75908e2b0ec63b558219652ae4c1b9061129f6060611280565b90915060005260206000206000905b8282106113265750508101816000611222565b600181602092548487015201910190611313565b60ff1916855250508015150282019050816000611222565b6372312d7960e01b60005260046000fd5b93925082915061129f61139e6113997faf8f9d0e884d3306a083e846741a0bc4d75908e2b0ec63b558219652ae4c1b9093611764565b611b82565b611282565b50600c8201546001600160a01b031615156111d0565b631acbf5f760e31b60005260046000fd5b63c8c93ba360e01b60005260046000fd5b346101c65760203660031901126101c65760043560005260036020526040600020805490600181015460ff1692808060028401906114189161156f565b036114239082611641565b60405180611434816003860161156f565b0361143f9082611641565b600160a01b60019003600484015416600584015460068501546007860154600887015490600988015492600a89015460ff1694604051978880600b8d01906114869161156f565b03611491908a611641565b600160a01b60019003600c8c0154169a600d0154996040519d8e809e81526020016114bb91611663565b60408d016101c090526101c08d016114d291611670565b8c810360608e01526114e391611670565b9660808c015260a08b015260c08a015260e08901526101008801526101208701526101408601611512916116b1565b84810361016086015261152491611670565b916101808401526101a08301520390f35b90600182811c92168015611565575b602083101461154f57565b634e487b7160e01b600052602260045260246000fd5b91607f1691611544565b6000929181549161157f83611535565b80835292600181169081156115d5575060011461159b57505050565b60009081526020812093945091925b8383106115bb575060209250010190565b6001816020929493945483858701015201910191906115aa565b915050602093945060ff929192191683830152151560051b010190565b6101c0810190811067ffffffffffffffff82111761160f57604052565b634e487b7160e01b600052604160045260246000fd5b6080810190811067ffffffffffffffff82111761160f57604052565b90601f8019910116810190811067ffffffffffffffff82111761160f57604052565b90600482101561042c5752565b919082519283825260005b84811061169c575050826000602080949584010152601f8019910116010190565b8060208092840101518282860101520161167b565b90600582101561042c5752565b9181601f840112156101c65782359167ffffffffffffffff83116101c657602083818601950101116101c657565b602435906001600160a01b03821682036101c657565b600435906001600160a01b03821682036101c657565b6024359081151582036101c657565b60075481101561174257600760005260206000200190600090565b634e487b7160e01b600052603260045260246000fd5b600482101561042c5752565b90604051611771816115f2565b80928054825261178b60ff60018301541660208401611758565b6040516117a68161179f816002860161156f565b0382611641565b60408301526040516117bf8161179f816003860161156f565b606083015260048101546001600160a01b0316608083015260058082015460a0840152600682015460c0840152600782015460e084015260088201546101008401526009820154610120840152600a82015460ff169081101561042c576101a091600d9161014085015260405161183d8161179f81600b860161156f565b610160850152600c8101546001600160a01b03166101808501520154910152565b67ffffffffffffffff811161160f57601f01601f191660200190565b8115611884570490565b634e487b7160e01b600052601260045260246000fd5b91908201809211610dde57565b9291926118b38261185e565b916118c16040519384611641565b8294818452818301116101c6578281602093846000960137010152565b601f82116118eb57505050565b6000526020600020906020601f840160051c83019310611926575b601f0160051c01905b81811061191a575050565b6000815560010161190f565b9091508190611906565b806000526003602052604060002060ff600a82015416600581101561042c5761103757600082815260046020908152604080832033845290915290206001015460ff16611ad65760068101544211611ac957336000526005602052604060002054908115611a9257600990604051946119a886611625565b83865260208601956001875260026040820183151598898252606084019142835289600052600460205260408060002060009060018060a01b03331682526020522094518555611a0b6001860192511515839060ff801983541691151516179055565b51815461ff00191690151560081b61ff00161790555191015515611a7c5760078101611a3884825461189a565b90555b01611a4782825461189a565b905560405192835260208301527fcbdf6214089cba887ecbf35a0b6a734589959c9763342c756bb2a80ca2bc9f6e60403393a3565b60088101611a8b84825461189a565b9055611a3b565b60405162461bcd60e51b815260206004820152600f60248201526e2737903b37ba34b733903837bbb2b960891b6044820152606490fd5b50611ad49150611bd0565b565b637c9a1cf960e01b60005260046000fd5b60005b60075480821015611b7d5782611aff83611727565b90549060031b1c14611b145750600101611aea565b600019810192508211610dde57610bcb611b30611b3d93611727565b90549060031b1c91611727565b6007548015611b675760001901611b5381611727565b8154906000199060031b1b19169055600755565b634e487b7160e01b600052603160045260246000fd5b505050565b602001805190600482101561042c57600091600103611ba2575050600190565b516004811015611bbc57600314611bb65790565b50600190565b634e487b7160e01b82526021600452602482fd5b8060005260036020526040600020620493e0600982015410611c51576007810154611bff60088301548261189a565b60009181611c89575b505015611c5157600a8101600160ff198254161790556202a300420190814211610dde57600d0155600080516020611ce1833981519152604080516000815260016020820152a2565b90600a611ad49201600260ff1982541617905580600080516020611ce1833981519152604080516000815260026020820152a2611ae7565b9091506127108102908082046127101490151715610dde5761177091611cae9161187a565b10153880611c08565b6000546001600160a01b03163303611ccb57565b63118cdaa760e01b6000523360045260246000fdfe6147c657c509b611c5b884671c7cb0da0e1eed364b561e0e9d48789b79421525a2646970667358221220e206b7a6e3f09ca45648bafbe13b7796567bec57ad4e065107bf76156014e3cc64736f6c634300081a0033","opcodes":"PUSH1 0x80 CALLVALUE PUSH1 0xC0 JUMPI PUSH1 0x1F PUSH2 0x1E12 CODESIZE DUP2 SWAP1 SUB SWAP2 DUP3 ADD PUSH1 0x1F NOT AND DUP4 ADD SWAP2 PUSH1 0x1 PUSH1 0x1 PUSH1 0x40 SHL SUB DUP4 GT DUP5 DUP5 LT OR PUSH1 0xC5 JUMPI DUP1 DUP5 SWAP3 PUSH1 0x20 SWAP5 PUSH1 0x40 MSTORE DUP4 CODECOPY DUP2 ADD SUB SLT PUSH1 0xC0 JUMPI MLOAD PUSH1 0x1 PUSH1 0x1 PUSH1 0xA0 SHL SUB DUP2 AND SWAP1 DUP2 SWAP1 SUB PUSH1 0xC0 JUMPI DUP1 ISZERO PUSH1 0xAA JUMPI PUSH1 0x0 DUP1 SLOAD PUSH1 0x1 PUSH1 0x1 PUSH1 0xA0 SHL SUB NOT DUP2 AND DUP4 OR DUP3 SSTORE PUSH1 0x40 MLOAD SWAP3 SWAP2 PUSH1 0x1 PUSH1 0x1 PUSH1 0xA0 SHL SUB SWAP1 SWAP2 AND SWAP1 PUSH32 0x8BE0079C531659141344CD1FD0A4F28419497F9722A3DAAFE3B4186F6B6457E0 SWAP1 DUP1 LOG3 PUSH1 0x1 DUP1 SSTORE PUSH2 0x1D36 SWAP1 DUP2 PUSH2 0xDC DUP3 CODECOPY RETURN JUMPDEST PUSH4 0x1E4FBDF7 PUSH1 0xE0 SHL PUSH1 0x0 MSTORE PUSH1 0x0 PUSH1 0x4 MSTORE PUSH1 0x24 PUSH1 0x0 REVERT JUMPDEST PUSH1 0x0 DUP1 REVERT JUMPDEST PUSH4 0x4E487B71 PUSH1 0xE0 SHL PUSH1 0x0 MSTORE PUSH1 0x41 PUSH1 0x4 MSTORE PUSH1 0x24 PUSH1 0x0 REVERT INVALID PUSH1 0x80 DUP1 PUSH1 0x40 MSTORE PUSH1 0x4 CALLDATASIZE LT ISZERO PUSH2 0x13 JUMPI PUSH1 0x0 DUP1 REVERT JUMPDEST PUSH1 0x0 CALLDATALOAD PUSH1 0xE0 SHR SWAP1 DUP2 PUSH4 0x13CF08B EQ PUSH2 0x13DB JUMPI POP DUP1 PUSH4 0xD61B519 EQ PUSH2 0x115B JUMPI DUP1 PUSH4 0x11ACC1A7 EQ PUSH2 0x113D JUMPI DUP1 PUSH4 0x37F135D7 EQ PUSH2 0x111F JUMPI DUP1 PUSH4 0x3AB34290 EQ PUSH2 0x1102 JUMPI DUP1 PUSH4 0x5584C4F9 EQ PUSH2 0x1048 JUMPI DUP1 PUSH4 0x5652077C EQ PUSH2 0xFB1 JUMPI DUP1 PUSH4 0x5BDCD008 EQ PUSH2 0xEDC JUMPI DUP1 PUSH4 0x5E510B60 EQ PUSH2 0xEBF JUMPI DUP1 PUSH4 0x715018A6 EQ PUSH2 0xE66 JUMPI DUP1 PUSH4 0x824EA8ED EQ PUSH2 0xE05 JUMPI DUP1 PUSH4 0x859F89E7 EQ PUSH2 0x80A JUMPI DUP1 PUSH4 0x8DA5CB5B EQ PUSH2 0x7E1 JUMPI DUP1 PUSH4 0xA48AC1EA EQ PUSH2 0x7C4 JUMPI DUP1 PUSH4 0xB1610D7E EQ PUSH2 0x7A6 JUMPI DUP1 PUSH4 0xBC3F931F EQ PUSH2 0x6ED JUMPI DUP1 PUSH4 0xC07473F6 EQ PUSH2 0x6B3 JUMPI DUP1 PUSH4 0xC7F758A8 EQ PUSH2 0x534 JUMPI DUP1 PUSH4 0xC9D27AFE EQ PUSH2 0x50E JUMPI DUP1 PUSH4 0xD23254B4 EQ PUSH2 0x49F JUMPI DUP1 PUSH4 0xD5B9221B EQ PUSH2 0x460 JUMPI DUP1 PUSH4 0xDA35C664 EQ PUSH2 0x442 JUMPI DUP1 PUSH4 0xE0A8F6F5 EQ PUSH2 0x366 JUMPI DUP1 PUSH4 0xE40824F8 EQ PUSH2 0x32E JUMPI DUP1 PUSH4 0xEADC29C7 EQ PUSH2 0x254 JUMPI DUP1 PUSH4 0xF2FDE38B EQ PUSH2 0x1CB JUMPI PUSH4 0xF60CCC86 EQ PUSH2 0x148 JUMPI PUSH1 0x0 DUP1 REVERT JUMPDEST CALLVALUE PUSH2 0x1C6 JUMPI PUSH1 0x40 CALLDATASIZE PUSH1 0x3 NOT ADD SLT PUSH2 0x1C6 JUMPI PUSH2 0x161 PUSH2 0x1702 JUMP JUMPDEST PUSH32 0x3213AB8EC2ED122402F038736B41878B69AE9F61F49A7EDD0666BCE891D29FC9 PUSH1 0x20 PUSH2 0x18C PUSH2 0x1718 JUMP JUMPDEST SWAP3 PUSH2 0x195 PUSH2 0x1CB7 JUMP JUMPDEST PUSH1 0x1 PUSH1 0x1 PUSH1 0xA0 SHL SUB AND PUSH1 0x0 DUP2 DUP2 MSTORE PUSH1 0x6 DUP4 MSTORE PUSH1 0x40 SWAP1 KECCAK256 DUP1 SLOAD PUSH1 0xFF NOT AND PUSH1 0xFF DUP7 ISZERO ISZERO AND OR SWAP1 SSTORE SWAP3 PUSH1 0x40 MLOAD SWAP1 ISZERO ISZERO DUP2 MSTORE LOG2 STOP JUMPDEST PUSH1 0x0 DUP1 REVERT JUMPDEST CALLVALUE PUSH2 0x1C6 JUMPI PUSH1 0x20 CALLDATASIZE PUSH1 0x3 NOT ADD SLT PUSH2 0x1C6 JUMPI PUSH2 0x1E4 PUSH2 0x1702 JUMP JUMPDEST PUSH2 0x1EC PUSH2 0x1CB7 JUMP JUMPDEST PUSH1 0x1 PUSH1 0x1 PUSH1 0xA0 SHL SUB AND DUP1 ISZERO PUSH2 0x23E JUMPI PUSH1 0x0 DUP1 SLOAD PUSH1 0x1 PUSH1 0x1 PUSH1 0xA0 SHL SUB NOT DUP2 AND DUP4 OR DUP3 SSTORE PUSH1 0x1 PUSH1 0x1 PUSH1 0xA0 SHL SUB AND SWAP1 PUSH32 0x8BE0079C531659141344CD1FD0A4F28419497F9722A3DAAFE3B4186F6B6457E0 SWAP1 DUP1 LOG3 STOP JUMPDEST PUSH4 0x1E4FBDF7 PUSH1 0xE0 SHL PUSH1 0x0 MSTORE PUSH1 0x0 PUSH1 0x4 MSTORE PUSH1 0x24 PUSH1 0x0 REVERT JUMPDEST CALLVALUE PUSH2 0x1C6 JUMPI PUSH1 0x40 CALLDATASIZE PUSH1 0x3 NOT ADD SLT PUSH2 0x1C6 JUMPI PUSH2 0x26D PUSH2 0x1702 JUMP JUMPDEST PUSH1 0x24 CALLDATALOAD SWAP1 CALLER PUSH1 0x0 MSTORE PUSH1 0x6 PUSH1 0x20 MSTORE PUSH1 0xFF PUSH1 0x40 PUSH1 0x0 KECCAK256 SLOAD AND DUP1 ISZERO PUSH2 0x31A JUMPI JUMPDEST ISZERO PUSH2 0x2E4 JUMPI PUSH1 0x1 PUSH1 0x1 PUSH1 0xA0 SHL SUB AND PUSH1 0x0 DUP2 DUP2 MSTORE PUSH1 0x5 PUSH1 0x20 SWAP1 DUP2 MSTORE PUSH1 0x40 SWAP2 DUP3 SWAP1 KECCAK256 DUP1 SLOAD SWAP1 DUP6 SWAP1 SSTORE DUP3 MLOAD SWAP1 DUP2 MSTORE SWAP1 DUP2 ADD SWAP4 SWAP1 SWAP4 MSTORE SWAP1 SWAP2 PUSH32 0x2A1B0ACB0A6FE010DB932FC889BEC652A0DAADC5CAFA0D648ADA6B79E48937D2 SWAP2 SWAP1 LOG2 STOP JUMPDEST PUSH1 0x40 MLOAD PUSH3 0x461BCD PUSH1 0xE5 SHL DUP2 MSTORE PUSH1 0x20 PUSH1 0x4 DUP3 ADD MSTORE PUSH1 0xE PUSH1 0x24 DUP3 ADD MSTORE PUSH14 0x139BDD08185D5D1A1BDC9A5E9959 PUSH1 0x92 SHL PUSH1 0x44 DUP3 ADD MSTORE PUSH1 0x64 SWAP1 REVERT JUMPDEST POP PUSH1 0x0 SLOAD PUSH1 0x1 PUSH1 0x1 PUSH1 0xA0 SHL SUB AND CALLER EQ PUSH2 0x28A JUMP JUMPDEST CALLVALUE PUSH2 0x1C6 JUMPI PUSH1 0x20 CALLDATASIZE PUSH1 0x3 NOT ADD SLT PUSH2 0x1C6 JUMPI PUSH1 0x4 CALLDATALOAD PUSH1 0x7 SLOAD DUP2 LT ISZERO PUSH2 0x1C6 JUMPI PUSH2 0x357 PUSH1 0x20 SWAP2 PUSH2 0x1727 JUMP JUMPDEST SWAP1 SLOAD SWAP1 PUSH1 0x3 SHL SHR PUSH1 0x40 MLOAD SWAP1 DUP2 MSTORE RETURN JUMPDEST CALLVALUE PUSH2 0x1C6 JUMPI PUSH1 0x20 CALLDATASIZE PUSH1 0x3 NOT ADD SLT PUSH2 0x1C6 JUMPI PUSH1 0x4 CALLDATALOAD PUSH2 0x382 PUSH2 0x1CB7 JUMP JUMPDEST DUP1 PUSH1 0x0 MSTORE PUSH1 0x3 PUSH1 0x20 MSTORE PUSH1 0xA PUSH1 0x40 PUSH1 0x0 KECCAK256 ADD PUSH1 0xFF DUP2 SLOAD AND SWAP1 PUSH1 0x5 DUP3 LT ISZERO PUSH2 0x42C JUMPI DUP2 ISZERO DUP1 ISZERO PUSH2 0x422 JUMPI JUMPDEST ISZERO PUSH2 0x3ED JUMPI DUP1 SLOAD PUSH1 0xFF NOT AND PUSH1 0x4 OR SWAP1 SSTORE PUSH1 0x0 DUP1 MLOAD PUSH1 0x20 PUSH2 0x1CE1 DUP4 CODECOPY DUP2 MLOAD SWAP2 MSTORE SWAP1 PUSH1 0x40 SWAP1 PUSH2 0x3D7 DUP5 PUSH2 0x1AE7 JUMP JUMPDEST PUSH2 0x3E3 DUP3 MLOAD DUP1 SWAP3 PUSH2 0x16B1 JUMP JUMPDEST PUSH1 0x4 PUSH1 0x20 DUP3 ADD MSTORE LOG2 STOP JUMPDEST PUSH1 0x40 MLOAD PUSH3 0x461BCD PUSH1 0xE5 SHL DUP2 MSTORE PUSH1 0x20 PUSH1 0x4 DUP3 ADD MSTORE PUSH1 0xD PUSH1 0x24 DUP3 ADD MSTORE PUSH13 0x10D85B9B9BDD0818D85B98D95B PUSH1 0x9A SHL PUSH1 0x44 DUP3 ADD MSTORE PUSH1 0x64 SWAP1 REVERT JUMPDEST POP PUSH1 0x1 DUP3 EQ PUSH2 0x3AB JUMP JUMPDEST PUSH4 0x4E487B71 PUSH1 0xE0 SHL PUSH1 0x0 MSTORE PUSH1 0x21 PUSH1 0x4 MSTORE PUSH1 0x24 PUSH1 0x0 REVERT JUMPDEST CALLVALUE PUSH2 0x1C6 JUMPI PUSH1 0x0 CALLDATASIZE PUSH1 0x3 NOT ADD SLT PUSH2 0x1C6 JUMPI PUSH1 0x20 PUSH1 0x2 SLOAD PUSH1 0x40 MLOAD SWAP1 DUP2 MSTORE RETURN JUMPDEST CALLVALUE PUSH2 0x1C6 JUMPI PUSH1 0x20 CALLDATASIZE PUSH1 0x3 NOT ADD SLT PUSH2 0x1C6 JUMPI PUSH1 0x1 PUSH1 0x1 PUSH1 0xA0 SHL SUB PUSH2 0x481 PUSH2 0x1702 JUMP JUMPDEST AND PUSH1 0x0 MSTORE PUSH1 0x6 PUSH1 0x20 MSTORE PUSH1 0x20 PUSH1 0xFF PUSH1 0x40 PUSH1 0x0 KECCAK256 SLOAD AND PUSH1 0x40 MLOAD SWAP1 ISZERO ISZERO DUP2 MSTORE RETURN JUMPDEST CALLVALUE PUSH2 0x1C6 JUMPI PUSH1 0x40 CALLDATASIZE PUSH1 0x3 NOT ADD SLT PUSH2 0x1C6 JUMPI PUSH1 0x80 PUSH1 0x40 PUSH2 0x4BC PUSH2 0x16EC JUMP JUMPDEST PUSH1 0x4 CALLDATALOAD PUSH1 0x0 MSTORE PUSH1 0x4 PUSH1 0x20 MSTORE DUP2 PUSH1 0x0 KECCAK256 PUSH1 0x0 SWAP2 PUSH1 0x1 DUP1 PUSH1 0xA0 SHL SUB AND DUP3 MSTORE PUSH1 0x20 MSTORE KECCAK256 DUP1 SLOAD SWAP1 PUSH1 0xFF PUSH1 0x2 PUSH1 0x1 DUP4 ADD SLOAD SWAP3 ADD SLOAD SWAP2 PUSH1 0x40 MLOAD SWAP4 DUP5 MSTORE DUP2 DUP2 AND ISZERO ISZERO PUSH1 0x20 DUP6 ADD MSTORE PUSH1 0x8 SHR AND ISZERO ISZERO PUSH1 0x40 DUP4 ADD MSTORE PUSH1 0x60 DUP3 ADD MSTORE RETURN JUMPDEST CALLVALUE PUSH2 0x1C6 JUMPI PUSH1 0x40 CALLDATASIZE PUSH1 0x3 NOT ADD SLT PUSH2 0x1C6 JUMPI PUSH2 0x532 PUSH2 0x52A PUSH2 0x1718 JUMP JUMPDEST PUSH1 0x4 CALLDATALOAD PUSH2 0x1930 JUMP JUMPDEST STOP JUMPDEST CALLVALUE PUSH2 0x1C6 JUMPI PUSH1 0x20 CALLDATASIZE PUSH1 0x3 NOT ADD SLT PUSH2 0x1C6 JUMPI PUSH1 0x0 PUSH2 0x1A0 PUSH1 0x40 MLOAD PUSH2 0x556 DUP2 PUSH2 0x15F2 JUMP JUMPDEST DUP3 DUP2 MSTORE DUP3 PUSH1 0x20 DUP3 ADD MSTORE PUSH1 0x60 PUSH1 0x40 DUP3 ADD MSTORE PUSH1 0x60 DUP1 DUP3 ADD MSTORE DUP3 PUSH1 0x80 DUP3 ADD MSTORE DUP3 PUSH1 0xA0 DUP3 ADD MSTORE DUP3 PUSH1 0xC0 DUP3 ADD MSTORE DUP3 PUSH1 0xE0 DUP3 ADD MSTORE DUP3 PUSH2 0x100 DUP3 ADD MSTORE DUP3 PUSH2 0x120 DUP3 ADD MSTORE DUP3 PUSH2 0x140 DUP3 ADD MSTORE PUSH1 0x60 PUSH2 0x160 DUP3 ADD MSTORE DUP3 PUSH2 0x180 DUP3 ADD MSTORE ADD MSTORE PUSH1 0x4 CALLDATALOAD PUSH1 0x0 MSTORE PUSH1 0x3 PUSH1 0x20 MSTORE PUSH2 0x5C2 PUSH1 0x40 PUSH1 0x0 KECCAK256 PUSH2 0x1764 JUMP JUMPDEST PUSH1 0x40 MLOAD DUP1 SWAP2 PUSH1 0x20 DUP3 MSTORE DUP1 MLOAD PUSH1 0x20 DUP4 ADD MSTORE PUSH2 0x5E4 PUSH1 0x20 DUP3 ADD MLOAD PUSH1 0x40 DUP5 ADD SWAP1 PUSH2 0x1663 JUMP JUMPDEST PUSH2 0x1A0 PUSH2 0x693 PUSH2 0x61E PUSH2 0x608 PUSH1 0x40 DUP6 ADD MLOAD PUSH2 0x1C0 PUSH1 0x60 DUP9 ADD MSTORE PUSH2 0x1E0 DUP8 ADD SWAP1 PUSH2 0x1670 JUMP JUMPDEST PUSH1 0x60 DUP6 ADD MLOAD DUP7 DUP3 SUB PUSH1 0x1F NOT ADD PUSH1 0x80 DUP9 ADD MSTORE PUSH2 0x1670 JUMP JUMPDEST PUSH1 0x1 DUP1 PUSH1 0xA0 SHL SUB PUSH1 0x80 DUP6 ADD MLOAD AND PUSH1 0xA0 DUP7 ADD MSTORE PUSH1 0xA0 DUP5 ADD MLOAD PUSH1 0xC0 DUP7 ADD MSTORE PUSH1 0xC0 DUP5 ADD MLOAD PUSH1 0xE0 DUP7 ADD MSTORE PUSH1 0xE0 DUP5 ADD MLOAD PUSH2 0x100 DUP7 ADD MSTORE PUSH2 0x100 DUP5 ADD MLOAD PUSH2 0x120 DUP7 ADD MSTORE PUSH2 0x120 DUP5 ADD MLOAD PUSH2 0x140 DUP7 ADD MSTORE PUSH2 0x67B PUSH2 0x140 DUP6 ADD MLOAD PUSH2 0x160 DUP8 ADD SWAP1 PUSH2 0x16B1 JUMP JUMPDEST PUSH2 0x160 DUP5 ADD MLOAD DUP6 DUP3 SUB PUSH1 0x1F NOT ADD PUSH2 0x180 DUP8 ADD MSTORE PUSH2 0x1670 JUMP JUMPDEST PUSH2 0x180 DUP4 ADD MLOAD PUSH1 0x1 PUSH1 0x1 PUSH1 0xA0 SHL SUB AND DUP5 DUP4 ADD MSTORE SWAP2 ADD MLOAD PUSH2 0x1C0 DUP4 ADD MSTORE SUB SWAP1 RETURN JUMPDEST CALLVALUE PUSH2 0x1C6 JUMPI PUSH1 0x20 CALLDATASIZE PUSH1 0x3 NOT ADD SLT PUSH2 0x1C6 JUMPI PUSH1 0x1 PUSH1 0x1 PUSH1 0xA0 SHL SUB PUSH2 0x6D4 PUSH2 0x1702 JUMP JUMPDEST AND PUSH1 0x0 MSTORE PUSH1 0x5 PUSH1 0x20 MSTORE PUSH1 0x20 PUSH1 0x40 PUSH1 0x0 KECCAK256 SLOAD PUSH1 0x40 MLOAD SWAP1 DUP2 MSTORE RETURN JUMPDEST CALLVALUE PUSH2 0x1C6 JUMPI PUSH1 0x40 CALLDATASIZE PUSH1 0x3 NOT ADD SLT PUSH2 0x1C6 JUMPI PUSH1 0x80 PUSH1 0x40 PUSH2 0x70A PUSH2 0x16EC JUMP JUMPDEST PUSH1 0x0 PUSH1 0x60 DUP4 MLOAD PUSH2 0x719 DUP2 PUSH2 0x1625 JUMP JUMPDEST DUP3 DUP2 MSTORE DUP3 PUSH1 0x20 DUP3 ADD MSTORE DUP3 DUP6 DUP3 ADD MSTORE ADD MSTORE PUSH1 0x4 CALLDATALOAD PUSH1 0x0 MSTORE PUSH1 0x4 PUSH1 0x20 MSTORE DUP2 PUSH1 0x0 KECCAK256 PUSH1 0x0 SWAP2 PUSH1 0x1 DUP1 PUSH1 0xA0 SHL SUB AND DUP3 MSTORE PUSH1 0x20 MSTORE KECCAK256 PUSH1 0x40 MLOAD PUSH2 0x755 DUP2 PUSH2 0x1625 JUMP JUMPDEST DUP2 SLOAD SWAP2 DUP3 DUP3 MSTORE PUSH1 0x1 DUP2 ADD SLOAD SWAP1 PUSH1 0x60 PUSH1 0x2 PUSH1 0x20 DUP6 ADD SWAP3 PUSH1 0xFF DUP6 AND ISZERO ISZERO DUP5 MSTORE PUSH1 0xFF PUSH1 0x40 DUP8 ADD SWAP6 PUSH1 0x8 SHR AND ISZERO ISZERO DUP6 MSTORE ADD SLOAD SWAP4 ADD SWAP3 DUP4 MSTORE PUSH1 0x40 MLOAD SWAP4 DUP5 MSTORE MLOAD ISZERO ISZERO PUSH1 0x20 DUP5 ADD MSTORE MLOAD ISZERO ISZERO PUSH1 0x40 DUP4 ADD MSTORE MLOAD PUSH1 0x60 DUP3 ADD MSTORE RETURN JUMPDEST CALLVALUE PUSH2 0x1C6 JUMPI PUSH1 0x0 CALLDATASIZE PUSH1 0x3 NOT ADD SLT PUSH2 0x1C6 JUMPI PUSH1 0x20 PUSH1 0x40 MLOAD PUSH3 0x93A80 DUP2 MSTORE RETURN JUMPDEST CALLVALUE PUSH2 0x1C6 JUMPI PUSH1 0x0 CALLDATASIZE PUSH1 0x3 NOT ADD SLT PUSH2 0x1C6 JUMPI PUSH1 0x20 PUSH1 0x40 MLOAD PUSH2 0x3E8 DUP2 MSTORE RETURN JUMPDEST CALLVALUE PUSH2 0x1C6 JUMPI PUSH1 0x0 CALLDATASIZE PUSH1 0x3 NOT ADD SLT PUSH2 0x1C6 JUMPI PUSH1 0x0 SLOAD PUSH1 0x40 MLOAD PUSH1 0x1 PUSH1 0x1 PUSH1 0xA0 SHL SUB SWAP1 SWAP2 AND DUP2 MSTORE PUSH1 0x20 SWAP1 RETURN JUMPDEST CALLVALUE PUSH2 0x1C6 JUMPI PUSH1 0xA0 CALLDATASIZE PUSH1 0x3 NOT ADD SLT PUSH2 0x1C6 JUMPI PUSH1 0x4 DUP1 CALLDATALOAD LT ISZERO PUSH2 0x1C6 JUMPI PUSH1 0x24 CALLDATALOAD PUSH8 0xFFFFFFFFFFFFFFFF DUP2 GT PUSH2 0x1C6 JUMPI PUSH2 0x845 SWAP1 CALLDATASIZE SWAP1 PUSH1 0x4 ADD PUSH2 0x16BE JUMP JUMPDEST SWAP1 PUSH1 0x44 CALLDATALOAD PUSH8 0xFFFFFFFFFFFFFFFF DUP2 GT PUSH2 0x1C6 JUMPI PUSH2 0x866 SWAP1 CALLDATASIZE SWAP1 PUSH1 0x4 ADD PUSH2 0x16BE JUMP JUMPDEST SWAP3 SWAP1 SWAP2 PUSH1 0x64 CALLDATALOAD PUSH8 0xFFFFFFFFFFFFFFFF DUP2 GT PUSH2 0x1C6 JUMPI PUSH2 0x889 SWAP1 CALLDATASIZE SWAP1 PUSH1 0x4 ADD PUSH2 0x16BE JUMP JUMPDEST SWAP4 PUSH1 0x84 CALLDATALOAD PUSH1 0x1 PUSH1 0x1 PUSH1 0xA0 SHL SUB DUP2 AND SWAP3 SWAP1 DUP4 SWAP1 SUB PUSH2 0x1C6 JUMPI CALLER PUSH1 0x0 MSTORE PUSH1 0x5 PUSH1 0x20 MSTORE PUSH3 0x186A0 PUSH1 0x40 PUSH1 0x0 KECCAK256 SLOAD LT PUSH2 0xDF4 JUMPI PUSH1 0x2 SLOAD SWAP6 PUSH1 0x0 NOT DUP8 EQ PUSH2 0xDDE JUMPI PUSH1 0x1 DUP8 ADD PUSH1 0x2 SSTORE PUSH3 0x93A80 TIMESTAMP ADD DUP1 TIMESTAMP GT PUSH2 0xDDE JUMPI PUSH2 0x916 PUSH2 0x952 SWAP5 PUSH1 0x40 MLOAD SWAP11 PUSH2 0x8ED DUP13 PUSH2 0x15F2 JUMP JUMPDEST DUP11 DUP13 MSTORE PUSH2 0x8FF PUSH1 0x4 CALLDATALOAD PUSH1 0x20 DUP15 ADD PUSH2 0x1758 JUMP JUMPDEST PUSH2 0x90A CALLDATASIZE DUP12 DUP12 PUSH2 0x18A7 JUMP JUMPDEST PUSH1 0x40 DUP14 ADD MSTORE CALLDATASIZE SWAP2 PUSH2 0x18A7 JUMP JUMPDEST PUSH1 0x60 DUP11 ADD MSTORE CALLER PUSH1 0x80 DUP11 ADD MSTORE TIMESTAMP PUSH1 0xA0 DUP11 ADD MSTORE PUSH1 0xC0 DUP10 ADD MSTORE PUSH1 0x0 PUSH1 0xE0 DUP10 ADD MSTORE PUSH1 0x0 PUSH2 0x100 DUP10 ADD MSTORE PUSH1 0x0 PUSH2 0x120 DUP10 ADD MSTORE PUSH1 0x0 PUSH2 0x140 DUP10 ADD MSTORE CALLDATASIZE SWAP2 PUSH2 0x18A7 JUMP JUMPDEST PUSH2 0x160 DUP7 ADD MSTORE PUSH2 0x180 DUP6 ADD MSTORE PUSH1 0x0 PUSH2 0x1A0 DUP6 ADD MSTORE DUP3 PUSH1 0x0 MSTORE PUSH1 0x3 PUSH1 0x20 MSTORE PUSH1 0x40 PUSH1 0x0 KECCAK256 DUP5 MLOAD DUP2 SSTORE PUSH1 0x20 DUP6 ADD MLOAD SWAP5 PUSH1 0x4 DUP7 LT ISZERO PUSH2 0x42C JUMPI PUSH1 0x0 SWAP6 PUSH1 0xFF DUP1 NOT PUSH1 0x1 DUP6 ADD SLOAD AND SWAP2 AND OR PUSH1 0x1 DUP4 ADD SSTORE PUSH1 0x40 DUP2 ADD MLOAD DUP1 MLOAD SWAP1 PUSH8 0xFFFFFFFFFFFFFFFF DUP3 GT PUSH2 0xD61 JUMPI PUSH2 0x9CD DUP3 PUSH2 0x9C4 PUSH1 0x2 DUP8 ADD SLOAD PUSH2 0x1535 JUMP JUMPDEST PUSH1 0x2 DUP8 ADD PUSH2 0x18DE JUMP JUMPDEST PUSH1 0x20 SWAP1 PUSH1 0x1F DUP4 GT PUSH1 0x1 EQ PUSH2 0xD75 JUMPI PUSH2 0x9FD SWAP3 SWAP2 DUP10 SWAP2 DUP4 PUSH2 0xCED JUMPI JUMPDEST POP POP DUP2 PUSH1 0x1 SHL SWAP2 PUSH1 0x0 NOT SWAP1 PUSH1 0x3 SHL SHR NOT AND OR SWAP1 JUMP JUMPDEST PUSH1 0x2 DUP4 ADD SSTORE JUMPDEST PUSH1 0x60 DUP2 ADD MLOAD DUP1 MLOAD SWAP1 PUSH8 0xFFFFFFFFFFFFFFFF DUP3 GT PUSH2 0xD61 JUMPI PUSH2 0xA34 DUP3 PUSH2 0xA2B PUSH1 0x3 DUP8 ADD SLOAD PUSH2 0x1535 JUMP JUMPDEST PUSH1 0x3 DUP8 ADD PUSH2 0x18DE JUMP JUMPDEST PUSH1 0x20 SWAP1 PUSH1 0x1F DUP4 GT PUSH1 0x1 EQ PUSH2 0xCF8 JUMPI PUSH2 0xA63 SWAP3 SWAP2 DUP10 SWAP2 DUP4 PUSH2 0xCED JUMPI POP POP DUP2 PUSH1 0x1 SHL SWAP2 PUSH1 0x0 NOT SWAP1 PUSH1 0x3 SHL SHR NOT AND OR SWAP1 JUMP JUMPDEST PUSH1 0x3 DUP4 ADD SSTORE JUMPDEST PUSH1 0x80 DUP2 ADD MLOAD PUSH1 0x4 DUP4 ADD DUP1 SLOAD PUSH1 0x1 PUSH1 0x1 PUSH1 0xA0 SHL SUB NOT AND PUSH1 0x1 PUSH1 0x1 PUSH1 0xA0 SHL SUB SWAP3 SWAP1 SWAP3 AND SWAP2 SWAP1 SWAP2 OR SWAP1 SSTORE PUSH1 0xA0 DUP2 ADD MLOAD PUSH1 0x5 DUP1 DUP5 ADD SWAP2 SWAP1 SWAP2 SSTORE PUSH1 0xC0 DUP3 ADD MLOAD PUSH1 0x6 DUP5 ADD SSTORE PUSH1 0xE0 DUP3 ADD MLOAD PUSH1 0x7 DUP5 ADD SSTORE PUSH2 0x100 DUP3 ADD MLOAD PUSH1 0x8 DUP5 ADD SSTORE PUSH2 0x120 DUP3 ADD MLOAD PUSH1 0x9 DUP5 ADD SSTORE PUSH2 0x140 DUP3 ADD MLOAD PUSH1 0xA DUP5 ADD SWAP2 DUP2 LT ISZERO PUSH2 0xCD9 JUMPI PUSH1 0xFF DUP1 NOT DUP4 SLOAD AND SWAP2 AND OR SWAP1 SSTORE PUSH1 0xB DUP3 ADD PUSH2 0x160 DUP3 ADD MLOAD DUP1 MLOAD SWAP1 PUSH8 0xFFFFFFFFFFFFFFFF DUP3 GT PUSH2 0xCC5 JUMPI PUSH2 0xB16 DUP3 PUSH2 0xB10 DUP6 SLOAD PUSH2 0x1535 JUMP JUMPDEST DUP6 PUSH2 0x18DE JUMP JUMPDEST PUSH1 0x20 SWAP1 PUSH1 0x1F DUP4 GT PUSH1 0x1 EQ PUSH2 0xC5B JUMPI DUP3 PUSH1 0xD SWAP6 SWAP4 PUSH2 0x1A0 SWAP6 SWAP4 PUSH2 0xB4D SWAP4 DUP14 SWAP3 PUSH2 0xC50 JUMPI POP POP DUP2 PUSH1 0x1 SHL SWAP2 PUSH1 0x0 NOT SWAP1 PUSH1 0x3 SHL SHR NOT AND OR SWAP1 JUMP JUMPDEST SWAP1 SSTORE JUMPDEST PUSH2 0x180 DUP2 ADD MLOAD PUSH1 0xC DUP6 ADD DUP1 SLOAD PUSH1 0x1 PUSH1 0x1 PUSH1 0xA0 SHL SUB NOT AND PUSH1 0x1 PUSH1 0x1 PUSH1 0xA0 SHL SUB SWAP3 SWAP1 SWAP3 AND SWAP2 SWAP1 SWAP2 OR SWAP1 SSTORE ADD MLOAD SWAP2 ADD SSTORE PUSH1 0x7 SLOAD PUSH9 0x10000000000000000 DUP2 LT ISZERO PUSH2 0xC3C JUMPI DUP4 SWAP2 PUSH1 0x20 SWAP6 PUSH2 0xBE4 DUP5 PUSH2 0xBCB DUP6 PUSH1 0x1 PUSH32 0x8DEFAB9EE71E899835FFDDF06CCC008A3C1C0AB51C88FBC0FF7C3F3EAE179F6A SWAP8 ADD PUSH1 0x7 SSTORE PUSH2 0x1727 JUMP JUMPDEST SWAP1 SWAP2 SWAP1 DUP3 SLOAD SWAP1 PUSH1 0x3 SHL SWAP2 DUP3 SHL SWAP2 PUSH1 0x0 NOT SWAP1 SHL NOT AND OR SWAP1 SSTORE JUMP JUMPDEST DUP4 DUP2 MSTORE PUSH1 0x3 DUP8 MSTORE PUSH1 0x6 PUSH1 0x40 DUP3 KECCAK256 ADD SLOAD SWAP1 DUP6 PUSH1 0x40 MLOAD SWAP4 PUSH2 0xC05 DUP6 PUSH1 0x4 CALLDATALOAD PUSH2 0x1663 JUMP JUMPDEST PUSH1 0x60 DUP11 DUP7 ADD MSTORE DUP2 PUSH1 0x60 DUP7 ADD MSTORE PUSH1 0x80 DUP6 ADD CALLDATACOPY PUSH1 0x80 DUP7 DUP5 ADD ADD MSTORE PUSH1 0x40 DUP3 ADD MSTORE PUSH1 0x80 DUP2 CALLER SWAP6 PUSH1 0x1F DUP1 NOT SWAP2 ADD AND DUP2 ADD SUB ADD SWAP1 LOG3 PUSH1 0x40 MLOAD SWAP1 DUP2 MSTORE RETURN JUMPDEST PUSH4 0x4E487B71 PUSH1 0xE0 SHL DUP6 MSTORE PUSH1 0x41 PUSH1 0x4 MSTORE PUSH1 0x24 DUP6 REVERT JUMPDEST ADD MLOAD SWAP1 POP DUP13 DUP1 PUSH2 0x9E8 JUMP JUMPDEST DUP4 DUP11 MSTORE DUP2 DUP11 KECCAK256 SWAP2 SWAP1 PUSH1 0x1F NOT DUP5 AND DUP12 JUMPDEST DUP2 DUP2 LT PUSH2 0xCAD JUMPI POP SWAP3 PUSH1 0x1 SWAP3 DUP6 SWAP3 PUSH1 0xD SWAP9 SWAP7 PUSH2 0x1A0 SWAP9 SWAP7 LT PUSH2 0xC94 JUMPI JUMPDEST POP POP POP DUP2 SHL ADD SWAP1 SSTORE PUSH2 0xB50 JUMP JUMPDEST ADD MLOAD PUSH1 0x0 NOT PUSH1 0xF8 DUP5 PUSH1 0x3 SHL AND SHR NOT AND SWAP1 SSTORE DUP12 DUP1 DUP1 PUSH2 0xC87 JUMP JUMPDEST SWAP3 SWAP4 PUSH1 0x20 PUSH1 0x1 DUP2 SWAP3 DUP8 DUP7 ADD MLOAD DUP2 SSTORE ADD SWAP6 ADD SWAP4 ADD PUSH2 0xC6A JUMP JUMPDEST PUSH4 0x4E487B71 PUSH1 0xE0 SHL DUP10 MSTORE PUSH1 0x41 PUSH1 0x4 MSTORE PUSH1 0x24 DUP10 REVERT JUMPDEST PUSH4 0x4E487B71 PUSH1 0xE0 SHL DUP9 MSTORE PUSH1 0x21 PUSH1 0x4 MSTORE PUSH1 0x24 DUP9 REVERT JUMPDEST ADD MLOAD SWAP1 POP DUP10 DUP1 PUSH2 0x9E8 JUMP JUMPDEST PUSH1 0x3 DUP6 ADD DUP10 MSTORE DUP2 DUP10 KECCAK256 SWAP2 SWAP1 PUSH1 0x1F NOT DUP5 AND DUP11 JUMPDEST DUP2 DUP2 LT PUSH2 0xD49 JUMPI POP SWAP1 DUP5 PUSH1 0x1 SWAP6 SWAP5 SWAP4 SWAP3 LT PUSH2 0xD30 JUMPI JUMPDEST POP POP POP DUP2 SHL ADD PUSH1 0x3 DUP4 ADD SSTORE PUSH2 0xA69 JUMP JUMPDEST ADD MLOAD PUSH1 0x0 NOT PUSH1 0xF8 DUP5 PUSH1 0x3 SHL AND SHR NOT AND SWAP1 SSTORE DUP9 DUP1 DUP1 PUSH2 0xD20 JUMP JUMPDEST SWAP3 SWAP4 PUSH1 0x20 PUSH1 0x1 DUP2 SWAP3 DUP8 DUP7 ADD MLOAD DUP2 SSTORE ADD SWAP6 ADD SWAP4 ADD PUSH2 0xD0A JUMP JUMPDEST PUSH4 0x4E487B71 PUSH1 0xE0 SHL DUP9 MSTORE PUSH1 0x41 PUSH1 0x4 MSTORE PUSH1 0x24 DUP9 REVERT JUMPDEST PUSH1 0x2 DUP6 ADD DUP10 MSTORE DUP2 DUP10 KECCAK256 SWAP2 SWAP1 PUSH1 0x1F NOT DUP5 AND DUP11 JUMPDEST DUP2 DUP2 LT PUSH2 0xDC6 JUMPI POP SWAP1 DUP5 PUSH1 0x1 SWAP6 SWAP5 SWAP4 SWAP3 LT PUSH2 0xDAD JUMPI JUMPDEST POP POP POP DUP2 SHL ADD PUSH1 0x2 DUP4 ADD SSTORE PUSH2 0xA03 JUMP JUMPDEST ADD MLOAD PUSH1 0x0 NOT PUSH1 0xF8 DUP5 PUSH1 0x3 SHL AND SHR NOT AND SWAP1 SSTORE DUP9 DUP1 DUP1 PUSH2 0xD9D JUMP JUMPDEST SWAP3 SWAP4 PUSH1 0x20 PUSH1 0x1 DUP2 SWAP3 DUP8 DUP7 ADD MLOAD DUP2 SSTORE ADD SWAP6 ADD SWAP4 ADD PUSH2 0xD87 JUMP JUMPDEST PUSH4 0x4E487B71 PUSH1 0xE0 SHL PUSH1 0x0 MSTORE PUSH1 0x11 PUSH1 0x4 MSTORE PUSH1 0x24 PUSH1 0x0 REVERT JUMPDEST PUSH4 0xCABEB655 PUSH1 0xE0 SHL PUSH1 0x0 MSTORE PUSH1 0x4 PUSH1 0x0 REVERT JUMPDEST CALLVALUE PUSH2 0x1C6 JUMPI PUSH1 0x20 CALLDATASIZE PUSH1 0x3 NOT ADD SLT PUSH2 0x1C6 JUMPI PUSH1 0x4 CALLDATALOAD PUSH1 0x0 MSTORE PUSH1 0x3 PUSH1 0x20 MSTORE PUSH2 0xE2E PUSH1 0x40 PUSH1 0x0 KECCAK256 PUSH2 0x1764 JUMP JUMPDEST PUSH2 0x140 DUP2 ADD MLOAD SWAP1 PUSH1 0x5 DUP3 LT ISZERO PUSH2 0x42C JUMPI PUSH1 0x1 PUSH1 0x20 SWAP3 EQ SWAP1 DUP2 PUSH2 0xE56 JUMPI JUMPDEST POP PUSH1 0x40 MLOAD SWAP1 ISZERO ISZERO DUP2 MSTORE RETURN JUMPDEST PUSH2 0x1A0 SWAP2 POP ADD MLOAD TIMESTAMP LT ISZERO DUP3 PUSH2 0xE4B JUMP JUMPDEST CALLVALUE PUSH2 0x1C6 JUMPI PUSH1 0x0 CALLDATASIZE PUSH1 0x3 NOT ADD SLT PUSH2 0x1C6 JUMPI PUSH2 0xE7F PUSH2 0x1CB7 JUMP JUMPDEST PUSH1 0x0 DUP1 SLOAD PUSH1 0x1 PUSH1 0x1 PUSH1 0xA0 SHL SUB NOT DUP2 AND DUP3 SSTORE PUSH1 0x1 PUSH1 0x1 PUSH1 0xA0 SHL SUB AND PUSH32 0x8BE0079C531659141344CD1FD0A4F28419497F9722A3DAAFE3B4186F6B6457E0 DUP3 DUP1 LOG3 STOP JUMPDEST CALLVALUE PUSH2 0x1C6 JUMPI PUSH1 0x0 CALLDATASIZE PUSH1 0x3 NOT ADD SLT PUSH2 0x1C6 JUMPI PUSH1 0x20 PUSH1 0x40 MLOAD PUSH2 0xBB8 DUP2 MSTORE RETURN JUMPDEST CALLVALUE PUSH2 0x1C6 JUMPI PUSH1 0x20 CALLDATASIZE PUSH1 0x3 NOT ADD SLT PUSH2 0x1C6 JUMPI PUSH1 0x4 CALLDATALOAD PUSH1 0x0 MSTORE PUSH1 0x3 PUSH1 0x20 MSTORE PUSH2 0xF05 PUSH1 0x40 PUSH1 0x0 KECCAK256 PUSH2 0x1764 JUMP JUMPDEST PUSH2 0x120 DUP2 ADD SWAP1 PUSH3 0x493E0 DUP3 MLOAD LT ISZERO PUSH1 0x0 SWAP1 PUSH1 0xE0 DUP4 ADD PUSH2 0xF2D PUSH2 0x100 DUP3 MLOAD SWAP6 ADD SWAP5 DUP6 MLOAD SWAP1 PUSH2 0x189A JUMP JUMPDEST PUSH2 0xF70 JUMPI JUMPDEST MLOAD SWAP3 MLOAD SWAP4 MLOAD PUSH1 0xC0 SWAP5 DUP4 PUSH2 0xF67 JUMPI JUMPDEST PUSH1 0x40 MLOAD SWAP5 DUP6 MSTORE PUSH1 0x20 DUP6 ADD MSTORE PUSH1 0x40 DUP5 ADD MSTORE PUSH3 0x493E0 PUSH1 0x60 DUP5 ADD MSTORE PUSH1 0x80 DUP4 ADD MSTORE ISZERO ISZERO PUSH1 0xA0 DUP3 ADD MSTORE RETURN JUMPDEST SWAP3 POP DUP2 SWAP3 PUSH2 0xF40 JUMP JUMPDEST DUP1 SWAP3 POP MLOAD SWAP4 PUSH2 0x2710 DUP6 MUL SWAP5 DUP1 DUP7 DIV PUSH2 0x2710 EQ SWAP1 ISZERO OR ISZERO PUSH2 0xDDE JUMPI PUSH2 0x1770 PUSH2 0xFA6 PUSH1 0xC0 SWAP7 PUSH2 0xFA0 DUP7 MLOAD DUP9 MLOAD SWAP1 PUSH2 0x189A JUMP JUMPDEST SWAP1 PUSH2 0x187A JUMP JUMPDEST LT ISZERO SWAP3 SWAP1 SWAP5 POP PUSH2 0xF32 JUMP JUMPDEST CALLVALUE PUSH2 0x1C6 JUMPI PUSH1 0x20 CALLDATASIZE PUSH1 0x3 NOT ADD SLT PUSH2 0x1C6 JUMPI PUSH1 0x4 CALLDATALOAD DUP1 PUSH1 0x0 MSTORE PUSH1 0x3 PUSH1 0x20 MSTORE PUSH1 0x40 PUSH1 0x0 KECCAK256 PUSH1 0xFF PUSH1 0xA DUP3 ADD SLOAD AND PUSH1 0x5 DUP2 LT ISZERO PUSH2 0x42C JUMPI PUSH2 0x1037 JUMPI PUSH1 0x6 ADD SLOAD TIMESTAMP GT ISZERO PUSH2 0xFFC JUMPI PUSH2 0x532 SWAP1 PUSH2 0x1BD0 JUMP JUMPDEST PUSH1 0x40 MLOAD PUSH3 0x461BCD PUSH1 0xE5 SHL DUP2 MSTORE PUSH1 0x20 PUSH1 0x4 DUP3 ADD MSTORE PUSH1 0x13 PUSH1 0x24 DUP3 ADD MSTORE PUSH19 0x566F74696E67207374696C6C20616374697665 PUSH1 0x68 SHL PUSH1 0x44 DUP3 ADD MSTORE PUSH1 0x64 SWAP1 REVERT JUMPDEST PUSH4 0x7BECC13F PUSH1 0xE0 SHL PUSH1 0x0 MSTORE PUSH1 0x4 PUSH1 0x0 REVERT JUMPDEST CALLVALUE PUSH2 0x1C6 JUMPI PUSH1 0x0 CALLDATASIZE PUSH1 0x3 NOT ADD SLT PUSH2 0x1C6 JUMPI PUSH1 0x40 MLOAD DUP1 PUSH1 0x20 PUSH1 0x7 SLOAD SWAP3 DUP4 DUP2 MSTORE ADD DUP1 SWAP3 PUSH1 0x7 PUSH1 0x0 MSTORE PUSH32 0xA66CC928B5EDB82AF9BD49922954155AB7B0942694BEA4CE44661D9A8736C688 SWAP1 PUSH1 0x0 JUMPDEST DUP2 DUP2 LT PUSH2 0x10EC JUMPI POP POP POP DUP2 PUSH2 0x10A9 SWAP2 SUB DUP3 PUSH2 0x1641 JUMP JUMPDEST PUSH1 0x40 MLOAD SWAP2 DUP3 SWAP2 PUSH1 0x20 DUP4 ADD SWAP1 PUSH1 0x20 DUP5 MSTORE MLOAD DUP1 SWAP2 MSTORE PUSH1 0x40 DUP4 ADD SWAP2 SWAP1 PUSH1 0x0 JUMPDEST DUP2 DUP2 LT PUSH2 0x10D3 JUMPI POP POP POP SUB SWAP1 RETURN JUMPDEST DUP3 MLOAD DUP5 MSTORE DUP6 SWAP5 POP PUSH1 0x20 SWAP4 DUP5 ADD SWAP4 SWAP1 SWAP3 ADD SWAP2 PUSH1 0x1 ADD PUSH2 0x10C5 JUMP JUMPDEST DUP3 SLOAD DUP5 MSTORE PUSH1 0x20 SWAP1 SWAP4 ADD SWAP3 PUSH1 0x1 SWAP3 DUP4 ADD SWAP3 ADD PUSH2 0x1093 JUMP JUMPDEST CALLVALUE PUSH2 0x1C6 JUMPI PUSH1 0x0 CALLDATASIZE PUSH1 0x3 NOT ADD SLT PUSH2 0x1C6 JUMPI PUSH1 0x20 PUSH1 0x40 MLOAD PUSH2 0x1770 DUP2 MSTORE RETURN JUMPDEST CALLVALUE PUSH2 0x1C6 JUMPI PUSH1 0x0 CALLDATASIZE PUSH1 0x3 NOT ADD SLT PUSH2 0x1C6 JUMPI PUSH1 0x20 PUSH1 0x40 MLOAD PUSH3 0x2A300 DUP2 MSTORE RETURN JUMPDEST CALLVALUE PUSH2 0x1C6 JUMPI PUSH1 0x0 CALLDATASIZE PUSH1 0x3 NOT ADD SLT PUSH2 0x1C6 JUMPI PUSH1 0x20 PUSH1 0x40 MLOAD PUSH3 0xF4240 DUP2 MSTORE RETURN JUMPDEST CALLVALUE PUSH2 0x1C6 JUMPI PUSH1 0x20 CALLDATASIZE PUSH1 0x3 NOT ADD SLT PUSH2 0x1C6 JUMPI PUSH1 0x4 CALLDATALOAD DUP1 PUSH1 0x0 MSTORE PUSH1 0x3 PUSH1 0x20 MSTORE PUSH1 0x40 PUSH1 0x0 KECCAK256 PUSH1 0xA DUP2 ADD PUSH1 0xFF DUP2 SLOAD AND PUSH1 0x5 DUP2 LT ISZERO PUSH2 0x42C JUMPI PUSH1 0x1 SUB PUSH2 0x13CA JUMPI PUSH1 0xD DUP3 ADD SLOAD TIMESTAMP LT PUSH2 0x13B9 JUMPI DUP1 SLOAD PUSH1 0xFF NOT AND PUSH1 0x3 OR SWAP1 SSTORE PUSH2 0x11B5 DUP3 PUSH2 0x1AE7 JUMP JUMPDEST PUSH1 0x60 PUSH1 0xB DUP3 ADD SWAP2 DUP3 SLOAD SWAP2 PUSH2 0x11C8 DUP4 PUSH2 0x1535 JUMP JUMPDEST ISZERO ISZERO DUP1 PUSH2 0x13A3 JUMPI JUMPDEST ISZERO PUSH2 0x1363 JUMPI POP PUSH1 0xC ADD SLOAD PUSH1 0x1 PUSH1 0x1 PUSH1 0xA0 SHL SUB AND PUSH1 0x0 DUP2 DUP2 MSTORE PUSH1 0x6 PUSH1 0x20 MSTORE PUSH1 0x40 SWAP1 KECCAK256 SLOAD SWAP1 SWAP3 SWAP1 PUSH1 0xFF AND ISZERO PUSH2 0x1352 JUMPI PUSH1 0x40 MLOAD SWAP2 PUSH1 0x0 SWAP2 PUSH2 0x120D DUP3 PUSH2 0x1535 JUMP JUMPDEST SWAP2 PUSH1 0x1 DUP2 AND SWAP1 DUP2 ISZERO PUSH2 0x133A JUMPI POP PUSH1 0x1 EQ PUSH2 0x1304 JUMPI JUMPDEST POP POP SWAP2 DUP2 PUSH1 0x0 DUP1 SWAP5 SWAP4 DUP2 SWAP5 SUB SWAP3 GAS CALL SWAP1 RETURNDATASIZE ISZERO PUSH2 0x12D8 JUMPI DUP1 PUSH32 0xAF8F9D0E884D3306A083E846741A0BC4D75908E2B0EC63B558219652AE4C1B90 PUSH2 0x129F RETURNDATASIZE PUSH2 0x1267 DUP2 PUSH2 0x185E JUMP JUMPDEST SWAP1 PUSH2 0x1275 PUSH1 0x40 MLOAD SWAP3 DUP4 PUSH2 0x1641 JUMP JUMPDEST DUP2 MSTORE RETURNDATASIZE PUSH1 0x0 PUSH1 0x20 DUP4 ADD RETURNDATACOPY JUMPDEST SWAP5 JUMPDEST PUSH1 0x40 MLOAD SWAP2 DUP3 SWAP2 ISZERO SWAP7 DUP8 ISZERO DUP4 MSTORE PUSH1 0x40 PUSH1 0x20 DUP5 ADD MSTORE PUSH1 0x40 DUP4 ADD SWAP1 PUSH2 0x1670 JUMP JUMPDEST SUB SWAP1 LOG2 PUSH1 0x0 DUP1 MLOAD PUSH1 0x20 PUSH2 0x1CE1 DUP4 CODECOPY DUP2 MLOAD SWAP2 MSTORE PUSH1 0x40 DUP1 MLOAD PUSH1 0x1 DUP2 MSTORE PUSH1 0x3 PUSH1 0x20 DUP3 ADD MSTORE LOG2 PUSH2 0x12C7 JUMPI STOP JUMPDEST PUSH4 0x2B3F6D11 PUSH1 0xE2 SHL PUSH1 0x0 MSTORE PUSH1 0x4 PUSH1 0x0 REVERT JUMPDEST DUP1 PUSH32 0xAF8F9D0E884D3306A083E846741A0BC4D75908E2B0EC63B558219652AE4C1B90 PUSH2 0x129F PUSH1 0x60 PUSH2 0x1280 JUMP JUMPDEST SWAP1 SWAP2 POP PUSH1 0x0 MSTORE PUSH1 0x20 PUSH1 0x0 KECCAK256 PUSH1 0x0 SWAP1 JUMPDEST DUP3 DUP3 LT PUSH2 0x1326 JUMPI POP POP DUP2 ADD DUP2 PUSH1 0x0 PUSH2 0x1222 JUMP JUMPDEST PUSH1 0x1 DUP2 PUSH1 0x20 SWAP3 SLOAD DUP5 DUP8 ADD MSTORE ADD SWAP2 ADD SWAP1 PUSH2 0x1313 JUMP JUMPDEST PUSH1 0xFF NOT AND DUP6 MSTORE POP POP DUP1 ISZERO ISZERO MUL DUP3 ADD SWAP1 POP DUP2 PUSH1 0x0 PUSH2 0x1222 JUMP JUMPDEST PUSH4 0x72312D79 PUSH1 0xE0 SHL PUSH1 0x0 MSTORE PUSH1 0x4 PUSH1 0x0 REVERT JUMPDEST SWAP4 SWAP3 POP DUP3 SWAP2 POP PUSH2 0x129F PUSH2 0x139E PUSH2 0x1399 PUSH32 0xAF8F9D0E884D3306A083E846741A0BC4D75908E2B0EC63B558219652AE4C1B90 SWAP4 PUSH2 0x1764 JUMP JUMPDEST PUSH2 0x1B82 JUMP JUMPDEST PUSH2 0x1282 JUMP JUMPDEST POP PUSH1 0xC DUP3 ADD SLOAD PUSH1 0x1 PUSH1 0x1 PUSH1 0xA0 SHL SUB AND ISZERO ISZERO PUSH2 0x11D0 JUMP JUMPDEST PUSH4 0x1ACBF5F7 PUSH1 0xE3 SHL PUSH1 0x0 MSTORE PUSH1 0x4 PUSH1 0x0 REVERT JUMPDEST PUSH4 0xC8C93BA3 PUSH1 0xE0 SHL PUSH1 0x0 MSTORE PUSH1 0x4 PUSH1 0x0 REVERT JUMPDEST CALLVALUE PUSH2 0x1C6 JUMPI PUSH1 0x20 CALLDATASIZE PUSH1 0x3 NOT ADD SLT PUSH2 0x1C6 JUMPI PUSH1 0x4 CALLDATALOAD PUSH1 0x0 MSTORE PUSH1 0x3 PUSH1 0x20 MSTORE PUSH1 0x40 PUSH1 0x0 KECCAK256 DUP1 SLOAD SWAP1 PUSH1 0x1 DUP2 ADD SLOAD PUSH1 0xFF AND SWAP3 DUP1 DUP1 PUSH1 0x2 DUP5 ADD SWAP1 PUSH2 0x1418 SWAP2 PUSH2 0x156F JUMP JUMPDEST SUB PUSH2 0x1423 SWAP1 DUP3 PUSH2 0x1641 JUMP JUMPDEST PUSH1 0x40 MLOAD DUP1 PUSH2 0x1434 DUP2 PUSH1 0x3 DUP7 ADD PUSH2 0x156F JUMP JUMPDEST SUB PUSH2 0x143F SWAP1 DUP3 PUSH2 0x1641 JUMP JUMPDEST PUSH1 0x1 PUSH1 0xA0 SHL PUSH1 0x1 SWAP1 SUB PUSH1 0x4 DUP5 ADD SLOAD AND PUSH1 0x5 DUP5 ADD SLOAD PUSH1 0x6 DUP6 ADD SLOAD PUSH1 0x7 DUP7 ADD SLOAD PUSH1 0x8 DUP8 ADD SLOAD SWAP1 PUSH1 0x9 DUP9 ADD SLOAD SWAP3 PUSH1 0xA DUP10 ADD SLOAD PUSH1 0xFF AND SWAP5 PUSH1 0x40 MLOAD SWAP8 DUP9 DUP1 PUSH1 0xB DUP14 ADD SWAP1 PUSH2 0x1486 SWAP2 PUSH2 0x156F JUMP JUMPDEST SUB PUSH2 0x1491 SWAP1 DUP11 PUSH2 0x1641 JUMP JUMPDEST PUSH1 0x1 PUSH1 0xA0 SHL PUSH1 0x1 SWAP1 SUB PUSH1 0xC DUP13 ADD SLOAD AND SWAP11 PUSH1 0xD ADD SLOAD SWAP10 PUSH1 0x40 MLOAD SWAP14 DUP15 DUP1 SWAP15 DUP2 MSTORE PUSH1 0x20 ADD PUSH2 0x14BB SWAP2 PUSH2 0x1663 JUMP JUMPDEST PUSH1 0x40 DUP14 ADD PUSH2 0x1C0 SWAP1 MSTORE PUSH2 0x1C0 DUP14 ADD PUSH2 0x14D2 SWAP2 PUSH2 0x1670 JUMP JUMPDEST DUP13 DUP2 SUB PUSH1 0x60 DUP15 ADD MSTORE PUSH2 0x14E3 SWAP2 PUSH2 0x1670 JUMP JUMPDEST SWAP7 PUSH1 0x80 DUP13 ADD MSTORE PUSH1 0xA0 DUP12 ADD MSTORE PUSH1 0xC0 DUP11 ADD MSTORE PUSH1 0xE0 DUP10 ADD MSTORE PUSH2 0x100 DUP9 ADD MSTORE PUSH2 0x120 DUP8 ADD MSTORE PUSH2 0x140 DUP7 ADD PUSH2 0x1512 SWAP2 PUSH2 0x16B1 JUMP JUMPDEST DUP5 DUP2 SUB PUSH2 0x160 DUP7 ADD MSTORE PUSH2 0x1524 SWAP2 PUSH2 0x1670 JUMP JUMPDEST SWAP2 PUSH2 0x180 DUP5 ADD MSTORE PUSH2 0x1A0 DUP4 ADD MSTORE SUB SWAP1 RETURN JUMPDEST SWAP1 PUSH1 0x1 DUP3 DUP2 SHR SWAP3 AND DUP1 ISZERO PUSH2 0x1565 JUMPI JUMPDEST PUSH1 0x20 DUP4 LT EQ PUSH2 0x154F JUMPI JUMP JUMPDEST PUSH4 0x4E487B71 PUSH1 0xE0 SHL PUSH1 0x0 MSTORE PUSH1 0x22 PUSH1 0x4 MSTORE PUSH1 0x24 PUSH1 0x0 REVERT JUMPDEST SWAP2 PUSH1 0x7F AND SWAP2 PUSH2 0x1544 JUMP JUMPDEST PUSH1 0x0 SWAP3 SWAP2 DUP2 SLOAD SWAP2 PUSH2 0x157F DUP4 PUSH2 0x1535 JUMP JUMPDEST DUP1 DUP4 MSTORE SWAP3 PUSH1 0x1 DUP2 AND SWAP1 DUP2 ISZERO PUSH2 0x15D5 JUMPI POP PUSH1 0x1 EQ PUSH2 0x159B JUMPI POP POP POP JUMP JUMPDEST PUSH1 0x0 SWAP1 DUP2 MSTORE PUSH1 0x20 DUP2 KECCAK256 SWAP4 SWAP5 POP SWAP2 SWAP3 JUMPDEST DUP4 DUP4 LT PUSH2 0x15BB JUMPI POP PUSH1 0x20 SWAP3 POP ADD ADD SWAP1 JUMP JUMPDEST PUSH1 0x1 DUP2 PUSH1 0x20 SWAP3 SWAP5 SWAP4 SWAP5 SLOAD DUP4 DUP6 DUP8 ADD ADD MSTORE ADD SWAP2 ADD SWAP2 SWAP1 PUSH2 0x15AA JUMP JUMPDEST SWAP2 POP POP PUSH1 0x20 SWAP4 SWAP5 POP PUSH1 0xFF SWAP3 SWAP2 SWAP3 NOT AND DUP4 DUP4 ADD MSTORE ISZERO ISZERO PUSH1 0x5 SHL ADD ADD SWAP1 JUMP JUMPDEST PUSH2 0x1C0 DUP2 ADD SWAP1 DUP2 LT PUSH8 0xFFFFFFFFFFFFFFFF DUP3 GT OR PUSH2 0x160F JUMPI PUSH1 0x40 MSTORE JUMP JUMPDEST PUSH4 0x4E487B71 PUSH1 0xE0 SHL PUSH1 0x0 MSTORE PUSH1 0x41 PUSH1 0x4 MSTORE PUSH1 0x24 PUSH1 0x0 REVERT JUMPDEST PUSH1 0x80 DUP2 ADD SWAP1 DUP2 LT PUSH8 0xFFFFFFFFFFFFFFFF DUP3 GT OR PUSH2 0x160F JUMPI PUSH1 0x40 MSTORE JUMP JUMPDEST SWAP1 PUSH1 0x1F DUP1 NOT SWAP2 ADD AND DUP2 ADD SWAP1 DUP2 LT PUSH8 0xFFFFFFFFFFFFFFFF DUP3 GT OR PUSH2 0x160F JUMPI PUSH1 0x40 MSTORE JUMP JUMPDEST SWAP1 PUSH1 0x4 DUP3 LT ISZERO PUSH2 0x42C JUMPI MSTORE JUMP JUMPDEST SWAP2 SWAP1 DUP3 MLOAD SWAP3 DUP4 DUP3 MSTORE PUSH1 0x0 JUMPDEST DUP5 DUP2 LT PUSH2 0x169C JUMPI POP POP DUP3 PUSH1 0x0 PUSH1 0x20 DUP1 SWAP5 SWAP6 DUP5 ADD ADD MSTORE PUSH1 0x1F DUP1 NOT SWAP2 ADD AND ADD ADD SWAP1 JUMP JUMPDEST DUP1 PUSH1 0x20 DUP1 SWAP3 DUP5 ADD ADD MLOAD DUP3 DUP3 DUP7 ADD ADD MSTORE ADD PUSH2 0x167B JUMP JUMPDEST SWAP1 PUSH1 0x5 DUP3 LT ISZERO PUSH2 0x42C JUMPI MSTORE JUMP JUMPDEST SWAP2 DUP2 PUSH1 0x1F DUP5 ADD SLT ISZERO PUSH2 0x1C6 JUMPI DUP3 CALLDATALOAD SWAP2 PUSH8 0xFFFFFFFFFFFFFFFF DUP4 GT PUSH2 0x1C6 JUMPI PUSH1 0x20 DUP4 DUP2 DUP7 ADD SWAP6 ADD ADD GT PUSH2 0x1C6 JUMPI JUMP JUMPDEST PUSH1 0x24 CALLDATALOAD SWAP1 PUSH1 0x1 PUSH1 0x1 PUSH1 0xA0 SHL SUB DUP3 AND DUP3 SUB PUSH2 0x1C6 JUMPI JUMP JUMPDEST PUSH1 0x4 CALLDATALOAD SWAP1 PUSH1 0x1 PUSH1 0x1 PUSH1 0xA0 SHL SUB DUP3 AND DUP3 SUB PUSH2 0x1C6 JUMPI JUMP JUMPDEST PUSH1 0x24 CALLDATALOAD SWAP1 DUP2 ISZERO ISZERO DUP3 SUB PUSH2 0x1C6 JUMPI JUMP JUMPDEST PUSH1 0x7 SLOAD DUP2 LT ISZERO PUSH2 0x1742 JUMPI PUSH1 0x7 PUSH1 0x0 MSTORE PUSH1 0x20 PUSH1 0x0 KECCAK256 ADD SWAP1 PUSH1 0x0 SWAP1 JUMP JUMPDEST PUSH4 0x4E487B71 PUSH1 0xE0 SHL PUSH1 0x0 MSTORE PUSH1 0x32 PUSH1 0x4 MSTORE PUSH1 0x24 PUSH1 0x0 REVERT JUMPDEST PUSH1 0x4 DUP3 LT ISZERO PUSH2 0x42C JUMPI MSTORE JUMP JUMPDEST SWAP1 PUSH1 0x40 MLOAD PUSH2 0x1771 DUP2 PUSH2 0x15F2 JUMP JUMPDEST DUP1 SWAP3 DUP1 SLOAD DUP3 MSTORE PUSH2 0x178B PUSH1 0xFF PUSH1 0x1 DUP4 ADD SLOAD AND PUSH1 0x20 DUP5 ADD PUSH2 0x1758 JUMP JUMPDEST PUSH1 0x40 MLOAD PUSH2 0x17A6 DUP2 PUSH2 0x179F DUP2 PUSH1 0x2 DUP7 ADD PUSH2 0x156F JUMP JUMPDEST SUB DUP3 PUSH2 0x1641 JUMP JUMPDEST PUSH1 0x40 DUP4 ADD MSTORE PUSH1 0x40 MLOAD PUSH2 0x17BF DUP2 PUSH2 0x179F DUP2 PUSH1 0x3 DUP7 ADD PUSH2 0x156F JUMP JUMPDEST PUSH1 0x60 DUP4 ADD MSTORE PUSH1 0x4 DUP2 ADD SLOAD PUSH1 0x1 PUSH1 0x1 PUSH1 0xA0 SHL SUB AND PUSH1 0x80 DUP4 ADD MSTORE PUSH1 0x5 DUP1 DUP3 ADD SLOAD PUSH1 0xA0 DUP5 ADD MSTORE PUSH1 0x6 DUP3 ADD SLOAD PUSH1 0xC0 DUP5 ADD MSTORE PUSH1 0x7 DUP3 ADD SLOAD PUSH1 0xE0 DUP5 ADD MSTORE PUSH1 0x8 DUP3 ADD SLOAD PUSH2 0x100 DUP5 ADD MSTORE PUSH1 0x9 DUP3 ADD SLOAD PUSH2 0x120 DUP5 ADD MSTORE PUSH1 0xA DUP3 ADD SLOAD PUSH1 0xFF AND SWAP1 DUP2 LT ISZERO PUSH2 0x42C JUMPI PUSH2 0x1A0 SWAP2 PUSH1 0xD SWAP2 PUSH2 0x140 DUP6 ADD MSTORE PUSH1 0x40 MLOAD PUSH2 0x183D DUP2 PUSH2 0x179F DUP2 PUSH1 0xB DUP7 ADD PUSH2 0x156F JUMP JUMPDEST PUSH2 0x160 DUP6 ADD MSTORE PUSH1 0xC DUP2 ADD SLOAD PUSH1 0x1 PUSH1 0x1 PUSH1 0xA0 SHL SUB AND PUSH2 0x180 DUP6 ADD MSTORE ADD SLOAD SWAP2 ADD MSTORE JUMP JUMPDEST PUSH8 0xFFFFFFFFFFFFFFFF DUP2 GT PUSH2 0x160F JUMPI PUSH1 0x1F ADD PUSH1 0x1F NOT AND PUSH1 0x20 ADD SWAP1 JUMP JUMPDEST DUP2 ISZERO PUSH2 0x1884 JUMPI DIV SWAP1 JUMP JUMPDEST PUSH4 0x4E487B71 PUSH1 0xE0 SHL PUSH1 0x0 MSTORE PUSH1 0x12 PUSH1 0x4 MSTORE PUSH1 0x24 PUSH1 0x0 REVERT JUMPDEST SWAP2 SWAP1 DUP3 ADD DUP1 SWAP3 GT PUSH2 0xDDE JUMPI JUMP JUMPDEST SWAP3 SWAP2 SWAP3 PUSH2 0x18B3 DUP3 PUSH2 0x185E JUMP JUMPDEST SWAP2 PUSH2 0x18C1 PUSH1 0x40 MLOAD SWAP4 DUP5 PUSH2 0x1641 JUMP JUMPDEST DUP3 SWAP5 DUP2 DUP5 MSTORE DUP2 DUP4 ADD GT PUSH2 0x1C6 JUMPI DUP3 DUP2 PUSH1 0x20 SWAP4 DUP5 PUSH1 0x0 SWAP7 ADD CALLDATACOPY ADD ADD MSTORE JUMP JUMPDEST PUSH1 0x1F DUP3 GT PUSH2 0x18EB JUMPI POP POP POP JUMP JUMPDEST PUSH1 0x0 MSTORE PUSH1 0x20 PUSH1 0x0 KECCAK256 SWAP1 PUSH1 0x20 PUSH1 0x1F DUP5 ADD PUSH1 0x5 SHR DUP4 ADD SWAP4 LT PUSH2 0x1926 JUMPI JUMPDEST PUSH1 0x1F ADD PUSH1 0x5 SHR ADD SWAP1 JUMPDEST DUP2 DUP2 LT PUSH2 0x191A JUMPI POP POP JUMP JUMPDEST PUSH1 0x0 DUP2 SSTORE PUSH1 0x1 ADD PUSH2 0x190F JUMP JUMPDEST SWAP1 SWAP2 POP DUP2 SWAP1 PUSH2 0x1906 JUMP JUMPDEST DUP1 PUSH1 0x0 MSTORE PUSH1 0x3 PUSH1 0x20 MSTORE PUSH1 0x40 PUSH1 0x0 KECCAK256 PUSH1 0xFF PUSH1 0xA DUP3 ADD SLOAD AND PUSH1 0x5 DUP2 LT ISZERO PUSH2 0x42C JUMPI PUSH2 0x1037 JUMPI PUSH1 0x0 DUP3 DUP2 MSTORE PUSH1 0x4 PUSH1 0x20 SWAP1 DUP2 MSTORE PUSH1 0x40 DUP1 DUP4 KECCAK256 CALLER DUP5 MSTORE SWAP1 SWAP2 MSTORE SWAP1 KECCAK256 PUSH1 0x1 ADD SLOAD PUSH1 0xFF AND PUSH2 0x1AD6 JUMPI PUSH1 0x6 DUP2 ADD SLOAD TIMESTAMP GT PUSH2 0x1AC9 JUMPI CALLER PUSH1 0x0 MSTORE PUSH1 0x5 PUSH1 0x20 MSTORE PUSH1 0x40 PUSH1 0x0 KECCAK256 SLOAD SWAP1 DUP2 ISZERO PUSH2 0x1A92 JUMPI PUSH1 0x9 SWAP1 PUSH1 0x40 MLOAD SWAP5 PUSH2 0x19A8 DUP7 PUSH2 0x1625 JUMP JUMPDEST DUP4 DUP7 MSTORE PUSH1 0x20 DUP7 ADD SWAP6 PUSH1 0x1 DUP8 MSTORE PUSH1 0x2 PUSH1 0x40 DUP3 ADD DUP4 ISZERO ISZERO SWAP9 DUP10 DUP3 MSTORE PUSH1 0x60 DUP5 ADD SWAP2 TIMESTAMP DUP4 MSTORE DUP10 PUSH1 0x0 MSTORE PUSH1 0x4 PUSH1 0x20 MSTORE PUSH1 0x40 DUP1 PUSH1 0x0 KECCAK256 PUSH1 0x0 SWAP1 PUSH1 0x1 DUP1 PUSH1 0xA0 SHL SUB CALLER AND DUP3 MSTORE PUSH1 0x20 MSTORE KECCAK256 SWAP5 MLOAD DUP6 SSTORE PUSH2 0x1A0B PUSH1 0x1 DUP7 ADD SWAP3 MLOAD ISZERO ISZERO DUP4 SWAP1 PUSH1 0xFF DUP1 NOT DUP4 SLOAD AND SWAP2 ISZERO ISZERO AND OR SWAP1 SSTORE JUMP JUMPDEST MLOAD DUP2 SLOAD PUSH2 0xFF00 NOT AND SWAP1 ISZERO ISZERO PUSH1 0x8 SHL PUSH2 0xFF00 AND OR SWAP1 SSTORE MLOAD SWAP2 ADD SSTORE ISZERO PUSH2 0x1A7C JUMPI PUSH1 0x7 DUP2 ADD PUSH2 0x1A38 DUP5 DUP3 SLOAD PUSH2 0x189A JUMP JUMPDEST SWAP1 SSTORE JUMPDEST ADD PUSH2 0x1A47 DUP3 DUP3 SLOAD PUSH2 0x189A JUMP JUMPDEST SWAP1 SSTORE PUSH1 0x40 MLOAD SWAP3 DUP4 MSTORE PUSH1 0x20 DUP4 ADD MSTORE PUSH32 0xCBDF6214089CBA887ECBF35A0B6A734589959C9763342C756BB2A80CA2BC9F6E PUSH1 0x40 CALLER SWAP4 LOG3 JUMP JUMPDEST PUSH1 0x8 DUP2 ADD PUSH2 0x1A8B DUP5 DUP3 SLOAD PUSH2 0x189A JUMP JUMPDEST SWAP1 SSTORE PUSH2 0x1A3B JUMP JUMPDEST PUSH1 0x40 MLOAD PUSH3 0x461BCD PUSH1 0xE5 SHL DUP2 MSTORE PUSH1 0x20 PUSH1 0x4 DUP3 ADD MSTORE PUSH1 0xF PUSH1 0x24 DUP3 ADD MSTORE PUSH15 0x2737903B37BA34B733903837BBB2B9 PUSH1 0x89 SHL PUSH1 0x44 DUP3 ADD MSTORE PUSH1 0x64 SWAP1 REVERT JUMPDEST POP PUSH2 0x1AD4 SWAP2 POP PUSH2 0x1BD0 JUMP JUMPDEST JUMP JUMPDEST PUSH4 0x7C9A1CF9 PUSH1 0xE0 SHL PUSH1 0x0 MSTORE PUSH1 0x4 PUSH1 0x0 REVERT JUMPDEST PUSH1 0x0 JUMPDEST PUSH1 0x7 SLOAD DUP1 DUP3 LT ISZERO PUSH2 0x1B7D JUMPI DUP3 PUSH2 0x1AFF DUP4 PUSH2 0x1727 JUMP JUMPDEST SWAP1 SLOAD SWAP1 PUSH1 0x3 SHL SHR EQ PUSH2 0x1B14 JUMPI POP PUSH1 0x1 ADD PUSH2 0x1AEA JUMP JUMPDEST PUSH1 0x0 NOT DUP2 ADD SWAP3 POP DUP3 GT PUSH2 0xDDE JUMPI PUSH2 0xBCB PUSH2 0x1B30 PUSH2 0x1B3D SWAP4 PUSH2 0x1727 JUMP JUMPDEST SWAP1 SLOAD SWAP1 PUSH1 0x3 SHL SHR SWAP2 PUSH2 0x1727 JUMP JUMPDEST PUSH1 0x7 SLOAD DUP1 ISZERO PUSH2 0x1B67 JUMPI PUSH1 0x0 NOT ADD PUSH2 0x1B53 DUP2 PUSH2 0x1727 JUMP JUMPDEST DUP2 SLOAD SWAP1 PUSH1 0x0 NOT SWAP1 PUSH1 0x3 SHL SHL NOT AND SWAP1 SSTORE PUSH1 0x7 SSTORE JUMP JUMPDEST PUSH4 0x4E487B71 PUSH1 0xE0 SHL PUSH1 0x0 MSTORE PUSH1 0x31 PUSH1 0x4 MSTORE PUSH1 0x24 PUSH1 0x0 REVERT JUMPDEST POP POP POP JUMP JUMPDEST PUSH1 0x20 ADD DUP1 MLOAD SWAP1 PUSH1 0x4 DUP3 LT ISZERO PUSH2 0x42C JUMPI PUSH1 0x0 SWAP2 PUSH1 0x1 SUB PUSH2 0x1BA2 JUMPI POP POP PUSH1 0x1 SWAP1 JUMP JUMPDEST MLOAD PUSH1 0x4 DUP2 LT ISZERO PUSH2 0x1BBC JUMPI PUSH1 0x3 EQ PUSH2 0x1BB6 JUMPI SWAP1 JUMP JUMPDEST POP PUSH1 0x1 SWAP1 JUMP JUMPDEST PUSH4 0x4E487B71 PUSH1 0xE0 SHL DUP3 MSTORE PUSH1 0x21 PUSH1 0x4 MSTORE PUSH1 0x24 DUP3 REVERT JUMPDEST DUP1 PUSH1 0x0 MSTORE PUSH1 0x3 PUSH1 0x20 MSTORE PUSH1 0x40 PUSH1 0x0 KECCAK256 PUSH3 0x493E0 PUSH1 0x9 DUP3 ADD SLOAD LT PUSH2 0x1C51 JUMPI PUSH1 0x7 DUP2 ADD SLOAD PUSH2 0x1BFF PUSH1 0x8 DUP4 ADD SLOAD DUP3 PUSH2 0x189A JUMP JUMPDEST PUSH1 0x0 SWAP2 DUP2 PUSH2 0x1C89 JUMPI JUMPDEST POP POP ISZERO PUSH2 0x1C51 JUMPI PUSH1 0xA DUP2 ADD PUSH1 0x1 PUSH1 0xFF NOT DUP3 SLOAD AND OR SWAP1 SSTORE PUSH3 0x2A300 TIMESTAMP ADD SWAP1 DUP2 TIMESTAMP GT PUSH2 0xDDE JUMPI PUSH1 0xD ADD SSTORE PUSH1 0x0 DUP1 MLOAD PUSH1 0x20 PUSH2 0x1CE1 DUP4 CODECOPY DUP2 MLOAD SWAP2 MSTORE PUSH1 0x40 DUP1 MLOAD PUSH1 0x0 DUP2 MSTORE PUSH1 0x1 PUSH1 0x20 DUP3 ADD MSTORE LOG2 JUMP JUMPDEST SWAP1 PUSH1 0xA PUSH2 0x1AD4 SWAP3 ADD PUSH1 0x2 PUSH1 0xFF NOT DUP3 SLOAD AND OR SWAP1 SSTORE DUP1 PUSH1 0x0 DUP1 MLOAD PUSH1 0x20 PUSH2 0x1CE1 DUP4 CODECOPY DUP2 MLOAD SWAP2 MSTORE PUSH1 0x40 DUP1 MLOAD PUSH1 0x0 DUP2 MSTORE PUSH1 0x2 PUSH1 0x20 DUP3 ADD MSTORE LOG2 PUSH2 0x1AE7 JUMP JUMPDEST SWAP1 SWAP2 POP PUSH2 0x2710 DUP2 MUL SWAP1 DUP1 DUP3 DIV PUSH2 0x2710 EQ SWAP1 ISZERO OR ISZERO PUSH2 0xDDE JUMPI PUSH2 0x1770 SWAP2 PUSH2 0x1CAE SWAP2 PUSH2 0x187A JUMP JUMPDEST LT ISZERO CODESIZE DUP1 PUSH2 0x1C08 JUMP JUMPDEST PUSH1 0x0 SLOAD PUSH1 0x1 PUSH1 0x1 PUSH1 0xA0 SHL SUB AND CALLER SUB PUSH2 0x1CCB JUMPI JUMP JUMPDEST PUSH4 0x118CDAA7 PUSH1 0xE0 SHL PUSH1 0x0 MSTORE CALLER PUSH1 0x4 MSTORE PUSH1 0x24 PUSH1 0x0 REVERT INVALID PUSH2 0x47C6 JUMPI 0xC5 MULMOD 0xB6 GT 0xC5 0xB8 DUP5 PUSH8 0x1C7CB0DA0E1EED36 0x4B JUMP 0x1E 0xE SWAP14 BASEFEE PUSH25 0x9B79421525A2646970667358221220E206B7A6E3F09CA45648 0xBA 0xFB 0xE1 EXTCODESIZE PUSH24 0x96567BEC57AD4E065107BF76156014E3CC64736F6C634300 ADDMOD BYTE STOP CALLER "},"methodIdentifiers":{"APPROVAL_THRESHOLD()":"3ab34290","EXECUTION_DELAY()":"37f135d7","MIN_PROPOSAL_POWER()":"a48ac1ea","QUORUM_THRESHOLD()":"5e510b60","VOTING_PERIOD()":"b1610d7e","activeProposals(uint256)":"e40824f8","authorizedContracts(address)":"d5b9221b","canExecuteProposal(uint256)":"824ea8ed","cancelProposal(uint256)":"e0a8f6f5","createProposal(uint8,string,string,bytes,address)":"859f89e7","executeProposal(uint256)":"0d61b519","finalizeProposal(uint256)":"5652077c","getActiveProposals()":"5584c4f9","getProposal(uint256)":"c7f758a8","getProposalResults(uint256)":"5bdcd008","getTotalVotingPower()":"11acc1a7","getVote(uint256,address)":"bc3f931f","owner()":"8da5cb5b","proposalCount()":"da35c664","proposals(uint256)":"013cf08b","renounceOwnership()":"715018a6","setContractAuthorization(address,bool)":"f60ccc86","transferOwnership(address)":"f2fde38b","updateVotingPower(address,uint256)":"eadc29c7","vote(uint256,bool)":"c9d27afe","votes(uint256,address)":"d23254b4","votingPower(address)":"c07473f6"}}}}}