{"contracts/Campaign.sol":{"Campaign":{"abi":[{"inputs":[{"internalType":"address","name":"_founder","type":"address"},{"internalType":"string","name":"_title","type":"string"},{"internalType":"string","name":"_description","type":"string"},{"internalType":"uint256","name":"_fundingGoal","type":"uint256"},{"internalType":"string[5]","name":"_milestoneDescriptions","type":"string[5]"},{"internalType":"uint256[5]","name":"_milestoneDeadlines","type":"uint256[5]"},{"internalType":"uint256[5]","name":"_milestonePercentages","type":"uint256[5]"},{"internalType":"uint256","name":"_platformFeePercentage","type":"uint256"}],"stateMutability":"nonpayable","type":"constructor"},{"inputs":[],"name":"AlreadyRefunded","type":"error"},{"inputs":[],"name":"AlreadyVoted","type":"error"},{"inputs":[],"name":"CampaignNotActive","type":"error"},{"inputs":[],"name":"DeadlineNotPassed","type":"error"},{"inputs":[],"name":"EnforcedPause","type":"error"},{"inputs":[],"name":"ExpectedPause","type":"error"},{"inputs":[],"name":"FundingGoalReached","type":"error"},{"inputs":[],"name":"InsufficientFunds","type":"error"},{"inputs":[],"name":"InvalidMilestone","type":"error"},{"inputs":[],"name":"InvalidRiskProfile","type":"error"},{"inputs":[],"name":"InvalidVotingPower","type":"error"},{"inputs":[],"name":"MaxRejectionsReached","type":"error"},{"inputs":[],"name":"MilestoneNotPending","type":"error"},{"inputs":[],"name":"MilestoneNotSubmitted","type":"error"},{"inputs":[],"name":"NotFunder","type":"error"},{"inputs":[],"name":"OnlyFounder","type":"error"},{"inputs":[{"internalType":"address","name":"owner","type":"address"}],"name":"OwnableInvalidOwner","type":"error"},{"inputs":[{"internalType":"address","name":"account","type":"address"}],"name":"OwnableUnauthorizedAccount","type":"error"},{"inputs":[],"name":"ReentrancyGuardReentrantCall","type":"error"},{"inputs":[],"name":"RefundNotAvailable","type":"error"},{"inputs":[],"name":"VotingNotActive","type":"error"},{"inputs":[],"name":"VotingStillActive","type":"error"},{"anonymous":false,"inputs":[{"indexed":false,"internalType":"enum Campaign.CampaignState","name":"oldState","type":"uint8"},{"indexed":false,"internalType":"enum Campaign.CampaignState","name":"newState","type":"uint8"}],"name":"CampaignStateChanged","type":"event"},{"anonymous":false,"inputs":[{"indexed":true,"internalType":"address","name":"initiator","type":"address"},{"indexed":false,"internalType":"uint256","name":"votingDeadline","type":"uint256"}],"name":"EmergencyFailureTriggered","type":"event"},{"anonymous":false,"inputs":[{"indexed":true,"internalType":"address","name":"funder","type":"address"},{"indexed":false,"internalType":"uint256","name":"amount","type":"uint256"},{"indexed":false,"internalType":"enum Campaign.RiskProfile","name":"riskProfile","type":"uint8"},{"indexed":false,"internalType":"uint256","name":"committedAmount","type":"uint256"},{"indexed":false,"internalType":"uint256","name":"reserveAmount","type":"uint256"}],"name":"FundReceived","type":"event"},{"anonymous":false,"inputs":[{"indexed":true,"internalType":"uint256","name":"milestoneId","type":"uint256"},{"indexed":false,"internalType":"uint256","name":"amount","type":"uint256"},{"indexed":true,"internalType":"address","name":"founder","type":"address"}],"name":"FundsReleased","type":"event"},{"anonymous":false,"inputs":[{"indexed":true,"internalType":"uint256","name":"milestoneId","type":"uint256"},{"indexed":false,"internalType":"uint256","name":"fundsReleased","type":"uint256"},{"indexed":false,"internalType":"uint256","name":"yesVotes","type":"uint256"},{"indexed":false,"internalType":"uint256","name":"noVotes","type":"uint256"}],"name":"MilestoneCompleted","type":"event"},{"anonymous":false,"inputs":[{"indexed":true,"internalType":"uint256","name":"milestoneId","type":"uint256"},{"indexed":false,"internalType":"uint256","name":"yesVotes","type":"uint256"},{"indexed":false,"internalType":"uint256","name":"noVotes","type":"uint256"},{"indexed":false,"internalType":"uint8","name":"rejectionCount","type":"uint8"}],"name":"MilestoneRejected","type":"event"},{"anonymous":false,"inputs":[{"indexed":true,"internalType":"uint256","name":"milestoneId","type":"uint256"},{"indexed":false,"internalType":"string","name":"evidenceIPFS","type":"string"},{"indexed":false,"internalType":"uint256","name":"votingDeadline","type":"uint256"}],"name":"MilestoneSubmitted","type":"event"},{"anonymous":false,"inputs":[{"indexed":true,"internalType":"address","name":"previousOwner","type":"address"},{"indexed":true,"internalType":"address","name":"newOwner","type":"address"}],"name":"OwnershipTransferred","type":"event"},{"anonymous":false,"inputs":[{"indexed":false,"internalType":"address","name":"account","type":"address"}],"name":"Paused","type":"event"},{"anonymous":false,"inputs":[{"indexed":true,"internalType":"address","name":"funder","type":"address"},{"indexed":false,"internalType":"uint256","name":"refundAmount","type":"uint256"},{"indexed":false,"internalType":"uint256","name":"originalContribution","type":"uint256"}],"name":"RefundClaimed","type":"event"},{"anonymous":false,"inputs":[{"indexed":false,"internalType":"address","name":"account","type":"address"}],"name":"Unpaused","type":"event"},{"anonymous":false,"inputs":[{"indexed":true,"internalType":"uint256","name":"milestoneId","type":"uint256"},{"indexed":true,"internalType":"address","name":"voter","type":"address"},{"indexed":false,"internalType":"bool","name":"support","type":"bool"},{"indexed":false,"internalType":"uint256","name":"votingPower","type":"uint256"}],"name":"VoteCast","type":"event"},{"inputs":[],"name":"APPROVAL_THRESHOLD","outputs":[{"internalType":"uint256","name":"","type":"uint256"}],"stateMutability":"view","type":"function"},{"inputs":[],"name":"MAX_WHALE_POWER","outputs":[{"internalType":"uint256","name":"","type":"uint256"}],"stateMutability":"view","type":"function"},{"inputs":[],"name":"VOTING_PERIOD","outputs":[{"internalType":"uint256","name":"","type":"uint256"}],"stateMutability":"view","type":"function"},{"inputs":[],"name":"campaignData","outputs":[{"internalType":"string","name":"title","type":"string"},{"internalType":"string","name":"description","type":"string"},{"internalType":"address","name":"founder","type":"address"},{"internalType":"uint256","name":"fundingGoal","type":"uint256"},{"internalType":"uint256","name":"totalRaised","type":"uint256"},{"internalType":"uint256","name":"totalCommittedPool","type":"uint256"},{"internalType":"uint256","name":"totalReservePool","type":"uint256"},{"internalType":"uint8","name":"currentMilestone","type":"uint8"},{"internalType":"enum Campaign.CampaignState","name":"state","type":"uint8"},{"internalType":"uint256","name":"createdAt","type":"uint256"},{"internalType":"uint256","name":"platformFeePercentage","type":"uint256"}],"stateMutability":"view","type":"function"},{"inputs":[],"name":"claimRefund","outputs":[],"stateMutability":"nonpayable","type":"function"},{"inputs":[{"internalType":"uint256","name":"milestoneId","type":"uint256"}],"name":"finalizeMilestone","outputs":[],"stateMutability":"nonpayable","type":"function"},{"inputs":[{"internalType":"enum Campaign.RiskProfile","name":"riskProfile","type":"uint8"}],"name":"fund","outputs":[],"stateMutability":"payable","type":"function"},{"inputs":[{"internalType":"address","name":"","type":"address"}],"name":"funders","outputs":[{"internalType":"uint256","name":"totalContribution","type":"uint256"},{"internalType":"uint256","name":"committedAmount","type":"uint256"},{"internalType":"uint256","name":"reserveAmount","type":"uint256"},{"internalType":"enum Campaign.RiskProfile","name":"riskProfile","type":"uint8"},{"internalType":"uint8","name":"missedVotes","type":"uint8"},{"internalType":"bool","name":"isAutoYes","type":"bool"},{"internalType":"bool","name":"hasRefunded","type":"bool"},{"internalType":"uint256","name":"fundedAt","type":"uint256"}],"stateMutability":"view","type":"function"},{"inputs":[{"internalType":"uint256","name":"","type":"uint256"}],"name":"fundersList","outputs":[{"internalType":"address","name":"","type":"address"}],"stateMutability":"view","type":"function"},{"inputs":[],"name":"getCampaignData","outputs":[{"components":[{"internalType":"string","name":"title","type":"string"},{"internalType":"string","name":"description","type":"string"},{"internalType":"address","name":"founder","type":"address"},{"internalType":"uint256","name":"fundingGoal","type":"uint256"},{"internalType":"uint256","name":"totalRaised","type":"uint256"},{"internalType":"uint256","name":"totalCommittedPool","type":"uint256"},{"internalType":"uint256","name":"totalReservePool","type":"uint256"},{"internalType":"uint8","name":"currentMilestone","type":"uint8"},{"internalType":"enum Campaign.CampaignState","name":"state","type":"uint8"},{"internalType":"uint256","name":"createdAt","type":"uint256"},{"internalType":"uint256","name":"platformFeePercentage","type":"uint256"}],"internalType":"struct Campaign.CampaignData","name":"","type":"tuple"}],"stateMutability":"view","type":"function"},{"inputs":[],"name":"getCurrentMilestoneInfo","outputs":[{"internalType":"uint256","name":"milestoneId","type":"uint256"},{"internalType":"string","name":"description","type":"string"},{"internalType":"enum Campaign.MilestoneState","name":"state","type":"uint8"},{"internalType":"uint256","name":"deadline","type":"uint256"},{"internalType":"uint256","name":"votingDeadline","type":"uint256"}],"stateMutability":"view","type":"function"},{"inputs":[{"internalType":"address","name":"funderAddress","type":"address"}],"name":"getFunder","outputs":[{"components":[{"internalType":"uint256","name":"totalContribution","type":"uint256"},{"internalType":"uint256","name":"committedAmount","type":"uint256"},{"internalType":"uint256","name":"reserveAmount","type":"uint256"},{"internalType":"enum Campaign.RiskProfile","name":"riskProfile","type":"uint8"},{"internalType":"bool[5]","name":"hasVoted","type":"bool[5]"},{"internalType":"uint8","name":"missedVotes","type":"uint8"},{"internalType":"bool","name":"isAutoYes","type":"bool"},{"internalType":"bool","name":"hasRefunded","type":"bool"},{"internalType":"uint256","name":"fundedAt","type":"uint256"}],"internalType":"struct Campaign.Funder","name":"","type":"tuple"}],"stateMutability":"view","type":"function"},{"inputs":[],"name":"getFundersList","outputs":[{"internalType":"address[]","name":"","type":"address[]"}],"stateMutability":"view","type":"function"},{"inputs":[{"internalType":"uint256","name":"milestoneId","type":"uint256"}],"name":"getMilestone","outputs":[{"components":[{"internalType":"string","name":"description","type":"string"},{"internalType":"uint256","name":"releasePercentage","type":"uint256"},{"internalType":"uint256","name":"deadline","type":"uint256"},{"internalType":"enum Campaign.MilestoneState","name":"state","type":"uint8"},{"internalType":"uint256","name":"votingDeadline","type":"uint256"},{"internalType":"uint256","name":"yesVotes","type":"uint256"},{"internalType":"uint256","name":"noVotes","type":"uint256"},{"internalType":"uint256","name":"totalVotingPower","type":"uint256"},{"internalType":"string","name":"evidenceIPFS","type":"string"},{"internalType":"uint8","name":"rejectionCount","type":"uint8"},{"internalType":"uint256","name":"submittedAt","type":"uint256"}],"internalType":"struct Campaign.Milestone","name":"","type":"tuple"}],"stateMutability":"view","type":"function"},{"inputs":[{"internalType":"address","name":"funderAddress","type":"address"}],"name":"getRefundAmount","outputs":[{"internalType":"uint256","name":"","type":"uint256"}],"stateMutability":"view","type":"function"},{"inputs":[{"internalType":"uint256","name":"","type":"uint256"},{"internalType":"address","name":"","type":"address"}],"name":"hasVotedOnMilestone","outputs":[{"internalType":"bool","name":"","type":"bool"}],"stateMutability":"view","type":"function"},{"inputs":[{"internalType":"uint256","name":"","type":"uint256"}],"name":"milestones","outputs":[{"internalType":"string","name":"description","type":"string"},{"internalType":"uint256","name":"releasePercentage","type":"uint256"},{"internalType":"uint256","name":"deadline","type":"uint256"},{"internalType":"enum Campaign.MilestoneState","name":"state","type":"uint8"},{"internalType":"uint256","name":"votingDeadline","type":"uint256"},{"internalType":"uint256","name":"yesVotes","type":"uint256"},{"internalType":"uint256","name":"noVotes","type":"uint256"},{"internalType":"uint256","name":"totalVotingPower","type":"uint256"},{"internalType":"string","name":"evidenceIPFS","type":"string"},{"internalType":"uint8","name":"rejectionCount","type":"uint8"},{"internalType":"uint256","name":"submittedAt","type":"uint256"}],"stateMutability":"view","type":"function"},{"inputs":[],"name":"owner","outputs":[{"internalType":"address","name":"","type":"address"}],"stateMutability":"view","type":"function"},{"inputs":[],"name":"paused","outputs":[{"internalType":"bool","name":"","type":"bool"}],"stateMutability":"view","type":"function"},{"inputs":[],"name":"renounceOwnership","outputs":[],"stateMutability":"nonpayable","type":"function"},{"inputs":[{"internalType":"uint256","name":"milestoneId","type":"uint256"},{"internalType":"string","name":"evidenceIPFS","type":"string"}],"name":"submitMilestone","outputs":[],"stateMutability":"nonpayable","type":"function"},{"inputs":[{"internalType":"address","name":"newOwner","type":"address"}],"name":"transferOwnership","outputs":[],"stateMutability":"nonpayable","type":"function"},{"inputs":[],"name":"triggerEmergencyFailure","outputs":[],"stateMutability":"nonpayable","type":"function"},{"inputs":[{"internalType":"uint256","name":"milestoneId","type":"uint256"},{"internalType":"bool","name":"support","type":"bool"}],"name":"vote","outputs":[],"stateMutability":"nonpayable","type":"function"}],"evm":{"bytecode":{"linkReferences":{},"object":"60806040523461096257612bfb8038038061001981610987565b9283398101610200828203126109625781516001600160a01b03811692908390036109625760208101516001600160401b038111610962578261005d9183016109ac565b60408201516001600160401b038111610962578361007c9184016109ac565b606083015160808401519194916001600160401b0381116109625784019482601f870112156109625760a0966100b188610987565b8097898101918683116109625781905b83821061093757505050506101e06100e96100de868b8a01610a17565b956101408901610a17565b96015192811561092157600080546001600160a01b031981168417825583916001600160a01b03909116907f8be0079c531659141344cd1fd0a4f28419497f9722a3daafe3b4186f6b6457e09080a360018055610144610967565b9586526020860192835260408601918252606086019081526080860160008152898701906000825260c08801926000845260e0890194600086526101008a0196600088526101208b019a428c526101408101998a525180519060018060401b03821161081e5760035490600182811c92168015610917575b60208310146107fe5781601f8493116108a7575b50602090601f831160011461083f57600092610834575b50508160011b916000199060031b1c1916176003555b518051906001600160401b03821161081e57600454600181811c91168015610814575b60208210146107fe57601f8111610799575b50602090601f83116001146107285760ff98979695949392916000918361071d575b50508160011b916000199060031b1c1916176004555b60018060a01b0390511660018060a01b0319600554161760055551600655516007555160085551600955511660ff19600a541617600a55519260048410156107075760009361ff00600a549160081b169061ff00191617600a5551600b5551600c55815b60058110156106f8576102e18186610a59565b516102ec8286610a59565b516102f78385610a59565b51620151808102908082046201518014901517156106e4574201908142116106e457610321610967565b9283526020830152604082015283606082015283608082015283878201528360c08201528360e0820152602061035681610987565b8581526101008301526101208201859052610140820185905281518051906001600160401b0382116106d057600b8502600d0154600181811c911680156106c6575b848210146106b2579081601f849311610661575b508390601f83116001146105f25788926105e7575b50508160011b916000199060031b1c191617600b8402600d01555b6020820151600e600b850201556040820151600f600b850201556010600b840201606083015160068110156105d357815460ff191660ff9190911617905560808201516011600b85029081019190915588830151601282015560c0830151601382015560e083015160148201556101008301518051601590920192906001600160401b0383116105bf578354600181811c911680156105b5575b838210146105a157601f811161055e575b5081601f84116001146104f057509180610140949260019796948a926104e5575b5050600019600383901b1c191690861b1790555b6016600b84020160ff6101208301511660ff1982541617905501516017600b83020155016102ce565b0151905038806104a8565b9190601f198416858a52838a20938a905b828210610546575050926001979694919288938361014098961061052d575b505050811b0190556104bc565b015160001960f88460031b161c19169055388080610520565b80600186978294978701518155019601940190610501565b848952828920601f850160051c810191848610610597575b601f0160051c01905b81811061058c5750610487565b89815560010161057f565b9091508190610576565b634e487b7160e01b89526022600452602489fd5b90607f1690610476565b634e487b7160e01b88526041600452602488fd5b634e487b7160e01b87526021600452602487fd5b0151905038806103c1565b600d600b88020189528489209250601f198416895b8682821061064b575050908460019594939210610632575b505050811b01600b8402600d01556103dc565b015160001960f88460031b161c1916905538808061061f565b6001859682939686015181550195019301610607565b909150600b8602600d018852838820601f840160051c81018585106106ab575b90849392915b601f830160051c8201811061069d5750506103ac565b8a8155859450600101610687565b5080610681565b634e487b7160e01b88526022600452602488fd5b90607f1690610398565b634e487b7160e01b87526041600452602487fd5b634e487b7160e01b86526011600452602486fd5b60405161217a9081610a818239f35b634e487b7160e01b600052602160045260246000fd5b015190503880610254565b90601f198316916004600052816000209260005b818110610781575091600193918560ff9c9b9a999897969410610768575b505050811b0160045561026a565b015160001960f88460031b161c1916905538808061075a565b9293602060018192878601518155019501930161073c565b60046000527f8a35acfbc15ff81a39ae7d344fd709f28e8600b4aa8c65c6b64bfe7fe36bd19b601f840160051c810191602085106107f4575b601f0160051c01905b8181106107e85750610232565b600081556001016107db565b90915081906107d2565b634e487b7160e01b600052602260045260246000fd5b90607f1690610220565b634e487b7160e01b600052604160045260246000fd5b0151905038806101e7565b600360009081528281209350601f198516905b81811061088f5750908460019594939210610876575b505050811b016003556101fd565b015160001960f88460031b161c19169055388080610868565b92936020600181928786015181550195019301610852565b60036000529091507fc2575a0e9e593c00f959f8c92f12db2869c3395a3b0502d05e2516446f71f85b601f840160051c8101916020851061090d575b90601f859493920160051c01905b8181106108fe57506101d0565b600081558493506001016108f1565b90915081906108e3565b91607f16916101bc565b631e4fbdf760e01b600052600060045260246000fd5b81516001600160401b038111610962576020916109578a849387016109ac565b8152019101906100c1565b600080fd5b6040519061016082016001600160401b0381118382101761081e57604052565b6040519190601f01601f191682016001600160401b0381118382101761081e57604052565b81601f82011215610962578051906001600160401b03821161081e576109db601f8301601f1916602001610987565b92828452602083830101116109625760005b828110610a0257505060206000918301015290565b806020809284010151828287010152016109ed565b9080601f8301121561096257610a2d60a0610987565b809260a0810192831161096257905b828210610a495750505090565b8151815260209182019101610a3c565b906005811015610a6a5760051b0190565b634e487b7160e01b600052603260045260246000fdfe608080604052600436101561001357600080fd5b60003560e01c908163031b3677146112aa575080630a5480d1146111de57806320577041146111c15780632442e1cb1461101c57806334f6fd8714610c165780633658da1c14610b995780633ab3429014610b7c5780633bcaea0214610b24578063476a119b14610a8e57806347ff62c614610a4c5780634b959a4f146109ac5780635c975abb146109895780635d306f341461095e578063715018a6146109055780638da5cb5b146108dc578063b1610d7e146108be578063b5545a3c146107a6578063c417633814610615578063c93ef58b1461059f578063c9d27afe14610512578063d2d3001014610345578063e89e4ed61461026b578063edd5271e146101b55763f2fde38b1461012757600080fd5b346101b05760203660031901126101b05761014061133f565b6101486120f5565b6001600160a01b0316801561019a57600080546001600160a01b03198116831782556001600160a01b0316907f8be0079c531659141344cd1fd0a4f28419497f9722a3daafe3b4186f6b6457e09080a3005b631e4fbdf760e01b600052600060045260246000fd5b600080fd5b346101b05760003660031901126101b0576101ce61146e565b6101606101d9611527565b60018060a01b03600554169060065461025b60075460085460095490600a5492600b5495610227600c54986102196040519d8d8f9e8f9081520190611362565b8c810360208e015290611362565b9860408b015260608a0152608089015260a088015260c087015260ff811660e087015260ff61010087019160081c166113cb565b6101208401526101408301520390f35b346101b05760203660031901126101b05760043560058110156101b057610300600b6020920261029d81600d016115be565b610334600e8301549183600f81015460ff6010830154166011830154601284015490610312601386015493601487015495601760ff60166102e060158c016115be565b9a0154169c01549a6040519e8f9e8f9b6101608d526101608d0190611362565b9a015260408d015260608c01906113a3565b60808a015260a089015260c088015260e0870152858203610100870152611362565b916101208401526101408301520390f35b346101b05760203660031901126101b05761035e61133f565b6040519061036b8261142f565b60008252600060208301526000604083015260006060830152600061010060a093604051610399868261144c565b85368237608082015282858201528260c08201528260e0820152015260018060a01b03166000526044602052604060002090604051906103d88261142f565b82548252600183015490602083019182526002840154936040840194855260ff60038201541661040c60608601918261168d565b6104bd6040519160ff600485015481811615158552818160081c1615156020860152818160101c1615156040860152818160181c161515606086015260201c161515608084015261045d858461144c565b6080870192835260058401549487019760ff86168952600660c089019560ff8860081c161515875260ff60e08b019860101c1615158852015496610100890197885260405198518952516020890152516040880152516060870190611355565b51946000608086015b600582106104fa5750505160ff16610120850152511515610140840152511515610160830152516101808201526101a09150f35b6020806001928a5115158152019801910190966104c6565b346101b05760403660031901126101b05760243580151581036101b0573360005260446020526040600020541561058e5760ff600a5460081c166004811015610578576105675761056590600435611966565b005b63219a945b60e11b60005260046000fd5b634e487b7160e01b600052602160045260246000fd5b6352cc575f60e11b60005260046000fd5b346101b05760003660031901126101b0573360005260446020526040600020541561058e5762093a8042018042116105ff576040519081527f3d4a468b9058af86d7283a57423506c1f897b6fa8bf9058684a02d55e936010160203392a2005b634e487b7160e01b600052601160045260246000fd5b346101b05760003660031901126101b057600061014060405161063781611412565b60608152606060208201528260408201528260608201528260808201528260a08201528260c08201528260e08201528261010082015282610120820152015260405161068281611412565b61068a61146e565b8152610694611527565b6020820190815260018060a01b036005541660408301908152600654916060840192835260075490608085019182526008549360a0860194855260095460c08701908152600a5460ff60e0890191818116835260081c1690610100890192600483101561057857610744988a976107949660ff958752610758600b54996101208c019a8b52610140600c549c019b8c526040519e8f9e8f9160208352516101606020840152610180830190611362565b9151906040601f1982850301910152611362565b9a516001600160a01b031660608d01525160808c01525160a08b01525160c08a01525160e08901525116610100870152516101208601906113cb565b51610140840152516101608301520390f35b346101b05760003660031901126101b0576107bf611b0c565b3360005260446020526040600020541561058e5760ff600a5460081c166004811015610578576002036108ad5733600052604460205260ff60056040600020015460101c1661089c57336000526044602052604060002061081f33611f8f565b90811561088b5760058101805462ff00001916620100001790556000808080853382f11561087f575460405191825260208201527f17c1d890f3ffba4991a771a0b55802a1eff3159d0cce950fb68d1360530393d960403392a260018055005b6040513d6000823e3d90fd5b63356680b760e01b60005260046000fd5b63542f378d60e11b60005260046000fd5b630b4d698160e01b60005260046000fd5b346101b05760003660031901126101b057602060405162093a808152f35b346101b05760003660031901126101b0576000546040516001600160a01b039091168152602090f35b346101b05760003660031901126101b05761091e6120f5565b600080546001600160a01b0319811682556001600160a01b03167f8be0079c531659141344cd1fd0a4f28419497f9722a3daafe3b4186f6b6457e08280a3005b346101b05760203660031901126101b057602061098161097c61133f565b611922565b604051908152f35b346101b05760003660031901126101b057602060ff600254166040519015158152f35b346101b05760203660031901126101b05760043560ff600a5460081c16600481101561057857610567576005811015610a3657600b81029060ff601083015416600681101561057857600203610a255760116000920154421115610a1657610a1390611b90565b80f35b633483eb6360e01b8252600482fd5b639b8cc47560e01b60005260046000fd5b634e487b7160e01b600052603260045260246000fd5b346101b05760203660031901126101b0576004356046548110156101b057610a756020916113b0565b905460405160039290921b1c6001600160a01b03168152f35b346101b05760403660031901126101b05760243567ffffffffffffffff81116101b057366023820112156101b057806004013567ffffffffffffffff81116101b05736602482840101116101b0576005546001600160a01b03163303610b135760ff600a5460081c166004811015610578576105675760246105659201600435611699565b630b42e6cb60e21b60005260046000fd5b346101b05760403660031901126101b0576024356001600160a01b03811681036101b057600435600052604560205260406000209060018060a01b0316600052602052602060ff604060002054166040519015158152f35b346101b05760003660031901126101b05760206040516117708152f35b346101b05760003660031901126101b05760ff600a54166005811015610a3657600b81029060ff601083015416600f83015492610bdd601182015491600d016115be565b93610c08610bfd604051968796875260a0602088015260a0870190611362565b9360408601906113a3565b606084015260808301520390f35b60203660031901126101b05760043560038110156101b057610c36611b0c565b60ff600a5460081c16600481101561057857610567573415610fe7576000600260ff831611610fd857610c6b34600754611660565b60065410610fc9579080610fa157612710610c896113885b3461166d565b0491610c958334611680565b9033600052604460205260406000205415600014610ed3575060465468010000000000000000811015610ebd57806001610cd292016046556113b0565b81546001600160a01b0360039290921b91821b19163390911b1790556040519260a0840167ffffffffffffffff811185821017610ebd576040526000845260006020850152600060408501526000606085015260006080850152604051610d388161142f565b3481526020810182815260408201958487526060830196610d59878961168d565b6080840191825260a08401916000835260c08501906000825260e0860192600084526101008701954287523360005260446020526040600020975188555160018801555160028701556003860199519960038b10156105785760009a60ff80198354169116179055519860009060005b60058110610e94575050600486015591516005850180549351925162ff000090151560101b1661ff0093151560081b9390931660ff90921662ffffff19909416939093171717905551600690910155919250905b610e2934600754611660565b600755610e3881600854611660565b600855610e4782600954611660565b600955610e5e604051933485526020850190611355565b604083015260608201527f5ed175eddba01e1e8e9b7deb170e66689a1ea850c3acf88c71d86b071020a96460803392a260018055005b909160206001918d5115159060ff808660031b9316831b921b1916179c0191019a91909a610dc9565b634e487b7160e01b600052604160045260246000fd5b9290919233600052604460205260ff6003604060002001541690610578576003811015610578578303610f5c573360005260446020526040600020610f19348254611660565b90553360005260446020526001604060002001610f37828254611660565b90553360005260446020526002604060002001610f55838254611660565b9055610e1d565b60405162461bcd60e51b815260206004820152601a60248201527f43616e6e6f74206368616e6765207269736b2070726f66696c650000000000006044820152606490fd5b6000915060018103610fbb57612710610c89611b58610c83565b612710610c89612328610c83565b634fbf92cf60e01b8152600490fd5b63da47a88760e01b8152600490fd5b60405162461bcd60e51b815260206004820152600d60248201526c09aeae6e840e6cadcc8408aa89609b1b6044820152606490fd5b346101b05760203660031901126101b057600435600061014060405161104181611412565b606081528260208201528260408201528260608201528260808201528260a08201528260c08201528260e082015260606101008201528261012082015201526005811015610a3657600b0260405161109881611412565b6110a482600d016115be565b8152600e8201549160208201928352600f810154926040830193845260ff6010830154169060608401916006811015610578578252601183015460808501908152601284015460a08601908152601385015460c08701908152601486015460e0880190815291611116601588016115be565b936101008901948552601688015460ff16976101208a0198895260170154966101408a019788526040519a8b9a60208c525160208c0161016090526101808c0161115f91611362565b975160408c01525160608b01525160808a0161117a916113a3565b5160a08901525160c08801525160e08701525161010086015251848203601f19016101208601526111ab9190611362565b915160ff16610140840152516101608301520390f35b346101b05760003660031901126101b05760206040516107d08152f35b346101b05760003660031901126101b0576040518060206046549283815201809260466000527f128667f541fed74a8429f9d592c26c2c6a4beb9ae5ead9912c98b2595c8423109060005b81811061128b575050508161123f91038261144c565b6040519182916020830190602084525180915260408301919060005b818110611269575050500390f35b82516001600160a01b031684528594506020938401939092019160010161125b565b82546001600160a01b0316845260209093019260019283019201611229565b346101b05760203660031901126101b057610100906001600160a01b036112cf61133f565b166000526044602052604060002060ff81549161131860018201546002830154846003850154169160066005860154950154968852602088015260408701526060860190611355565b8181166080850152818160081c16151560a085015260101c16151560c083015260e0820152f35b600435906001600160a01b03821682036101b057565b9060038210156105785752565b919082519283825260005b84811061138e575050826000602080949584010152601f8019910116010190565b8060208092840101518282860101520161136d565b9060068210156105785752565b604654811015610a3657604660005260206000200190600090565b9060048210156105785752565b90600182811c92168015611408575b60208310146113f257565b634e487b7160e01b600052602260045260246000fd5b91607f16916113e7565b610160810190811067ffffffffffffffff821117610ebd57604052565b610120810190811067ffffffffffffffff821117610ebd57604052565b90601f8019910116810190811067ffffffffffffffff821117610ebd57604052565b6040519060008260035491611482836113d8565b808352926001811690811561150857506001146114a8575b6114a69250038361144c565b565b506003600090815290917fc2575a0e9e593c00f959f8c92f12db2869c3395a3b0502d05e2516446f71f85b5b8183106114ec5750509060206114a69282010161149a565b60209193508060019154838589010152019101909184926114d4565b602092506114a694915060ff191682840152151560051b82010161149a565b604051906000826004549161153b836113d8565b8083529260018116908115611508575060011461155e576114a69250038361144c565b506004600090815290917f8a35acfbc15ff81a39ae7d344fd709f28e8600b4aa8c65c6b64bfe7fe36bd19b5b8183106115a25750509060206114a69282010161149a565b602091935080600191548385890101520191019091849261158a565b90604051918260008254926115d2846113d8565b808452936001811690811561163e57506001146115f7575b506114a69250038361144c565b90506000929192526020600020906000915b8183106116225750509060206114a692820101386115ea565b6020919350806001915483858901015201910190918492611609565b9050602092506114a694915060ff191682840152151560051b820101386115ea565b919082018092116105ff57565b818102929181159184041417156105ff57565b919082039182116105ff57565b60038210156105785752565b909160ff600a54168203611911576005821015610a3657600b8202926010840160ff815416600681101561057857611900576000600f86015442116118f25750805460ff191660021790556000936015810167ffffffffffffffff84116118de5761170481546113d8565b601f8111611899575b508386601f821160011461183657879161182b575b508460011b906000198660031b1c19161790555b62093a804201948542116118175750601181019485554260178201556000601282018190556013820181905560149091018190555b6046548110156117bc57600190846000526045602052604080600020611790836113b0565b905460039190911b1c60a085901b85900316600090815260209190915220805460ff191690550161176b565b50606090827f2d1be871e8185f5374d350ec315dabfbda8bd920997205e381eabc7da80224849495600090549060405195869460408652816040870152868601378383018501526020830152601f01601f19168101030190a2565b634e487b7160e01b81526011600452602490fd5b905083013538611722565b82885260208820915085601f198116895b81811061187e575010611864575b5050600184811b019055611736565b840135600019600387901b60f8161c191690553880611855565b87840135855560019094019360209384019389935001611847565b81875260208720601f860160051c810191602087106118d4575b601f0160051c01905b8181106118c9575061170d565b8781556001016118bc565b90915081906118b3565b634e487b7160e01b86526041600452602486fd5b5050505050506114a6611b2e565b6323a244ef60e11b60005260046000fd5b6302e845cd60e61b60005260046000fd5b60ff600a5460081c166004811015610578576002036119475761194490611f8f565b90565b50600090565b9190916005831015610a3657601f908360051c01921690565b6005811015610a3657600b810260ff601082015416600681101561057857600203610a2557600082815260456020908152604080832033845290915290205460ff16611afb5760009060118101544211611aef5733825260446020526040822054916007546107d08102908082046107d01490151715611adb576127109004808411611ad3575b5083815260456020908152604080832033808552908352818420805460ff19166001179055835260449091528120611a2990859060040161194d565b81549060031b9060ff6001831b921b191617905533815260446020526005604082200160ff1981541690558085600014611abc57610a365760128201611a70848254611660565b90555b610a3657601401611a85828254611660565b9055604051921515835260208301527fcbdf6214089cba887ecbf35a0b6a734589959c9763342c756bb2a80ca2bc9f6e60403393a3565b5060138201611acc848254611660565b9055611a73565b9250386119ed565b634e487b7160e01b82526011600452602482fd5b50506114a69150611b90565b637c9a1cf960e01b60005260046000fd5b600260015414611b1d576002600155565b633ee5aeb560e01b60005260046000fd5b7f120bfc1de29621f7872a5b3129b6524ceb18df8c689a37496b8ee4007235dbc8604060ff600a5460081c1661020061ff0019600a541617600a55611b75825180926113cb565b60026020820152a1565b60ff1660ff81146105ff5760010190565b9060005b604654811015611cb657611ba7816113b0565b60018060a01b0391549060031b1c1680600052604460205260ff611bd285600460406000200161194d565b90549060031b1c1615611be9575b50600101611b94565b806000526044602052600560406000200160ff611c0881835416611b7f565b1660ff19825416179055806000526044602052600260ff6005604060002001541610611be057600090815260446020526040902060058101805461ff001916610100179055546007549091906107d080820291801590830490911417156105ff576127109004808311611cae575b506005841015610a3657600191611ca66014600b870260128101611c9b858254611660565b905501918254611660565b905590611be0565b915038611c76565b50906005811015610a3657600b810290601282019081549260006013820194611ce0865482611660565b82918115918215611f4b575b505050600014611eb557610a3657601001805460ff19166003178155611d118261211e565b9283158015611e23575b5060049350606083927f189a69c6603d31e1afe639223c0bce076c888e04d821629c66377946aa4ff5f692600091600560ff19825416179055611d5d8561211e565b915054600097549060405192835260208301526040820152a203611e065761010061ff0019600a541617600a5560095480158015611dcb575b505060408051918252600160208301527f120bfc1de29621f7872a5b3129b6524ceb18df8c689a37496b8ee4007235dbc891a1565b82808093819360018060a01b0360055416908390611dfd575bf115611df1573880611d96565b604051903d90823e3d90fd5b506108fc611de4565b50600a5460ff611e17818316611b7f565b169060ff191617600a55565b6000808087819460018060a01b0360055416908390611eac575bf11561087f57606083927f189a69c6603d31e1afe639223c0bce076c888e04d821629c66377946aa4ff5f692600496857f807158a396c8ce26fb6a4a44930e1b49876133ba7806dbaac491ea4713e4515e602060018060a01b036005541693604051908152a392509250611d1b565b506108fc611e3d565b939293610a365760608160ff60107f48427260fa8e0dfedf5eafafdba9c430eaac0ecd4da5f57e1220727939adf421940196600482198954161788556016600093019282611f0581865416611b7f565b1683198554161784555054916000965496505416946040519182526020820152846040820152a2600090600211611f405750506114a6611b2e565b50805460ff19169055565b91939092509261271083029280840461271014901517156105ff57611f795761177091041015388080611cec565b634e487b7160e01b600052601260045260246000fd5b60018060a01b03166000526044602052604060002060405190611fb18261142f565b8054825260018101549160208101928352610100600660028401549360408401948552611fe860ff6003830154166060860161168d565b60405160ff600483015481811615158352818160081c1615156020840152818160101c1615156040840152818160181c161515606084015260201c161515608082015261203660a08261144c565b608085015260ff600582015481811660a0870152818160081c16151560c087015260101c16151560e0850152015491015281519160009060ff600a5416915b8281106120a4575050506119449161208e915190611660565b61271061209d600c548361166d565b0490611680565b6005811015610a3657600b810260ff6010820154166006811015610578576005146120d3575b50600101612075565b6001919561271061209d6120ee93600e87519101549061166d565b94906120ca565b6000546001600160a01b0316330361210957565b63118cdaa760e01b6000523360045260246000fd5b600854906005811015610a365761271091600e600b612140930201549061166d565b049056fea2646970667358221220df0c4fd4de2d99681263548806239d49865d5dab3aef52180eea1428f70a979564736f6c634300081a0033","opcodes":"PUSH1 0x80 PUSH1 0x40 MSTORE CALLVALUE PUSH2 0x962 JUMPI PUSH2 0x2BFB DUP1 CODESIZE SUB DUP1 PUSH2 0x19 DUP2 PUSH2 0x987 JUMP JUMPDEST SWAP3 DUP4 CODECOPY DUP2 ADD PUSH2 0x200 DUP3 DUP3 SUB SLT PUSH2 0x962 JUMPI DUP2 MLOAD PUSH1 0x1 PUSH1 0x1 PUSH1 0xA0 SHL SUB DUP2 AND SWAP3 SWAP1 DUP4 SWAP1 SUB PUSH2 0x962 JUMPI PUSH1 0x20 DUP2 ADD MLOAD PUSH1 0x1 PUSH1 0x1 PUSH1 0x40 SHL SUB DUP2 GT PUSH2 0x962 JUMPI DUP3 PUSH2 0x5D SWAP2 DUP4 ADD PUSH2 0x9AC JUMP JUMPDEST PUSH1 0x40 DUP3 ADD MLOAD PUSH1 0x1 PUSH1 0x1 PUSH1 0x40 SHL SUB DUP2 GT PUSH2 0x962 JUMPI DUP4 PUSH2 0x7C SWAP2 DUP5 ADD PUSH2 0x9AC JUMP JUMPDEST PUSH1 0x60 DUP4 ADD MLOAD PUSH1 0x80 DUP5 ADD MLOAD SWAP2 SWAP5 SWAP2 PUSH1 0x1 PUSH1 0x1 PUSH1 0x40 SHL SUB DUP2 GT PUSH2 0x962 JUMPI DUP5 ADD SWAP5 DUP3 PUSH1 0x1F DUP8 ADD SLT ISZERO PUSH2 0x962 JUMPI PUSH1 0xA0 SWAP7 PUSH2 0xB1 DUP9 PUSH2 0x987 JUMP JUMPDEST DUP1 SWAP8 DUP10 DUP2 ADD SWAP2 DUP7 DUP4 GT PUSH2 0x962 JUMPI DUP2 SWAP1 JUMPDEST DUP4 DUP3 LT PUSH2 0x937 JUMPI POP POP POP POP PUSH2 0x1E0 PUSH2 0xE9 PUSH2 0xDE DUP7 DUP12 DUP11 ADD PUSH2 0xA17 JUMP JUMPDEST SWAP6 PUSH2 0x140 DUP10 ADD PUSH2 0xA17 JUMP JUMPDEST SWAP7 ADD MLOAD SWAP3 DUP2 ISZERO PUSH2 0x921 JUMPI PUSH1 0x0 DUP1 SLOAD PUSH1 0x1 PUSH1 0x1 PUSH1 0xA0 SHL SUB NOT DUP2 AND DUP5 OR DUP3 SSTORE DUP4 SWAP2 PUSH1 0x1 PUSH1 0x1 PUSH1 0xA0 SHL SUB SWAP1 SWAP2 AND SWAP1 PUSH32 0x8BE0079C531659141344CD1FD0A4F28419497F9722A3DAAFE3B4186F6B6457E0 SWAP1 DUP1 LOG3 PUSH1 0x1 DUP1 SSTORE PUSH2 0x144 PUSH2 0x967 JUMP JUMPDEST SWAP6 DUP7 MSTORE PUSH1 0x20 DUP7 ADD SWAP3 DUP4 MSTORE PUSH1 0x40 DUP7 ADD SWAP2 DUP3 MSTORE PUSH1 0x60 DUP7 ADD SWAP1 DUP2 MSTORE PUSH1 0x80 DUP7 ADD PUSH1 0x0 DUP2 MSTORE DUP10 DUP8 ADD SWAP1 PUSH1 0x0 DUP3 MSTORE PUSH1 0xC0 DUP9 ADD SWAP3 PUSH1 0x0 DUP5 MSTORE PUSH1 0xE0 DUP10 ADD SWAP5 PUSH1 0x0 DUP7 MSTORE PUSH2 0x100 DUP11 ADD SWAP7 PUSH1 0x0 DUP9 MSTORE PUSH2 0x120 DUP12 ADD SWAP11 TIMESTAMP DUP13 MSTORE PUSH2 0x140 DUP2 ADD SWAP10 DUP11 MSTORE MLOAD DUP1 MLOAD SWAP1 PUSH1 0x1 DUP1 PUSH1 0x40 SHL SUB DUP3 GT PUSH2 0x81E JUMPI PUSH1 0x3 SLOAD SWAP1 PUSH1 0x1 DUP3 DUP2 SHR SWAP3 AND DUP1 ISZERO PUSH2 0x917 JUMPI JUMPDEST PUSH1 0x20 DUP4 LT EQ PUSH2 0x7FE JUMPI DUP2 PUSH1 0x1F DUP5 SWAP4 GT PUSH2 0x8A7 JUMPI JUMPDEST POP PUSH1 0x20 SWAP1 PUSH1 0x1F DUP4 GT PUSH1 0x1 EQ PUSH2 0x83F JUMPI PUSH1 0x0 SWAP3 PUSH2 0x834 JUMPI JUMPDEST POP POP DUP2 PUSH1 0x1 SHL SWAP2 PUSH1 0x0 NOT SWAP1 PUSH1 0x3 SHL SHR NOT AND OR PUSH1 0x3 SSTORE JUMPDEST MLOAD DUP1 MLOAD SWAP1 PUSH1 0x1 PUSH1 0x1 PUSH1 0x40 SHL SUB DUP3 GT PUSH2 0x81E JUMPI PUSH1 0x4 SLOAD PUSH1 0x1 DUP2 DUP2 SHR SWAP2 AND DUP1 ISZERO PUSH2 0x814 JUMPI JUMPDEST PUSH1 0x20 DUP3 LT EQ PUSH2 0x7FE JUMPI PUSH1 0x1F DUP2 GT PUSH2 0x799 JUMPI JUMPDEST POP PUSH1 0x20 SWAP1 PUSH1 0x1F DUP4 GT PUSH1 0x1 EQ PUSH2 0x728 JUMPI PUSH1 0xFF SWAP9 SWAP8 SWAP7 SWAP6 SWAP5 SWAP4 SWAP3 SWAP2 PUSH1 0x0 SWAP2 DUP4 PUSH2 0x71D JUMPI JUMPDEST POP POP DUP2 PUSH1 0x1 SHL SWAP2 PUSH1 0x0 NOT SWAP1 PUSH1 0x3 SHL SHR NOT AND OR PUSH1 0x4 SSTORE JUMPDEST PUSH1 0x1 DUP1 PUSH1 0xA0 SHL SUB SWAP1 MLOAD AND PUSH1 0x1 DUP1 PUSH1 0xA0 SHL SUB NOT PUSH1 0x5 SLOAD AND OR PUSH1 0x5 SSTORE MLOAD PUSH1 0x6 SSTORE MLOAD PUSH1 0x7 SSTORE MLOAD PUSH1 0x8 SSTORE MLOAD PUSH1 0x9 SSTORE MLOAD AND PUSH1 0xFF NOT PUSH1 0xA SLOAD AND OR PUSH1 0xA SSTORE MLOAD SWAP3 PUSH1 0x4 DUP5 LT ISZERO PUSH2 0x707 JUMPI PUSH1 0x0 SWAP4 PUSH2 0xFF00 PUSH1 0xA SLOAD SWAP2 PUSH1 0x8 SHL AND SWAP1 PUSH2 0xFF00 NOT AND OR PUSH1 0xA SSTORE MLOAD PUSH1 0xB SSTORE MLOAD PUSH1 0xC SSTORE DUP2 JUMPDEST PUSH1 0x5 DUP2 LT ISZERO PUSH2 0x6F8 JUMPI PUSH2 0x2E1 DUP2 DUP7 PUSH2 0xA59 JUMP JUMPDEST MLOAD PUSH2 0x2EC DUP3 DUP7 PUSH2 0xA59 JUMP JUMPDEST MLOAD PUSH2 0x2F7 DUP4 DUP6 PUSH2 0xA59 JUMP JUMPDEST MLOAD PUSH3 0x15180 DUP2 MUL SWAP1 DUP1 DUP3 DIV PUSH3 0x15180 EQ SWAP1 ISZERO OR ISZERO PUSH2 0x6E4 JUMPI TIMESTAMP ADD SWAP1 DUP2 TIMESTAMP GT PUSH2 0x6E4 JUMPI PUSH2 0x321 PUSH2 0x967 JUMP JUMPDEST SWAP3 DUP4 MSTORE PUSH1 0x20 DUP4 ADD MSTORE PUSH1 0x40 DUP3 ADD MSTORE DUP4 PUSH1 0x60 DUP3 ADD MSTORE DUP4 PUSH1 0x80 DUP3 ADD MSTORE DUP4 DUP8 DUP3 ADD MSTORE DUP4 PUSH1 0xC0 DUP3 ADD MSTORE DUP4 PUSH1 0xE0 DUP3 ADD MSTORE PUSH1 0x20 PUSH2 0x356 DUP2 PUSH2 0x987 JUMP JUMPDEST DUP6 DUP2 MSTORE PUSH2 0x100 DUP4 ADD MSTORE PUSH2 0x120 DUP3 ADD DUP6 SWAP1 MSTORE PUSH2 0x140 DUP3 ADD DUP6 SWAP1 MSTORE DUP2 MLOAD DUP1 MLOAD SWAP1 PUSH1 0x1 PUSH1 0x1 PUSH1 0x40 SHL SUB DUP3 GT PUSH2 0x6D0 JUMPI PUSH1 0xB DUP6 MUL PUSH1 0xD ADD SLOAD PUSH1 0x1 DUP2 DUP2 SHR SWAP2 AND DUP1 ISZERO PUSH2 0x6C6 JUMPI JUMPDEST DUP5 DUP3 LT EQ PUSH2 0x6B2 JUMPI SWAP1 DUP2 PUSH1 0x1F DUP5 SWAP4 GT PUSH2 0x661 JUMPI JUMPDEST POP DUP4 SWAP1 PUSH1 0x1F DUP4 GT PUSH1 0x1 EQ PUSH2 0x5F2 JUMPI DUP9 SWAP3 PUSH2 0x5E7 JUMPI JUMPDEST POP POP DUP2 PUSH1 0x1 SHL SWAP2 PUSH1 0x0 NOT SWAP1 PUSH1 0x3 SHL SHR NOT AND OR PUSH1 0xB DUP5 MUL PUSH1 0xD ADD SSTORE JUMPDEST PUSH1 0x20 DUP3 ADD MLOAD PUSH1 0xE PUSH1 0xB DUP6 MUL ADD SSTORE PUSH1 0x40 DUP3 ADD MLOAD PUSH1 0xF PUSH1 0xB DUP6 MUL ADD SSTORE PUSH1 0x10 PUSH1 0xB DUP5 MUL ADD PUSH1 0x60 DUP4 ADD MLOAD PUSH1 0x6 DUP2 LT ISZERO PUSH2 0x5D3 JUMPI DUP2 SLOAD PUSH1 0xFF NOT AND PUSH1 0xFF SWAP2 SWAP1 SWAP2 AND OR SWAP1 SSTORE PUSH1 0x80 DUP3 ADD MLOAD PUSH1 0x11 PUSH1 0xB DUP6 MUL SWAP1 DUP2 ADD SWAP2 SWAP1 SWAP2 SSTORE DUP9 DUP4 ADD MLOAD PUSH1 0x12 DUP3 ADD SSTORE PUSH1 0xC0 DUP4 ADD MLOAD PUSH1 0x13 DUP3 ADD SSTORE PUSH1 0xE0 DUP4 ADD MLOAD PUSH1 0x14 DUP3 ADD SSTORE PUSH2 0x100 DUP4 ADD MLOAD DUP1 MLOAD PUSH1 0x15 SWAP1 SWAP3 ADD SWAP3 SWAP1 PUSH1 0x1 PUSH1 0x1 PUSH1 0x40 SHL SUB DUP4 GT PUSH2 0x5BF JUMPI DUP4 SLOAD PUSH1 0x1 DUP2 DUP2 SHR SWAP2 AND DUP1 ISZERO PUSH2 0x5B5 JUMPI JUMPDEST DUP4 DUP3 LT EQ PUSH2 0x5A1 JUMPI PUSH1 0x1F DUP2 GT PUSH2 0x55E JUMPI JUMPDEST POP DUP2 PUSH1 0x1F DUP5 GT PUSH1 0x1 EQ PUSH2 0x4F0 JUMPI POP SWAP2 DUP1 PUSH2 0x140 SWAP5 SWAP3 PUSH1 0x1 SWAP8 SWAP7 SWAP5 DUP11 SWAP3 PUSH2 0x4E5 JUMPI JUMPDEST POP POP PUSH1 0x0 NOT PUSH1 0x3 DUP4 SWAP1 SHL SHR NOT AND SWAP1 DUP7 SHL OR SWAP1 SSTORE JUMPDEST PUSH1 0x16 PUSH1 0xB DUP5 MUL ADD PUSH1 0xFF PUSH2 0x120 DUP4 ADD MLOAD AND PUSH1 0xFF NOT DUP3 SLOAD AND OR SWAP1 SSTORE ADD MLOAD PUSH1 0x17 PUSH1 0xB DUP4 MUL ADD SSTORE ADD PUSH2 0x2CE JUMP JUMPDEST ADD MLOAD SWAP1 POP CODESIZE DUP1 PUSH2 0x4A8 JUMP JUMPDEST SWAP2 SWAP1 PUSH1 0x1F NOT DUP5 AND DUP6 DUP11 MSTORE DUP4 DUP11 KECCAK256 SWAP4 DUP11 SWAP1 JUMPDEST DUP3 DUP3 LT PUSH2 0x546 JUMPI POP POP SWAP3 PUSH1 0x1 SWAP8 SWAP7 SWAP5 SWAP2 SWAP3 DUP9 SWAP4 DUP4 PUSH2 0x140 SWAP9 SWAP7 LT PUSH2 0x52D JUMPI JUMPDEST POP POP POP DUP2 SHL ADD SWAP1 SSTORE PUSH2 0x4BC JUMP JUMPDEST ADD MLOAD PUSH1 0x0 NOT PUSH1 0xF8 DUP5 PUSH1 0x3 SHL AND SHR NOT AND SWAP1 SSTORE CODESIZE DUP1 DUP1 PUSH2 0x520 JUMP JUMPDEST DUP1 PUSH1 0x1 DUP7 SWAP8 DUP3 SWAP5 SWAP8 DUP8 ADD MLOAD DUP2 SSTORE ADD SWAP7 ADD SWAP5 ADD SWAP1 PUSH2 0x501 JUMP JUMPDEST DUP5 DUP10 MSTORE DUP3 DUP10 KECCAK256 PUSH1 0x1F DUP6 ADD PUSH1 0x5 SHR DUP2 ADD SWAP2 DUP5 DUP7 LT PUSH2 0x597 JUMPI JUMPDEST PUSH1 0x1F ADD PUSH1 0x5 SHR ADD SWAP1 JUMPDEST DUP2 DUP2 LT PUSH2 0x58C JUMPI POP PUSH2 0x487 JUMP JUMPDEST DUP10 DUP2 SSTORE PUSH1 0x1 ADD PUSH2 0x57F JUMP JUMPDEST SWAP1 SWAP2 POP DUP2 SWAP1 PUSH2 0x576 JUMP JUMPDEST PUSH4 0x4E487B71 PUSH1 0xE0 SHL DUP10 MSTORE PUSH1 0x22 PUSH1 0x4 MSTORE PUSH1 0x24 DUP10 REVERT JUMPDEST SWAP1 PUSH1 0x7F AND SWAP1 PUSH2 0x476 JUMP JUMPDEST PUSH4 0x4E487B71 PUSH1 0xE0 SHL DUP9 MSTORE PUSH1 0x41 PUSH1 0x4 MSTORE PUSH1 0x24 DUP9 REVERT JUMPDEST PUSH4 0x4E487B71 PUSH1 0xE0 SHL DUP8 MSTORE PUSH1 0x21 PUSH1 0x4 MSTORE PUSH1 0x24 DUP8 REVERT JUMPDEST ADD MLOAD SWAP1 POP CODESIZE DUP1 PUSH2 0x3C1 JUMP JUMPDEST PUSH1 0xD PUSH1 0xB DUP9 MUL ADD DUP10 MSTORE DUP5 DUP10 KECCAK256 SWAP3 POP PUSH1 0x1F NOT DUP5 AND DUP10 JUMPDEST DUP7 DUP3 DUP3 LT PUSH2 0x64B JUMPI POP POP SWAP1 DUP5 PUSH1 0x1 SWAP6 SWAP5 SWAP4 SWAP3 LT PUSH2 0x632 JUMPI JUMPDEST POP POP POP DUP2 SHL ADD PUSH1 0xB DUP5 MUL PUSH1 0xD ADD SSTORE PUSH2 0x3DC JUMP JUMPDEST ADD MLOAD PUSH1 0x0 NOT PUSH1 0xF8 DUP5 PUSH1 0x3 SHL AND SHR NOT AND SWAP1 SSTORE CODESIZE DUP1 DUP1 PUSH2 0x61F JUMP JUMPDEST PUSH1 0x1 DUP6 SWAP7 DUP3 SWAP4 SWAP7 DUP7 ADD MLOAD DUP2 SSTORE ADD SWAP6 ADD SWAP4 ADD PUSH2 0x607 JUMP JUMPDEST SWAP1 SWAP2 POP PUSH1 0xB DUP7 MUL PUSH1 0xD ADD DUP9 MSTORE DUP4 DUP9 KECCAK256 PUSH1 0x1F DUP5 ADD PUSH1 0x5 SHR DUP2 ADD DUP6 DUP6 LT PUSH2 0x6AB JUMPI JUMPDEST SWAP1 DUP5 SWAP4 SWAP3 SWAP2 JUMPDEST PUSH1 0x1F DUP4 ADD PUSH1 0x5 SHR DUP3 ADD DUP2 LT PUSH2 0x69D JUMPI POP POP PUSH2 0x3AC JUMP JUMPDEST DUP11 DUP2 SSTORE DUP6 SWAP5 POP PUSH1 0x1 ADD PUSH2 0x687 JUMP JUMPDEST POP DUP1 PUSH2 0x681 JUMP JUMPDEST PUSH4 0x4E487B71 PUSH1 0xE0 SHL DUP9 MSTORE PUSH1 0x22 PUSH1 0x4 MSTORE PUSH1 0x24 DUP9 REVERT JUMPDEST SWAP1 PUSH1 0x7F AND SWAP1 PUSH2 0x398 JUMP JUMPDEST PUSH4 0x4E487B71 PUSH1 0xE0 SHL DUP8 MSTORE PUSH1 0x41 PUSH1 0x4 MSTORE PUSH1 0x24 DUP8 REVERT JUMPDEST PUSH4 0x4E487B71 PUSH1 0xE0 SHL DUP7 MSTORE PUSH1 0x11 PUSH1 0x4 MSTORE PUSH1 0x24 DUP7 REVERT JUMPDEST PUSH1 0x40 MLOAD PUSH2 0x217A SWAP1 DUP2 PUSH2 0xA81 DUP3 CODECOPY RETURN JUMPDEST PUSH4 0x4E487B71 PUSH1 0xE0 SHL PUSH1 0x0 MSTORE PUSH1 0x21 PUSH1 0x4 MSTORE PUSH1 0x24 PUSH1 0x0 REVERT JUMPDEST ADD MLOAD SWAP1 POP CODESIZE DUP1 PUSH2 0x254 JUMP JUMPDEST SWAP1 PUSH1 0x1F NOT DUP4 AND SWAP2 PUSH1 0x4 PUSH1 0x0 MSTORE DUP2 PUSH1 0x0 KECCAK256 SWAP3 PUSH1 0x0 JUMPDEST DUP2 DUP2 LT PUSH2 0x781 JUMPI POP SWAP2 PUSH1 0x1 SWAP4 SWAP2 DUP6 PUSH1 0xFF SWAP13 SWAP12 SWAP11 SWAP10 SWAP9 SWAP8 SWAP7 SWAP5 LT PUSH2 0x768 JUMPI JUMPDEST POP POP POP DUP2 SHL ADD PUSH1 0x4 SSTORE PUSH2 0x26A JUMP JUMPDEST ADD MLOAD PUSH1 0x0 NOT PUSH1 0xF8 DUP5 PUSH1 0x3 SHL AND SHR NOT AND SWAP1 SSTORE CODESIZE DUP1 DUP1 PUSH2 0x75A JUMP JUMPDEST SWAP3 SWAP4 PUSH1 0x20 PUSH1 0x1 DUP2 SWAP3 DUP8 DUP7 ADD MLOAD DUP2 SSTORE ADD SWAP6 ADD SWAP4 ADD PUSH2 0x73C JUMP JUMPDEST PUSH1 0x4 PUSH1 0x0 MSTORE PUSH32 0x8A35ACFBC15FF81A39AE7D344FD709F28E8600B4AA8C65C6B64BFE7FE36BD19B PUSH1 0x1F DUP5 ADD PUSH1 0x5 SHR DUP2 ADD SWAP2 PUSH1 0x20 DUP6 LT PUSH2 0x7F4 JUMPI JUMPDEST PUSH1 0x1F ADD PUSH1 0x5 SHR ADD SWAP1 JUMPDEST DUP2 DUP2 LT PUSH2 0x7E8 JUMPI POP PUSH2 0x232 JUMP JUMPDEST PUSH1 0x0 DUP2 SSTORE PUSH1 0x1 ADD PUSH2 0x7DB JUMP JUMPDEST SWAP1 SWAP2 POP DUP2 SWAP1 PUSH2 0x7D2 JUMP JUMPDEST PUSH4 0x4E487B71 PUSH1 0xE0 SHL PUSH1 0x0 MSTORE PUSH1 0x22 PUSH1 0x4 MSTORE PUSH1 0x24 PUSH1 0x0 REVERT JUMPDEST SWAP1 PUSH1 0x7F AND SWAP1 PUSH2 0x220 JUMP JUMPDEST PUSH4 0x4E487B71 PUSH1 0xE0 SHL PUSH1 0x0 MSTORE PUSH1 0x41 PUSH1 0x4 MSTORE PUSH1 0x24 PUSH1 0x0 REVERT JUMPDEST ADD MLOAD SWAP1 POP CODESIZE DUP1 PUSH2 0x1E7 JUMP JUMPDEST PUSH1 0x3 PUSH1 0x0 SWAP1 DUP2 MSTORE DUP3 DUP2 KECCAK256 SWAP4 POP PUSH1 0x1F NOT DUP6 AND SWAP1 JUMPDEST DUP2 DUP2 LT PUSH2 0x88F JUMPI POP SWAP1 DUP5 PUSH1 0x1 SWAP6 SWAP5 SWAP4 SWAP3 LT PUSH2 0x876 JUMPI JUMPDEST POP POP POP DUP2 SHL ADD PUSH1 0x3 SSTORE PUSH2 0x1FD JUMP JUMPDEST ADD MLOAD PUSH1 0x0 NOT PUSH1 0xF8 DUP5 PUSH1 0x3 SHL AND SHR NOT AND SWAP1 SSTORE CODESIZE DUP1 DUP1 PUSH2 0x868 JUMP JUMPDEST SWAP3 SWAP4 PUSH1 0x20 PUSH1 0x1 DUP2 SWAP3 DUP8 DUP7 ADD MLOAD DUP2 SSTORE ADD SWAP6 ADD SWAP4 ADD PUSH2 0x852 JUMP JUMPDEST PUSH1 0x3 PUSH1 0x0 MSTORE SWAP1 SWAP2 POP PUSH32 0xC2575A0E9E593C00F959F8C92F12DB2869C3395A3B0502D05E2516446F71F85B PUSH1 0x1F DUP5 ADD PUSH1 0x5 SHR DUP2 ADD SWAP2 PUSH1 0x20 DUP6 LT PUSH2 0x90D JUMPI JUMPDEST SWAP1 PUSH1 0x1F DUP6 SWAP5 SWAP4 SWAP3 ADD PUSH1 0x5 SHR ADD SWAP1 JUMPDEST DUP2 DUP2 LT PUSH2 0x8FE JUMPI POP PUSH2 0x1D0 JUMP JUMPDEST PUSH1 0x0 DUP2 SSTORE DUP5 SWAP4 POP PUSH1 0x1 ADD PUSH2 0x8F1 JUMP JUMPDEST SWAP1 SWAP2 POP DUP2 SWAP1 PUSH2 0x8E3 JUMP JUMPDEST SWAP2 PUSH1 0x7F AND SWAP2 PUSH2 0x1BC JUMP JUMPDEST PUSH4 0x1E4FBDF7 PUSH1 0xE0 SHL PUSH1 0x0 MSTORE PUSH1 0x0 PUSH1 0x4 MSTORE PUSH1 0x24 PUSH1 0x0 REVERT JUMPDEST DUP2 MLOAD PUSH1 0x1 PUSH1 0x1 PUSH1 0x40 SHL SUB DUP2 GT PUSH2 0x962 JUMPI PUSH1 0x20 SWAP2 PUSH2 0x957 DUP11 DUP5 SWAP4 DUP8 ADD PUSH2 0x9AC JUMP JUMPDEST DUP2 MSTORE ADD SWAP2 ADD SWAP1 PUSH2 0xC1 JUMP JUMPDEST PUSH1 0x0 DUP1 REVERT JUMPDEST PUSH1 0x40 MLOAD SWAP1 PUSH2 0x160 DUP3 ADD PUSH1 0x1 PUSH1 0x1 PUSH1 0x40 SHL SUB DUP2 GT DUP4 DUP3 LT OR PUSH2 0x81E JUMPI PUSH1 0x40 MSTORE JUMP JUMPDEST PUSH1 0x40 MLOAD SWAP2 SWAP1 PUSH1 0x1F ADD PUSH1 0x1F NOT AND DUP3 ADD PUSH1 0x1 PUSH1 0x1 PUSH1 0x40 SHL SUB DUP2 GT DUP4 DUP3 LT OR PUSH2 0x81E JUMPI PUSH1 0x40 MSTORE JUMP JUMPDEST DUP2 PUSH1 0x1F DUP3 ADD SLT ISZERO PUSH2 0x962 JUMPI DUP1 MLOAD SWAP1 PUSH1 0x1 PUSH1 0x1 PUSH1 0x40 SHL SUB DUP3 GT PUSH2 0x81E JUMPI PUSH2 0x9DB PUSH1 0x1F DUP4 ADD PUSH1 0x1F NOT AND PUSH1 0x20 ADD PUSH2 0x987 JUMP JUMPDEST SWAP3 DUP3 DUP5 MSTORE PUSH1 0x20 DUP4 DUP4 ADD ADD GT PUSH2 0x962 JUMPI PUSH1 0x0 JUMPDEST DUP3 DUP2 LT PUSH2 0xA02 JUMPI POP POP PUSH1 0x20 PUSH1 0x0 SWAP2 DUP4 ADD ADD MSTORE SWAP1 JUMP JUMPDEST DUP1 PUSH1 0x20 DUP1 SWAP3 DUP5 ADD ADD MLOAD DUP3 DUP3 DUP8 ADD ADD MSTORE ADD PUSH2 0x9ED JUMP JUMPDEST SWAP1 DUP1 PUSH1 0x1F DUP4 ADD SLT ISZERO PUSH2 0x962 JUMPI PUSH2 0xA2D PUSH1 0xA0 PUSH2 0x987 JUMP JUMPDEST DUP1 SWAP3 PUSH1 0xA0 DUP2 ADD SWAP3 DUP4 GT PUSH2 0x962 JUMPI SWAP1 JUMPDEST DUP3 DUP3 LT PUSH2 0xA49 JUMPI POP POP POP SWAP1 JUMP JUMPDEST DUP2 MLOAD DUP2 MSTORE PUSH1 0x20 SWAP2 DUP3 ADD SWAP2 ADD PUSH2 0xA3C JUMP JUMPDEST SWAP1 PUSH1 0x5 DUP2 LT ISZERO PUSH2 0xA6A JUMPI PUSH1 0x5 SHL ADD SWAP1 JUMP JUMPDEST PUSH4 0x4E487B71 PUSH1 0xE0 SHL PUSH1 0x0 MSTORE PUSH1 0x32 PUSH1 0x4 MSTORE PUSH1 0x24 PUSH1 0x0 REVERT INVALID PUSH1 0x80 DUP1 PUSH1 0x40 MSTORE PUSH1 0x4 CALLDATASIZE LT ISZERO PUSH2 0x13 JUMPI PUSH1 0x0 DUP1 REVERT JUMPDEST PUSH1 0x0 CALLDATALOAD PUSH1 0xE0 SHR SWAP1 DUP2 PUSH4 0x31B3677 EQ PUSH2 0x12AA JUMPI POP DUP1 PUSH4 0xA5480D1 EQ PUSH2 0x11DE JUMPI DUP1 PUSH4 0x20577041 EQ PUSH2 0x11C1 JUMPI DUP1 PUSH4 0x2442E1CB EQ PUSH2 0x101C JUMPI DUP1 PUSH4 0x34F6FD87 EQ PUSH2 0xC16 JUMPI DUP1 PUSH4 0x3658DA1C EQ PUSH2 0xB99 JUMPI DUP1 PUSH4 0x3AB34290 EQ PUSH2 0xB7C JUMPI DUP1 PUSH4 0x3BCAEA02 EQ PUSH2 0xB24 JUMPI DUP1 PUSH4 0x476A119B EQ PUSH2 0xA8E JUMPI DUP1 PUSH4 0x47FF62C6 EQ PUSH2 0xA4C JUMPI DUP1 PUSH4 0x4B959A4F EQ PUSH2 0x9AC JUMPI DUP1 PUSH4 0x5C975ABB EQ PUSH2 0x989 JUMPI DUP1 PUSH4 0x5D306F34 EQ PUSH2 0x95E JUMPI DUP1 PUSH4 0x715018A6 EQ PUSH2 0x905 JUMPI DUP1 PUSH4 0x8DA5CB5B EQ PUSH2 0x8DC JUMPI DUP1 PUSH4 0xB1610D7E EQ PUSH2 0x8BE JUMPI DUP1 PUSH4 0xB5545A3C EQ PUSH2 0x7A6 JUMPI DUP1 PUSH4 0xC4176338 EQ PUSH2 0x615 JUMPI DUP1 PUSH4 0xC93EF58B EQ PUSH2 0x59F JUMPI DUP1 PUSH4 0xC9D27AFE EQ PUSH2 0x512 JUMPI DUP1 PUSH4 0xD2D30010 EQ PUSH2 0x345 JUMPI DUP1 PUSH4 0xE89E4ED6 EQ PUSH2 0x26B JUMPI DUP1 PUSH4 0xEDD5271E EQ PUSH2 0x1B5 JUMPI PUSH4 0xF2FDE38B EQ PUSH2 0x127 JUMPI PUSH1 0x0 DUP1 REVERT JUMPDEST CALLVALUE PUSH2 0x1B0 JUMPI PUSH1 0x20 CALLDATASIZE PUSH1 0x3 NOT ADD SLT PUSH2 0x1B0 JUMPI PUSH2 0x140 PUSH2 0x133F JUMP JUMPDEST PUSH2 0x148 PUSH2 0x20F5 JUMP JUMPDEST PUSH1 0x1 PUSH1 0x1 PUSH1 0xA0 SHL SUB AND DUP1 ISZERO PUSH2 0x19A JUMPI PUSH1 0x0 DUP1 SLOAD PUSH1 0x1 PUSH1 0x1 PUSH1 0xA0 SHL SUB NOT DUP2 AND DUP4 OR DUP3 SSTORE PUSH1 0x1 PUSH1 0x1 PUSH1 0xA0 SHL SUB AND SWAP1 PUSH32 0x8BE0079C531659141344CD1FD0A4F28419497F9722A3DAAFE3B4186F6B6457E0 SWAP1 DUP1 LOG3 STOP JUMPDEST PUSH4 0x1E4FBDF7 PUSH1 0xE0 SHL PUSH1 0x0 MSTORE PUSH1 0x0 PUSH1 0x4 MSTORE PUSH1 0x24 PUSH1 0x0 REVERT JUMPDEST PUSH1 0x0 DUP1 REVERT JUMPDEST CALLVALUE PUSH2 0x1B0 JUMPI PUSH1 0x0 CALLDATASIZE PUSH1 0x3 NOT ADD SLT PUSH2 0x1B0 JUMPI PUSH2 0x1CE PUSH2 0x146E JUMP JUMPDEST PUSH2 0x160 PUSH2 0x1D9 PUSH2 0x1527 JUMP JUMPDEST PUSH1 0x1 DUP1 PUSH1 0xA0 SHL SUB PUSH1 0x5 SLOAD AND SWAP1 PUSH1 0x6 SLOAD PUSH2 0x25B PUSH1 0x7 SLOAD PUSH1 0x8 SLOAD PUSH1 0x9 SLOAD SWAP1 PUSH1 0xA SLOAD SWAP3 PUSH1 0xB SLOAD SWAP6 PUSH2 0x227 PUSH1 0xC SLOAD SWAP9 PUSH2 0x219 PUSH1 0x40 MLOAD SWAP14 DUP14 DUP16 SWAP15 DUP16 SWAP1 DUP2 MSTORE ADD SWAP1 PUSH2 0x1362 JUMP JUMPDEST DUP13 DUP2 SUB PUSH1 0x20 DUP15 ADD MSTORE SWAP1 PUSH2 0x1362 JUMP JUMPDEST SWAP9 PUSH1 0x40 DUP12 ADD MSTORE PUSH1 0x60 DUP11 ADD MSTORE PUSH1 0x80 DUP10 ADD MSTORE PUSH1 0xA0 DUP9 ADD MSTORE PUSH1 0xC0 DUP8 ADD MSTORE PUSH1 0xFF DUP2 AND PUSH1 0xE0 DUP8 ADD MSTORE PUSH1 0xFF PUSH2 0x100 DUP8 ADD SWAP2 PUSH1 0x8 SHR AND PUSH2 0x13CB JUMP JUMPDEST PUSH2 0x120 DUP5 ADD MSTORE PUSH2 0x140 DUP4 ADD MSTORE SUB SWAP1 RETURN JUMPDEST CALLVALUE PUSH2 0x1B0 JUMPI PUSH1 0x20 CALLDATASIZE PUSH1 0x3 NOT ADD SLT PUSH2 0x1B0 JUMPI PUSH1 0x4 CALLDATALOAD PUSH1 0x5 DUP2 LT ISZERO PUSH2 0x1B0 JUMPI PUSH2 0x300 PUSH1 0xB PUSH1 0x20 SWAP3 MUL PUSH2 0x29D DUP2 PUSH1 0xD ADD PUSH2 0x15BE JUMP JUMPDEST PUSH2 0x334 PUSH1 0xE DUP4 ADD SLOAD SWAP2 DUP4 PUSH1 0xF DUP2 ADD SLOAD PUSH1 0xFF PUSH1 0x10 DUP4 ADD SLOAD AND PUSH1 0x11 DUP4 ADD SLOAD PUSH1 0x12 DUP5 ADD SLOAD SWAP1 PUSH2 0x312 PUSH1 0x13 DUP7 ADD SLOAD SWAP4 PUSH1 0x14 DUP8 ADD SLOAD SWAP6 PUSH1 0x17 PUSH1 0xFF PUSH1 0x16 PUSH2 0x2E0 PUSH1 0x15 DUP13 ADD PUSH2 0x15BE JUMP JUMPDEST SWAP11 ADD SLOAD AND SWAP13 ADD SLOAD SWAP11 PUSH1 0x40 MLOAD SWAP15 DUP16 SWAP15 DUP16 SWAP12 PUSH2 0x160 DUP14 MSTORE PUSH2 0x160 DUP14 ADD SWAP1 PUSH2 0x1362 JUMP JUMPDEST SWAP11 ADD MSTORE PUSH1 0x40 DUP14 ADD MSTORE PUSH1 0x60 DUP13 ADD SWAP1 PUSH2 0x13A3 JUMP JUMPDEST PUSH1 0x80 DUP11 ADD MSTORE PUSH1 0xA0 DUP10 ADD MSTORE PUSH1 0xC0 DUP9 ADD MSTORE PUSH1 0xE0 DUP8 ADD MSTORE DUP6 DUP3 SUB PUSH2 0x100 DUP8 ADD MSTORE PUSH2 0x1362 JUMP JUMPDEST SWAP2 PUSH2 0x120 DUP5 ADD MSTORE PUSH2 0x140 DUP4 ADD MSTORE SUB SWAP1 RETURN JUMPDEST CALLVALUE PUSH2 0x1B0 JUMPI PUSH1 0x20 CALLDATASIZE PUSH1 0x3 NOT ADD SLT PUSH2 0x1B0 JUMPI PUSH2 0x35E PUSH2 0x133F JUMP JUMPDEST PUSH1 0x40 MLOAD SWAP1 PUSH2 0x36B DUP3 PUSH2 0x142F JUMP JUMPDEST PUSH1 0x0 DUP3 MSTORE PUSH1 0x0 PUSH1 0x20 DUP4 ADD MSTORE PUSH1 0x0 PUSH1 0x40 DUP4 ADD MSTORE PUSH1 0x0 PUSH1 0x60 DUP4 ADD MSTORE PUSH1 0x0 PUSH2 0x100 PUSH1 0xA0 SWAP4 PUSH1 0x40 MLOAD PUSH2 0x399 DUP7 DUP3 PUSH2 0x144C JUMP JUMPDEST DUP6 CALLDATASIZE DUP3 CALLDATACOPY PUSH1 0x80 DUP3 ADD MSTORE DUP3 DUP6 DUP3 ADD MSTORE DUP3 PUSH1 0xC0 DUP3 ADD MSTORE DUP3 PUSH1 0xE0 DUP3 ADD MSTORE ADD MSTORE PUSH1 0x1 DUP1 PUSH1 0xA0 SHL SUB AND PUSH1 0x0 MSTORE PUSH1 0x44 PUSH1 0x20 MSTORE PUSH1 0x40 PUSH1 0x0 KECCAK256 SWAP1 PUSH1 0x40 MLOAD SWAP1 PUSH2 0x3D8 DUP3 PUSH2 0x142F JUMP JUMPDEST DUP3 SLOAD DUP3 MSTORE PUSH1 0x1 DUP4 ADD SLOAD SWAP1 PUSH1 0x20 DUP4 ADD SWAP2 DUP3 MSTORE PUSH1 0x2 DUP5 ADD SLOAD SWAP4 PUSH1 0x40 DUP5 ADD SWAP5 DUP6 MSTORE PUSH1 0xFF PUSH1 0x3 DUP3 ADD SLOAD AND PUSH2 0x40C PUSH1 0x60 DUP7 ADD SWAP2 DUP3 PUSH2 0x168D JUMP JUMPDEST PUSH2 0x4BD PUSH1 0x40 MLOAD SWAP2 PUSH1 0xFF PUSH1 0x4 DUP6 ADD SLOAD DUP2 DUP2 AND ISZERO ISZERO DUP6 MSTORE DUP2 DUP2 PUSH1 0x8 SHR AND ISZERO ISZERO PUSH1 0x20 DUP7 ADD MSTORE DUP2 DUP2 PUSH1 0x10 SHR AND ISZERO ISZERO PUSH1 0x40 DUP7 ADD MSTORE DUP2 DUP2 PUSH1 0x18 SHR AND ISZERO ISZERO PUSH1 0x60 DUP7 ADD MSTORE PUSH1 0x20 SHR AND ISZERO ISZERO PUSH1 0x80 DUP5 ADD MSTORE PUSH2 0x45D DUP6 DUP5 PUSH2 0x144C JUMP JUMPDEST PUSH1 0x80 DUP8 ADD SWAP3 DUP4 MSTORE PUSH1 0x5 DUP5 ADD SLOAD SWAP5 DUP8 ADD SWAP8 PUSH1 0xFF DUP7 AND DUP10 MSTORE PUSH1 0x6 PUSH1 0xC0 DUP10 ADD SWAP6 PUSH1 0xFF DUP9 PUSH1 0x8 SHR AND ISZERO ISZERO DUP8 MSTORE PUSH1 0xFF PUSH1 0xE0 DUP12 ADD SWAP9 PUSH1 0x10 SHR AND ISZERO ISZERO DUP9 MSTORE ADD SLOAD SWAP7 PUSH2 0x100 DUP10 ADD SWAP8 DUP9 MSTORE PUSH1 0x40 MLOAD SWAP9 MLOAD DUP10 MSTORE MLOAD PUSH1 0x20 DUP10 ADD MSTORE MLOAD PUSH1 0x40 DUP9 ADD MSTORE MLOAD PUSH1 0x60 DUP8 ADD SWAP1 PUSH2 0x1355 JUMP JUMPDEST MLOAD SWAP5 PUSH1 0x0 PUSH1 0x80 DUP7 ADD JUMPDEST PUSH1 0x5 DUP3 LT PUSH2 0x4FA JUMPI POP POP MLOAD PUSH1 0xFF AND PUSH2 0x120 DUP6 ADD MSTORE MLOAD ISZERO ISZERO PUSH2 0x140 DUP5 ADD MSTORE MLOAD ISZERO ISZERO PUSH2 0x160 DUP4 ADD MSTORE MLOAD PUSH2 0x180 DUP3 ADD MSTORE PUSH2 0x1A0 SWAP2 POP RETURN JUMPDEST PUSH1 0x20 DUP1 PUSH1 0x1 SWAP3 DUP11 MLOAD ISZERO ISZERO DUP2 MSTORE ADD SWAP9 ADD SWAP2 ADD SWAP1 SWAP7 PUSH2 0x4C6 JUMP JUMPDEST CALLVALUE PUSH2 0x1B0 JUMPI PUSH1 0x40 CALLDATASIZE PUSH1 0x3 NOT ADD SLT PUSH2 0x1B0 JUMPI PUSH1 0x24 CALLDATALOAD DUP1 ISZERO ISZERO DUP2 SUB PUSH2 0x1B0 JUMPI CALLER PUSH1 0x0 MSTORE PUSH1 0x44 PUSH1 0x20 MSTORE PUSH1 0x40 PUSH1 0x0 KECCAK256 SLOAD ISZERO PUSH2 0x58E JUMPI PUSH1 0xFF PUSH1 0xA SLOAD PUSH1 0x8 SHR AND PUSH1 0x4 DUP2 LT ISZERO PUSH2 0x578 JUMPI PUSH2 0x567 JUMPI PUSH2 0x565 SWAP1 PUSH1 0x4 CALLDATALOAD PUSH2 0x1966 JUMP JUMPDEST STOP JUMPDEST PUSH4 0x219A945B PUSH1 0xE1 SHL PUSH1 0x0 MSTORE PUSH1 0x4 PUSH1 0x0 REVERT JUMPDEST PUSH4 0x4E487B71 PUSH1 0xE0 SHL PUSH1 0x0 MSTORE PUSH1 0x21 PUSH1 0x4 MSTORE PUSH1 0x24 PUSH1 0x0 REVERT JUMPDEST PUSH4 0x52CC575F PUSH1 0xE1 SHL PUSH1 0x0 MSTORE PUSH1 0x4 PUSH1 0x0 REVERT JUMPDEST CALLVALUE PUSH2 0x1B0 JUMPI PUSH1 0x0 CALLDATASIZE PUSH1 0x3 NOT ADD SLT PUSH2 0x1B0 JUMPI CALLER PUSH1 0x0 MSTORE PUSH1 0x44 PUSH1 0x20 MSTORE PUSH1 0x40 PUSH1 0x0 KECCAK256 SLOAD ISZERO PUSH2 0x58E JUMPI PUSH3 0x93A80 TIMESTAMP ADD DUP1 TIMESTAMP GT PUSH2 0x5FF JUMPI PUSH1 0x40 MLOAD SWAP1 DUP2 MSTORE PUSH32 0x3D4A468B9058AF86D7283A57423506C1F897B6FA8BF9058684A02D55E9360101 PUSH1 0x20 CALLER SWAP3 LOG2 STOP JUMPDEST PUSH4 0x4E487B71 PUSH1 0xE0 SHL PUSH1 0x0 MSTORE PUSH1 0x11 PUSH1 0x4 MSTORE PUSH1 0x24 PUSH1 0x0 REVERT JUMPDEST CALLVALUE PUSH2 0x1B0 JUMPI PUSH1 0x0 CALLDATASIZE PUSH1 0x3 NOT ADD SLT PUSH2 0x1B0 JUMPI PUSH1 0x0 PUSH2 0x140 PUSH1 0x40 MLOAD PUSH2 0x637 DUP2 PUSH2 0x1412 JUMP JUMPDEST PUSH1 0x60 DUP2 MSTORE PUSH1 0x60 PUSH1 0x20 DUP3 ADD MSTORE DUP3 PUSH1 0x40 DUP3 ADD MSTORE DUP3 PUSH1 0x60 DUP3 ADD MSTORE DUP3 PUSH1 0x80 DUP3 ADD MSTORE DUP3 PUSH1 0xA0 DUP3 ADD MSTORE DUP3 PUSH1 0xC0 DUP3 ADD MSTORE DUP3 PUSH1 0xE0 DUP3 ADD MSTORE DUP3 PUSH2 0x100 DUP3 ADD MSTORE DUP3 PUSH2 0x120 DUP3 ADD MSTORE ADD MSTORE PUSH1 0x40 MLOAD PUSH2 0x682 DUP2 PUSH2 0x1412 JUMP JUMPDEST PUSH2 0x68A PUSH2 0x146E JUMP JUMPDEST DUP2 MSTORE PUSH2 0x694 PUSH2 0x1527 JUMP JUMPDEST PUSH1 0x20 DUP3 ADD SWAP1 DUP2 MSTORE PUSH1 0x1 DUP1 PUSH1 0xA0 SHL SUB PUSH1 0x5 SLOAD AND PUSH1 0x40 DUP4 ADD SWAP1 DUP2 MSTORE PUSH1 0x6 SLOAD SWAP2 PUSH1 0x60 DUP5 ADD SWAP3 DUP4 MSTORE PUSH1 0x7 SLOAD SWAP1 PUSH1 0x80 DUP6 ADD SWAP2 DUP3 MSTORE PUSH1 0x8 SLOAD SWAP4 PUSH1 0xA0 DUP7 ADD SWAP5 DUP6 MSTORE PUSH1 0x9 SLOAD PUSH1 0xC0 DUP8 ADD SWAP1 DUP2 MSTORE PUSH1 0xA SLOAD PUSH1 0xFF PUSH1 0xE0 DUP10 ADD SWAP2 DUP2 DUP2 AND DUP4 MSTORE PUSH1 0x8 SHR AND SWAP1 PUSH2 0x100 DUP10 ADD SWAP3 PUSH1 0x4 DUP4 LT ISZERO PUSH2 0x578 JUMPI PUSH2 0x744 SWAP9 DUP11 SWAP8 PUSH2 0x794 SWAP7 PUSH1 0xFF SWAP6 DUP8 MSTORE PUSH2 0x758 PUSH1 0xB SLOAD SWAP10 PUSH2 0x120 DUP13 ADD SWAP11 DUP12 MSTORE PUSH2 0x140 PUSH1 0xC SLOAD SWAP13 ADD SWAP12 DUP13 MSTORE PUSH1 0x40 MLOAD SWAP15 DUP16 SWAP15 DUP16 SWAP2 PUSH1 0x20 DUP4 MSTORE MLOAD PUSH2 0x160 PUSH1 0x20 DUP5 ADD MSTORE PUSH2 0x180 DUP4 ADD SWAP1 PUSH2 0x1362 JUMP JUMPDEST SWAP2 MLOAD SWAP1 PUSH1 0x40 PUSH1 0x1F NOT DUP3 DUP6 SUB ADD SWAP2 ADD MSTORE PUSH2 0x1362 JUMP JUMPDEST SWAP11 MLOAD PUSH1 0x1 PUSH1 0x1 PUSH1 0xA0 SHL SUB AND PUSH1 0x60 DUP14 ADD MSTORE MLOAD PUSH1 0x80 DUP13 ADD MSTORE MLOAD PUSH1 0xA0 DUP12 ADD MSTORE MLOAD PUSH1 0xC0 DUP11 ADD MSTORE MLOAD PUSH1 0xE0 DUP10 ADD MSTORE MLOAD AND PUSH2 0x100 DUP8 ADD MSTORE MLOAD PUSH2 0x120 DUP7 ADD SWAP1 PUSH2 0x13CB JUMP JUMPDEST MLOAD PUSH2 0x140 DUP5 ADD MSTORE MLOAD PUSH2 0x160 DUP4 ADD MSTORE SUB SWAP1 RETURN JUMPDEST CALLVALUE PUSH2 0x1B0 JUMPI PUSH1 0x0 CALLDATASIZE PUSH1 0x3 NOT ADD SLT PUSH2 0x1B0 JUMPI PUSH2 0x7BF PUSH2 0x1B0C JUMP JUMPDEST CALLER PUSH1 0x0 MSTORE PUSH1 0x44 PUSH1 0x20 MSTORE PUSH1 0x40 PUSH1 0x0 KECCAK256 SLOAD ISZERO PUSH2 0x58E JUMPI PUSH1 0xFF PUSH1 0xA SLOAD PUSH1 0x8 SHR AND PUSH1 0x4 DUP2 LT ISZERO PUSH2 0x578 JUMPI PUSH1 0x2 SUB PUSH2 0x8AD JUMPI CALLER PUSH1 0x0 MSTORE PUSH1 0x44 PUSH1 0x20 MSTORE PUSH1 0xFF PUSH1 0x5 PUSH1 0x40 PUSH1 0x0 KECCAK256 ADD SLOAD PUSH1 0x10 SHR AND PUSH2 0x89C JUMPI CALLER PUSH1 0x0 MSTORE PUSH1 0x44 PUSH1 0x20 MSTORE PUSH1 0x40 PUSH1 0x0 KECCAK256 PUSH2 0x81F CALLER PUSH2 0x1F8F JUMP JUMPDEST SWAP1 DUP2 ISZERO PUSH2 0x88B JUMPI PUSH1 0x5 DUP2 ADD DUP1 SLOAD PUSH3 0xFF0000 NOT AND PUSH3 0x10000 OR SWAP1 SSTORE PUSH1 0x0 DUP1 DUP1 DUP1 DUP6 CALLER DUP3 CALL ISZERO PUSH2 0x87F JUMPI SLOAD PUSH1 0x40 MLOAD SWAP2 DUP3 MSTORE PUSH1 0x20 DUP3 ADD MSTORE PUSH32 0x17C1D890F3FFBA4991A771A0B55802A1EFF3159D0CCE950FB68D1360530393D9 PUSH1 0x40 CALLER SWAP3 LOG2 PUSH1 0x1 DUP1 SSTORE STOP JUMPDEST PUSH1 0x40 MLOAD RETURNDATASIZE PUSH1 0x0 DUP3 RETURNDATACOPY RETURNDATASIZE SWAP1 REVERT JUMPDEST PUSH4 0x356680B7 PUSH1 0xE0 SHL PUSH1 0x0 MSTORE PUSH1 0x4 PUSH1 0x0 REVERT JUMPDEST PUSH4 0x542F378D PUSH1 0xE1 SHL PUSH1 0x0 MSTORE PUSH1 0x4 PUSH1 0x0 REVERT JUMPDEST PUSH4 0xB4D6981 PUSH1 0xE0 SHL PUSH1 0x0 MSTORE PUSH1 0x4 PUSH1 0x0 REVERT JUMPDEST CALLVALUE PUSH2 0x1B0 JUMPI PUSH1 0x0 CALLDATASIZE PUSH1 0x3 NOT ADD SLT PUSH2 0x1B0 JUMPI PUSH1 0x20 PUSH1 0x40 MLOAD PUSH3 0x93A80 DUP2 MSTORE RETURN JUMPDEST CALLVALUE PUSH2 0x1B0 JUMPI PUSH1 0x0 CALLDATASIZE PUSH1 0x3 NOT ADD SLT PUSH2 0x1B0 JUMPI PUSH1 0x0 SLOAD PUSH1 0x40 MLOAD PUSH1 0x1 PUSH1 0x1 PUSH1 0xA0 SHL SUB SWAP1 SWAP2 AND DUP2 MSTORE PUSH1 0x20 SWAP1 RETURN JUMPDEST CALLVALUE PUSH2 0x1B0 JUMPI PUSH1 0x0 CALLDATASIZE PUSH1 0x3 NOT ADD SLT PUSH2 0x1B0 JUMPI PUSH2 0x91E PUSH2 0x20F5 JUMP JUMPDEST PUSH1 0x0 DUP1 SLOAD PUSH1 0x1 PUSH1 0x1 PUSH1 0xA0 SHL SUB NOT DUP2 AND DUP3 SSTORE PUSH1 0x1 PUSH1 0x1 PUSH1 0xA0 SHL SUB AND PUSH32 0x8BE0079C531659141344CD1FD0A4F28419497F9722A3DAAFE3B4186F6B6457E0 DUP3 DUP1 LOG3 STOP JUMPDEST CALLVALUE PUSH2 0x1B0 JUMPI PUSH1 0x20 CALLDATASIZE PUSH1 0x3 NOT ADD SLT PUSH2 0x1B0 JUMPI PUSH1 0x20 PUSH2 0x981 PUSH2 0x97C PUSH2 0x133F JUMP JUMPDEST PUSH2 0x1922 JUMP JUMPDEST PUSH1 0x40 MLOAD SWAP1 DUP2 MSTORE RETURN JUMPDEST CALLVALUE PUSH2 0x1B0 JUMPI PUSH1 0x0 CALLDATASIZE PUSH1 0x3 NOT ADD SLT PUSH2 0x1B0 JUMPI PUSH1 0x20 PUSH1 0xFF PUSH1 0x2 SLOAD AND PUSH1 0x40 MLOAD SWAP1 ISZERO ISZERO DUP2 MSTORE RETURN JUMPDEST CALLVALUE PUSH2 0x1B0 JUMPI PUSH1 0x20 CALLDATASIZE PUSH1 0x3 NOT ADD SLT PUSH2 0x1B0 JUMPI PUSH1 0x4 CALLDATALOAD PUSH1 0xFF PUSH1 0xA SLOAD PUSH1 0x8 SHR AND PUSH1 0x4 DUP2 LT ISZERO PUSH2 0x578 JUMPI PUSH2 0x567 JUMPI PUSH1 0x5 DUP2 LT ISZERO PUSH2 0xA36 JUMPI PUSH1 0xB DUP2 MUL SWAP1 PUSH1 0xFF PUSH1 0x10 DUP4 ADD SLOAD AND PUSH1 0x6 DUP2 LT ISZERO PUSH2 0x578 JUMPI PUSH1 0x2 SUB PUSH2 0xA25 JUMPI PUSH1 0x11 PUSH1 0x0 SWAP3 ADD SLOAD TIMESTAMP GT ISZERO PUSH2 0xA16 JUMPI PUSH2 0xA13 SWAP1 PUSH2 0x1B90 JUMP JUMPDEST DUP1 RETURN JUMPDEST PUSH4 0x3483EB63 PUSH1 0xE0 SHL DUP3 MSTORE PUSH1 0x4 DUP3 REVERT JUMPDEST PUSH4 0x9B8CC475 PUSH1 0xE0 SHL PUSH1 0x0 MSTORE PUSH1 0x4 PUSH1 0x0 REVERT JUMPDEST PUSH4 0x4E487B71 PUSH1 0xE0 SHL PUSH1 0x0 MSTORE PUSH1 0x32 PUSH1 0x4 MSTORE PUSH1 0x24 PUSH1 0x0 REVERT JUMPDEST CALLVALUE PUSH2 0x1B0 JUMPI PUSH1 0x20 CALLDATASIZE PUSH1 0x3 NOT ADD SLT PUSH2 0x1B0 JUMPI PUSH1 0x4 CALLDATALOAD PUSH1 0x46 SLOAD DUP2 LT ISZERO PUSH2 0x1B0 JUMPI PUSH2 0xA75 PUSH1 0x20 SWAP2 PUSH2 0x13B0 JUMP JUMPDEST SWAP1 SLOAD PUSH1 0x40 MLOAD PUSH1 0x3 SWAP3 SWAP1 SWAP3 SHL SHR PUSH1 0x1 PUSH1 0x1 PUSH1 0xA0 SHL SUB AND DUP2 MSTORE RETURN JUMPDEST CALLVALUE PUSH2 0x1B0 JUMPI PUSH1 0x40 CALLDATASIZE PUSH1 0x3 NOT ADD SLT PUSH2 0x1B0 JUMPI PUSH1 0x24 CALLDATALOAD PUSH8 0xFFFFFFFFFFFFFFFF DUP2 GT PUSH2 0x1B0 JUMPI CALLDATASIZE PUSH1 0x23 DUP3 ADD SLT ISZERO PUSH2 0x1B0 JUMPI DUP1 PUSH1 0x4 ADD CALLDATALOAD PUSH8 0xFFFFFFFFFFFFFFFF DUP2 GT PUSH2 0x1B0 JUMPI CALLDATASIZE PUSH1 0x24 DUP3 DUP5 ADD ADD GT PUSH2 0x1B0 JUMPI PUSH1 0x5 SLOAD PUSH1 0x1 PUSH1 0x1 PUSH1 0xA0 SHL SUB AND CALLER SUB PUSH2 0xB13 JUMPI PUSH1 0xFF PUSH1 0xA SLOAD PUSH1 0x8 SHR AND PUSH1 0x4 DUP2 LT ISZERO PUSH2 0x578 JUMPI PUSH2 0x567 JUMPI PUSH1 0x24 PUSH2 0x565 SWAP3 ADD PUSH1 0x4 CALLDATALOAD PUSH2 0x1699 JUMP JUMPDEST PUSH4 0xB42E6CB PUSH1 0xE2 SHL PUSH1 0x0 MSTORE PUSH1 0x4 PUSH1 0x0 REVERT JUMPDEST CALLVALUE PUSH2 0x1B0 JUMPI PUSH1 0x40 CALLDATASIZE PUSH1 0x3 NOT ADD SLT PUSH2 0x1B0 JUMPI PUSH1 0x24 CALLDATALOAD PUSH1 0x1 PUSH1 0x1 PUSH1 0xA0 SHL SUB DUP2 AND DUP2 SUB PUSH2 0x1B0 JUMPI PUSH1 0x4 CALLDATALOAD PUSH1 0x0 MSTORE PUSH1 0x45 PUSH1 0x20 MSTORE PUSH1 0x40 PUSH1 0x0 KECCAK256 SWAP1 PUSH1 0x1 DUP1 PUSH1 0xA0 SHL SUB AND PUSH1 0x0 MSTORE PUSH1 0x20 MSTORE PUSH1 0x20 PUSH1 0xFF PUSH1 0x40 PUSH1 0x0 KECCAK256 SLOAD AND PUSH1 0x40 MLOAD SWAP1 ISZERO ISZERO DUP2 MSTORE RETURN JUMPDEST CALLVALUE PUSH2 0x1B0 JUMPI PUSH1 0x0 CALLDATASIZE PUSH1 0x3 NOT ADD SLT PUSH2 0x1B0 JUMPI PUSH1 0x20 PUSH1 0x40 MLOAD PUSH2 0x1770 DUP2 MSTORE RETURN JUMPDEST CALLVALUE PUSH2 0x1B0 JUMPI PUSH1 0x0 CALLDATASIZE PUSH1 0x3 NOT ADD SLT PUSH2 0x1B0 JUMPI PUSH1 0xFF PUSH1 0xA SLOAD AND PUSH1 0x5 DUP2 LT ISZERO PUSH2 0xA36 JUMPI PUSH1 0xB DUP2 MUL SWAP1 PUSH1 0xFF PUSH1 0x10 DUP4 ADD SLOAD AND PUSH1 0xF DUP4 ADD SLOAD SWAP3 PUSH2 0xBDD PUSH1 0x11 DUP3 ADD SLOAD SWAP2 PUSH1 0xD ADD PUSH2 0x15BE JUMP JUMPDEST SWAP4 PUSH2 0xC08 PUSH2 0xBFD PUSH1 0x40 MLOAD SWAP7 DUP8 SWAP7 DUP8 MSTORE PUSH1 0xA0 PUSH1 0x20 DUP9 ADD MSTORE PUSH1 0xA0 DUP8 ADD SWAP1 PUSH2 0x1362 JUMP JUMPDEST SWAP4 PUSH1 0x40 DUP7 ADD SWAP1 PUSH2 0x13A3 JUMP JUMPDEST PUSH1 0x60 DUP5 ADD MSTORE PUSH1 0x80 DUP4 ADD MSTORE SUB SWAP1 RETURN JUMPDEST PUSH1 0x20 CALLDATASIZE PUSH1 0x3 NOT ADD SLT PUSH2 0x1B0 JUMPI PUSH1 0x4 CALLDATALOAD PUSH1 0x3 DUP2 LT ISZERO PUSH2 0x1B0 JUMPI PUSH2 0xC36 PUSH2 0x1B0C JUMP JUMPDEST PUSH1 0xFF PUSH1 0xA SLOAD PUSH1 0x8 SHR AND PUSH1 0x4 DUP2 LT ISZERO PUSH2 0x578 JUMPI PUSH2 0x567 JUMPI CALLVALUE ISZERO PUSH2 0xFE7 JUMPI PUSH1 0x0 PUSH1 0x2 PUSH1 0xFF DUP4 AND GT PUSH2 0xFD8 JUMPI PUSH2 0xC6B CALLVALUE PUSH1 0x7 SLOAD PUSH2 0x1660 JUMP JUMPDEST PUSH1 0x6 SLOAD LT PUSH2 0xFC9 JUMPI SWAP1 DUP1 PUSH2 0xFA1 JUMPI PUSH2 0x2710 PUSH2 0xC89 PUSH2 0x1388 JUMPDEST CALLVALUE PUSH2 0x166D JUMP JUMPDEST DIV SWAP2 PUSH2 0xC95 DUP4 CALLVALUE PUSH2 0x1680 JUMP JUMPDEST SWAP1 CALLER PUSH1 0x0 MSTORE PUSH1 0x44 PUSH1 0x20 MSTORE PUSH1 0x40 PUSH1 0x0 KECCAK256 SLOAD ISZERO PUSH1 0x0 EQ PUSH2 0xED3 JUMPI POP PUSH1 0x46 SLOAD PUSH9 0x10000000000000000 DUP2 LT ISZERO PUSH2 0xEBD JUMPI DUP1 PUSH1 0x1 PUSH2 0xCD2 SWAP3 ADD PUSH1 0x46 SSTORE PUSH2 0x13B0 JUMP JUMPDEST DUP2 SLOAD PUSH1 0x1 PUSH1 0x1 PUSH1 0xA0 SHL SUB PUSH1 0x3 SWAP3 SWAP1 SWAP3 SHL SWAP2 DUP3 SHL NOT AND CALLER SWAP1 SWAP2 SHL OR SWAP1 SSTORE PUSH1 0x40 MLOAD SWAP3 PUSH1 0xA0 DUP5 ADD PUSH8 0xFFFFFFFFFFFFFFFF DUP2 GT DUP6 DUP3 LT OR PUSH2 0xEBD JUMPI PUSH1 0x40 MSTORE PUSH1 0x0 DUP5 MSTORE PUSH1 0x0 PUSH1 0x20 DUP6 ADD MSTORE PUSH1 0x0 PUSH1 0x40 DUP6 ADD MSTORE PUSH1 0x0 PUSH1 0x60 DUP6 ADD MSTORE PUSH1 0x0 PUSH1 0x80 DUP6 ADD MSTORE PUSH1 0x40 MLOAD PUSH2 0xD38 DUP2 PUSH2 0x142F JUMP JUMPDEST CALLVALUE DUP2 MSTORE PUSH1 0x20 DUP2 ADD DUP3 DUP2 MSTORE PUSH1 0x40 DUP3 ADD SWAP6 DUP5 DUP8 MSTORE PUSH1 0x60 DUP4 ADD SWAP7 PUSH2 0xD59 DUP8 DUP10 PUSH2 0x168D JUMP JUMPDEST PUSH1 0x80 DUP5 ADD SWAP2 DUP3 MSTORE PUSH1 0xA0 DUP5 ADD SWAP2 PUSH1 0x0 DUP4 MSTORE PUSH1 0xC0 DUP6 ADD SWAP1 PUSH1 0x0 DUP3 MSTORE PUSH1 0xE0 DUP7 ADD SWAP3 PUSH1 0x0 DUP5 MSTORE PUSH2 0x100 DUP8 ADD SWAP6 TIMESTAMP DUP8 MSTORE CALLER PUSH1 0x0 MSTORE PUSH1 0x44 PUSH1 0x20 MSTORE PUSH1 0x40 PUSH1 0x0 KECCAK256 SWAP8 MLOAD DUP9 SSTORE MLOAD PUSH1 0x1 DUP9 ADD SSTORE MLOAD PUSH1 0x2 DUP8 ADD SSTORE PUSH1 0x3 DUP7 ADD SWAP10 MLOAD SWAP10 PUSH1 0x3 DUP12 LT ISZERO PUSH2 0x578 JUMPI PUSH1 0x0 SWAP11 PUSH1 0xFF DUP1 NOT DUP4 SLOAD AND SWAP2 AND OR SWAP1 SSTORE MLOAD SWAP9 PUSH1 0x0 SWAP1 PUSH1 0x0 JUMPDEST PUSH1 0x5 DUP2 LT PUSH2 0xE94 JUMPI POP POP PUSH1 0x4 DUP7 ADD SSTORE SWAP2 MLOAD PUSH1 0x5 DUP6 ADD DUP1 SLOAD SWAP4 MLOAD SWAP3 MLOAD PUSH3 0xFF0000 SWAP1 ISZERO ISZERO PUSH1 0x10 SHL AND PUSH2 0xFF00 SWAP4 ISZERO ISZERO PUSH1 0x8 SHL SWAP4 SWAP1 SWAP4 AND PUSH1 0xFF SWAP1 SWAP3 AND PUSH3 0xFFFFFF NOT SWAP1 SWAP5 AND SWAP4 SWAP1 SWAP4 OR OR OR SWAP1 SSTORE MLOAD PUSH1 0x6 SWAP1 SWAP2 ADD SSTORE SWAP2 SWAP3 POP SWAP1 JUMPDEST PUSH2 0xE29 CALLVALUE PUSH1 0x7 SLOAD PUSH2 0x1660 JUMP JUMPDEST PUSH1 0x7 SSTORE PUSH2 0xE38 DUP2 PUSH1 0x8 SLOAD PUSH2 0x1660 JUMP JUMPDEST PUSH1 0x8 SSTORE PUSH2 0xE47 DUP3 PUSH1 0x9 SLOAD PUSH2 0x1660 JUMP JUMPDEST PUSH1 0x9 SSTORE PUSH2 0xE5E PUSH1 0x40 MLOAD SWAP4 CALLVALUE DUP6 MSTORE PUSH1 0x20 DUP6 ADD SWAP1 PUSH2 0x1355 JUMP JUMPDEST PUSH1 0x40 DUP4 ADD MSTORE PUSH1 0x60 DUP3 ADD MSTORE PUSH32 0x5ED175EDDBA01E1E8E9B7DEB170E66689A1EA850C3ACF88C71D86B071020A964 PUSH1 0x80 CALLER SWAP3 LOG2 PUSH1 0x1 DUP1 SSTORE STOP JUMPDEST SWAP1 SWAP2 PUSH1 0x20 PUSH1 0x1 SWAP2 DUP14 MLOAD ISZERO ISZERO SWAP1 PUSH1 0xFF DUP1 DUP7 PUSH1 0x3 SHL SWAP4 AND DUP4 SHL SWAP3 SHL NOT AND OR SWAP13 ADD SWAP2 ADD SWAP11 SWAP2 SWAP1 SWAP11 PUSH2 0xDC9 JUMP JUMPDEST PUSH4 0x4E487B71 PUSH1 0xE0 SHL PUSH1 0x0 MSTORE PUSH1 0x41 PUSH1 0x4 MSTORE PUSH1 0x24 PUSH1 0x0 REVERT JUMPDEST SWAP3 SWAP1 SWAP2 SWAP3 CALLER PUSH1 0x0 MSTORE PUSH1 0x44 PUSH1 0x20 MSTORE PUSH1 0xFF PUSH1 0x3 PUSH1 0x40 PUSH1 0x0 KECCAK256 ADD SLOAD AND SWAP1 PUSH2 0x578 JUMPI PUSH1 0x3 DUP2 LT ISZERO PUSH2 0x578 JUMPI DUP4 SUB PUSH2 0xF5C JUMPI CALLER PUSH1 0x0 MSTORE PUSH1 0x44 PUSH1 0x20 MSTORE PUSH1 0x40 PUSH1 0x0 KECCAK256 PUSH2 0xF19 CALLVALUE DUP3 SLOAD PUSH2 0x1660 JUMP JUMPDEST SWAP1 SSTORE CALLER PUSH1 0x0 MSTORE PUSH1 0x44 PUSH1 0x20 MSTORE PUSH1 0x1 PUSH1 0x40 PUSH1 0x0 KECCAK256 ADD PUSH2 0xF37 DUP3 DUP3 SLOAD PUSH2 0x1660 JUMP JUMPDEST SWAP1 SSTORE CALLER PUSH1 0x0 MSTORE PUSH1 0x44 PUSH1 0x20 MSTORE PUSH1 0x2 PUSH1 0x40 PUSH1 0x0 KECCAK256 ADD PUSH2 0xF55 DUP4 DUP3 SLOAD PUSH2 0x1660 JUMP JUMPDEST SWAP1 SSTORE PUSH2 0xE1D JUMP JUMPDEST PUSH1 0x40 MLOAD PUSH3 0x461BCD PUSH1 0xE5 SHL DUP2 MSTORE PUSH1 0x20 PUSH1 0x4 DUP3 ADD MSTORE PUSH1 0x1A PUSH1 0x24 DUP3 ADD MSTORE PUSH32 0x43616E6E6F74206368616E6765207269736B2070726F66696C65000000000000 PUSH1 0x44 DUP3 ADD MSTORE PUSH1 0x64 SWAP1 REVERT JUMPDEST PUSH1 0x0 SWAP2 POP PUSH1 0x1 DUP2 SUB PUSH2 0xFBB JUMPI PUSH2 0x2710 PUSH2 0xC89 PUSH2 0x1B58 PUSH2 0xC83 JUMP JUMPDEST PUSH2 0x2710 PUSH2 0xC89 PUSH2 0x2328 PUSH2 0xC83 JUMP JUMPDEST PUSH4 0x4FBF92CF PUSH1 0xE0 SHL DUP2 MSTORE PUSH1 0x4 SWAP1 REVERT JUMPDEST PUSH4 0xDA47A887 PUSH1 0xE0 SHL DUP2 MSTORE PUSH1 0x4 SWAP1 REVERT JUMPDEST PUSH1 0x40 MLOAD PUSH3 0x461BCD PUSH1 0xE5 SHL DUP2 MSTORE PUSH1 0x20 PUSH1 0x4 DUP3 ADD MSTORE PUSH1 0xD PUSH1 0x24 DUP3 ADD MSTORE PUSH13 0x9AEAE6E840E6CADCC8408AA89 PUSH1 0x9B SHL PUSH1 0x44 DUP3 ADD MSTORE PUSH1 0x64 SWAP1 REVERT JUMPDEST CALLVALUE PUSH2 0x1B0 JUMPI PUSH1 0x20 CALLDATASIZE PUSH1 0x3 NOT ADD SLT PUSH2 0x1B0 JUMPI PUSH1 0x4 CALLDATALOAD PUSH1 0x0 PUSH2 0x140 PUSH1 0x40 MLOAD PUSH2 0x1041 DUP2 PUSH2 0x1412 JUMP JUMPDEST PUSH1 0x60 DUP2 MSTORE DUP3 PUSH1 0x20 DUP3 ADD MSTORE DUP3 PUSH1 0x40 DUP3 ADD MSTORE DUP3 PUSH1 0x60 DUP3 ADD MSTORE DUP3 PUSH1 0x80 DUP3 ADD MSTORE DUP3 PUSH1 0xA0 DUP3 ADD MSTORE DUP3 PUSH1 0xC0 DUP3 ADD MSTORE DUP3 PUSH1 0xE0 DUP3 ADD MSTORE PUSH1 0x60 PUSH2 0x100 DUP3 ADD MSTORE DUP3 PUSH2 0x120 DUP3 ADD MSTORE ADD MSTORE PUSH1 0x5 DUP2 LT ISZERO PUSH2 0xA36 JUMPI PUSH1 0xB MUL PUSH1 0x40 MLOAD PUSH2 0x1098 DUP2 PUSH2 0x1412 JUMP JUMPDEST PUSH2 0x10A4 DUP3 PUSH1 0xD ADD PUSH2 0x15BE JUMP JUMPDEST DUP2 MSTORE PUSH1 0xE DUP3 ADD SLOAD SWAP2 PUSH1 0x20 DUP3 ADD SWAP3 DUP4 MSTORE PUSH1 0xF DUP2 ADD SLOAD SWAP3 PUSH1 0x40 DUP4 ADD SWAP4 DUP5 MSTORE PUSH1 0xFF PUSH1 0x10 DUP4 ADD SLOAD AND SWAP1 PUSH1 0x60 DUP5 ADD SWAP2 PUSH1 0x6 DUP2 LT ISZERO PUSH2 0x578 JUMPI DUP3 MSTORE PUSH1 0x11 DUP4 ADD SLOAD PUSH1 0x80 DUP6 ADD SWAP1 DUP2 MSTORE PUSH1 0x12 DUP5 ADD SLOAD PUSH1 0xA0 DUP7 ADD SWAP1 DUP2 MSTORE PUSH1 0x13 DUP6 ADD SLOAD PUSH1 0xC0 DUP8 ADD SWAP1 DUP2 MSTORE PUSH1 0x14 DUP7 ADD SLOAD PUSH1 0xE0 DUP9 ADD SWAP1 DUP2 MSTORE SWAP2 PUSH2 0x1116 PUSH1 0x15 DUP9 ADD PUSH2 0x15BE JUMP JUMPDEST SWAP4 PUSH2 0x100 DUP10 ADD SWAP5 DUP6 MSTORE PUSH1 0x16 DUP9 ADD SLOAD PUSH1 0xFF AND SWAP8 PUSH2 0x120 DUP11 ADD SWAP9 DUP10 MSTORE PUSH1 0x17 ADD SLOAD SWAP7 PUSH2 0x140 DUP11 ADD SWAP8 DUP9 MSTORE PUSH1 0x40 MLOAD SWAP11 DUP12 SWAP11 PUSH1 0x20 DUP13 MSTORE MLOAD PUSH1 0x20 DUP13 ADD PUSH2 0x160 SWAP1 MSTORE PUSH2 0x180 DUP13 ADD PUSH2 0x115F SWAP2 PUSH2 0x1362 JUMP JUMPDEST SWAP8 MLOAD PUSH1 0x40 DUP13 ADD MSTORE MLOAD PUSH1 0x60 DUP12 ADD MSTORE MLOAD PUSH1 0x80 DUP11 ADD PUSH2 0x117A SWAP2 PUSH2 0x13A3 JUMP JUMPDEST MLOAD PUSH1 0xA0 DUP10 ADD MSTORE MLOAD PUSH1 0xC0 DUP9 ADD MSTORE MLOAD PUSH1 0xE0 DUP8 ADD MSTORE MLOAD PUSH2 0x100 DUP7 ADD MSTORE MLOAD DUP5 DUP3 SUB PUSH1 0x1F NOT ADD PUSH2 0x120 DUP7 ADD MSTORE PUSH2 0x11AB SWAP2 SWAP1 PUSH2 0x1362 JUMP JUMPDEST SWAP2 MLOAD PUSH1 0xFF AND PUSH2 0x140 DUP5 ADD MSTORE MLOAD PUSH2 0x160 DUP4 ADD MSTORE SUB SWAP1 RETURN JUMPDEST CALLVALUE PUSH2 0x1B0 JUMPI PUSH1 0x0 CALLDATASIZE PUSH1 0x3 NOT ADD SLT PUSH2 0x1B0 JUMPI PUSH1 0x20 PUSH1 0x40 MLOAD PUSH2 0x7D0 DUP2 MSTORE RETURN JUMPDEST CALLVALUE PUSH2 0x1B0 JUMPI PUSH1 0x0 CALLDATASIZE PUSH1 0x3 NOT ADD SLT PUSH2 0x1B0 JUMPI PUSH1 0x40 MLOAD DUP1 PUSH1 0x20 PUSH1 0x46 SLOAD SWAP3 DUP4 DUP2 MSTORE ADD DUP1 SWAP3 PUSH1 0x46 PUSH1 0x0 MSTORE PUSH32 0x128667F541FED74A8429F9D592C26C2C6A4BEB9AE5EAD9912C98B2595C842310 SWAP1 PUSH1 0x0 JUMPDEST DUP2 DUP2 LT PUSH2 0x128B JUMPI POP POP POP DUP2 PUSH2 0x123F SWAP2 SUB DUP3 PUSH2 0x144C JUMP JUMPDEST PUSH1 0x40 MLOAD SWAP2 DUP3 SWAP2 PUSH1 0x20 DUP4 ADD SWAP1 PUSH1 0x20 DUP5 MSTORE MLOAD DUP1 SWAP2 MSTORE PUSH1 0x40 DUP4 ADD SWAP2 SWAP1 PUSH1 0x0 JUMPDEST DUP2 DUP2 LT PUSH2 0x1269 JUMPI POP POP POP SUB SWAP1 RETURN JUMPDEST DUP3 MLOAD PUSH1 0x1 PUSH1 0x1 PUSH1 0xA0 SHL SUB AND DUP5 MSTORE DUP6 SWAP5 POP PUSH1 0x20 SWAP4 DUP5 ADD SWAP4 SWAP1 SWAP3 ADD SWAP2 PUSH1 0x1 ADD PUSH2 0x125B JUMP JUMPDEST DUP3 SLOAD PUSH1 0x1 PUSH1 0x1 PUSH1 0xA0 SHL SUB AND DUP5 MSTORE PUSH1 0x20 SWAP1 SWAP4 ADD SWAP3 PUSH1 0x1 SWAP3 DUP4 ADD SWAP3 ADD PUSH2 0x1229 JUMP JUMPDEST CALLVALUE PUSH2 0x1B0 JUMPI PUSH1 0x20 CALLDATASIZE PUSH1 0x3 NOT ADD SLT PUSH2 0x1B0 JUMPI PUSH2 0x100 SWAP1 PUSH1 0x1 PUSH1 0x1 PUSH1 0xA0 SHL SUB PUSH2 0x12CF PUSH2 0x133F JUMP JUMPDEST AND PUSH1 0x0 MSTORE PUSH1 0x44 PUSH1 0x20 MSTORE PUSH1 0x40 PUSH1 0x0 KECCAK256 PUSH1 0xFF DUP2 SLOAD SWAP2 PUSH2 0x1318 PUSH1 0x1 DUP3 ADD SLOAD PUSH1 0x2 DUP4 ADD SLOAD DUP5 PUSH1 0x3 DUP6 ADD SLOAD AND SWAP2 PUSH1 0x6 PUSH1 0x5 DUP7 ADD SLOAD SWAP6 ADD SLOAD SWAP7 DUP9 MSTORE PUSH1 0x20 DUP9 ADD MSTORE PUSH1 0x40 DUP8 ADD MSTORE PUSH1 0x60 DUP7 ADD SWAP1 PUSH2 0x1355 JUMP JUMPDEST DUP2 DUP2 AND PUSH1 0x80 DUP6 ADD MSTORE DUP2 DUP2 PUSH1 0x8 SHR AND ISZERO ISZERO PUSH1 0xA0 DUP6 ADD MSTORE PUSH1 0x10 SHR AND ISZERO ISZERO PUSH1 0xC0 DUP4 ADD MSTORE PUSH1 0xE0 DUP3 ADD MSTORE RETURN JUMPDEST PUSH1 0x4 CALLDATALOAD SWAP1 PUSH1 0x1 PUSH1 0x1 PUSH1 0xA0 SHL SUB DUP3 AND DUP3 SUB PUSH2 0x1B0 JUMPI JUMP JUMPDEST SWAP1 PUSH1 0x3 DUP3 LT ISZERO PUSH2 0x578 JUMPI MSTORE JUMP JUMPDEST SWAP2 SWAP1 DUP3 MLOAD SWAP3 DUP4 DUP3 MSTORE PUSH1 0x0 JUMPDEST DUP5 DUP2 LT PUSH2 0x138E JUMPI POP POP DUP3 PUSH1 0x0 PUSH1 0x20 DUP1 SWAP5 SWAP6 DUP5 ADD ADD MSTORE PUSH1 0x1F DUP1 NOT SWAP2 ADD AND ADD ADD SWAP1 JUMP JUMPDEST DUP1 PUSH1 0x20 DUP1 SWAP3 DUP5 ADD ADD MLOAD DUP3 DUP3 DUP7 ADD ADD MSTORE ADD PUSH2 0x136D JUMP JUMPDEST SWAP1 PUSH1 0x6 DUP3 LT ISZERO PUSH2 0x578 JUMPI MSTORE JUMP JUMPDEST PUSH1 0x46 SLOAD DUP2 LT ISZERO PUSH2 0xA36 JUMPI PUSH1 0x46 PUSH1 0x0 MSTORE PUSH1 0x20 PUSH1 0x0 KECCAK256 ADD SWAP1 PUSH1 0x0 SWAP1 JUMP JUMPDEST SWAP1 PUSH1 0x4 DUP3 LT ISZERO PUSH2 0x578 JUMPI MSTORE JUMP JUMPDEST SWAP1 PUSH1 0x1 DUP3 DUP2 SHR SWAP3 AND DUP1 ISZERO PUSH2 0x1408 JUMPI JUMPDEST PUSH1 0x20 DUP4 LT EQ PUSH2 0x13F2 JUMPI JUMP JUMPDEST PUSH4 0x4E487B71 PUSH1 0xE0 SHL PUSH1 0x0 MSTORE PUSH1 0x22 PUSH1 0x4 MSTORE PUSH1 0x24 PUSH1 0x0 REVERT JUMPDEST SWAP2 PUSH1 0x7F AND SWAP2 PUSH2 0x13E7 JUMP JUMPDEST PUSH2 0x160 DUP2 ADD SWAP1 DUP2 LT PUSH8 0xFFFFFFFFFFFFFFFF DUP3 GT OR PUSH2 0xEBD JUMPI PUSH1 0x40 MSTORE JUMP JUMPDEST PUSH2 0x120 DUP2 ADD SWAP1 DUP2 LT PUSH8 0xFFFFFFFFFFFFFFFF DUP3 GT OR PUSH2 0xEBD JUMPI PUSH1 0x40 MSTORE JUMP JUMPDEST SWAP1 PUSH1 0x1F DUP1 NOT SWAP2 ADD AND DUP2 ADD SWAP1 DUP2 LT PUSH8 0xFFFFFFFFFFFFFFFF DUP3 GT OR PUSH2 0xEBD JUMPI PUSH1 0x40 MSTORE JUMP JUMPDEST PUSH1 0x40 MLOAD SWAP1 PUSH1 0x0 DUP3 PUSH1 0x3 SLOAD SWAP2 PUSH2 0x1482 DUP4 PUSH2 0x13D8 JUMP JUMPDEST DUP1 DUP4 MSTORE SWAP3 PUSH1 0x1 DUP2 AND SWAP1 DUP2 ISZERO PUSH2 0x1508 JUMPI POP PUSH1 0x1 EQ PUSH2 0x14A8 JUMPI JUMPDEST PUSH2 0x14A6 SWAP3 POP SUB DUP4 PUSH2 0x144C JUMP JUMPDEST JUMP JUMPDEST POP PUSH1 0x3 PUSH1 0x0 SWAP1 DUP2 MSTORE SWAP1 SWAP2 PUSH32 0xC2575A0E9E593C00F959F8C92F12DB2869C3395A3B0502D05E2516446F71F85B JUMPDEST DUP2 DUP4 LT PUSH2 0x14EC JUMPI POP POP SWAP1 PUSH1 0x20 PUSH2 0x14A6 SWAP3 DUP3 ADD ADD PUSH2 0x149A JUMP JUMPDEST PUSH1 0x20 SWAP2 SWAP4 POP DUP1 PUSH1 0x1 SWAP2 SLOAD DUP4 DUP6 DUP10 ADD ADD MSTORE ADD SWAP2 ADD SWAP1 SWAP2 DUP5 SWAP3 PUSH2 0x14D4 JUMP JUMPDEST PUSH1 0x20 SWAP3 POP PUSH2 0x14A6 SWAP5 SWAP2 POP PUSH1 0xFF NOT AND DUP3 DUP5 ADD MSTORE ISZERO ISZERO PUSH1 0x5 SHL DUP3 ADD ADD PUSH2 0x149A JUMP JUMPDEST PUSH1 0x40 MLOAD SWAP1 PUSH1 0x0 DUP3 PUSH1 0x4 SLOAD SWAP2 PUSH2 0x153B DUP4 PUSH2 0x13D8 JUMP JUMPDEST DUP1 DUP4 MSTORE SWAP3 PUSH1 0x1 DUP2 AND SWAP1 DUP2 ISZERO PUSH2 0x1508 JUMPI POP PUSH1 0x1 EQ PUSH2 0x155E JUMPI PUSH2 0x14A6 SWAP3 POP SUB DUP4 PUSH2 0x144C JUMP JUMPDEST POP PUSH1 0x4 PUSH1 0x0 SWAP1 DUP2 MSTORE SWAP1 SWAP2 PUSH32 0x8A35ACFBC15FF81A39AE7D344FD709F28E8600B4AA8C65C6B64BFE7FE36BD19B JUMPDEST DUP2 DUP4 LT PUSH2 0x15A2 JUMPI POP POP SWAP1 PUSH1 0x20 PUSH2 0x14A6 SWAP3 DUP3 ADD ADD PUSH2 0x149A JUMP JUMPDEST PUSH1 0x20 SWAP2 SWAP4 POP DUP1 PUSH1 0x1 SWAP2 SLOAD DUP4 DUP6 DUP10 ADD ADD MSTORE ADD SWAP2 ADD SWAP1 SWAP2 DUP5 SWAP3 PUSH2 0x158A JUMP JUMPDEST SWAP1 PUSH1 0x40 MLOAD SWAP2 DUP3 PUSH1 0x0 DUP3 SLOAD SWAP3 PUSH2 0x15D2 DUP5 PUSH2 0x13D8 JUMP JUMPDEST DUP1 DUP5 MSTORE SWAP4 PUSH1 0x1 DUP2 AND SWAP1 DUP2 ISZERO PUSH2 0x163E JUMPI POP PUSH1 0x1 EQ PUSH2 0x15F7 JUMPI JUMPDEST POP PUSH2 0x14A6 SWAP3 POP SUB DUP4 PUSH2 0x144C JUMP JUMPDEST SWAP1 POP PUSH1 0x0 SWAP3 SWAP2 SWAP3 MSTORE PUSH1 0x20 PUSH1 0x0 KECCAK256 SWAP1 PUSH1 0x0 SWAP2 JUMPDEST DUP2 DUP4 LT PUSH2 0x1622 JUMPI POP POP SWAP1 PUSH1 0x20 PUSH2 0x14A6 SWAP3 DUP3 ADD ADD CODESIZE PUSH2 0x15EA JUMP JUMPDEST PUSH1 0x20 SWAP2 SWAP4 POP DUP1 PUSH1 0x1 SWAP2 SLOAD DUP4 DUP6 DUP10 ADD ADD MSTORE ADD SWAP2 ADD SWAP1 SWAP2 DUP5 SWAP3 PUSH2 0x1609 JUMP JUMPDEST SWAP1 POP PUSH1 0x20 SWAP3 POP PUSH2 0x14A6 SWAP5 SWAP2 POP PUSH1 0xFF NOT AND DUP3 DUP5 ADD MSTORE ISZERO ISZERO PUSH1 0x5 SHL DUP3 ADD ADD CODESIZE PUSH2 0x15EA JUMP JUMPDEST SWAP2 SWAP1 DUP3 ADD DUP1 SWAP3 GT PUSH2 0x5FF JUMPI JUMP JUMPDEST DUP2 DUP2 MUL SWAP3 SWAP2 DUP2 ISZERO SWAP2 DUP5 DIV EQ OR ISZERO PUSH2 0x5FF JUMPI JUMP JUMPDEST SWAP2 SWAP1 DUP3 SUB SWAP2 DUP3 GT PUSH2 0x5FF JUMPI JUMP JUMPDEST PUSH1 0x3 DUP3 LT ISZERO PUSH2 0x578 JUMPI MSTORE JUMP JUMPDEST SWAP1 SWAP2 PUSH1 0xFF PUSH1 0xA SLOAD AND DUP3 SUB PUSH2 0x1911 JUMPI PUSH1 0x5 DUP3 LT ISZERO PUSH2 0xA36 JUMPI PUSH1 0xB DUP3 MUL SWAP3 PUSH1 0x10 DUP5 ADD PUSH1 0xFF DUP2 SLOAD AND PUSH1 0x6 DUP2 LT ISZERO PUSH2 0x578 JUMPI PUSH2 0x1900 JUMPI PUSH1 0x0 PUSH1 0xF DUP7 ADD SLOAD TIMESTAMP GT PUSH2 0x18F2 JUMPI POP DUP1 SLOAD PUSH1 0xFF NOT AND PUSH1 0x2 OR SWAP1 SSTORE PUSH1 0x0 SWAP4 PUSH1 0x15 DUP2 ADD PUSH8 0xFFFFFFFFFFFFFFFF DUP5 GT PUSH2 0x18DE JUMPI PUSH2 0x1704 DUP2 SLOAD PUSH2 0x13D8 JUMP JUMPDEST PUSH1 0x1F DUP2 GT PUSH2 0x1899 JUMPI JUMPDEST POP DUP4 DUP7 PUSH1 0x1F DUP3 GT PUSH1 0x1 EQ PUSH2 0x1836 JUMPI DUP8 SWAP2 PUSH2 0x182B JUMPI JUMPDEST POP DUP5 PUSH1 0x1 SHL SWAP1 PUSH1 0x0 NOT DUP7 PUSH1 0x3 SHL SHR NOT AND OR SWAP1 SSTORE JUMPDEST PUSH3 0x93A80 TIMESTAMP ADD SWAP5 DUP6 TIMESTAMP GT PUSH2 0x1817 JUMPI POP PUSH1 0x11 DUP2 ADD SWAP5 DUP6 SSTORE TIMESTAMP PUSH1 0x17 DUP3 ADD SSTORE PUSH1 0x0 PUSH1 0x12 DUP3 ADD DUP2 SWAP1 SSTORE PUSH1 0x13 DUP3 ADD DUP2 SWAP1 SSTORE PUSH1 0x14 SWAP1 SWAP2 ADD DUP2 SWAP1 SSTORE JUMPDEST PUSH1 0x46 SLOAD DUP2 LT ISZERO PUSH2 0x17BC JUMPI PUSH1 0x1 SWAP1 DUP5 PUSH1 0x0 MSTORE PUSH1 0x45 PUSH1 0x20 MSTORE PUSH1 0x40 DUP1 PUSH1 0x0 KECCAK256 PUSH2 0x1790 DUP4 PUSH2 0x13B0 JUMP JUMPDEST SWAP1 SLOAD PUSH1 0x3 SWAP2 SWAP1 SWAP2 SHL SHR PUSH1 0xA0 DUP6 SWAP1 SHL DUP6 SWAP1 SUB AND PUSH1 0x0 SWAP1 DUP2 MSTORE PUSH1 0x20 SWAP2 SWAP1 SWAP2 MSTORE KECCAK256 DUP1 SLOAD PUSH1 0xFF NOT AND SWAP1 SSTORE ADD PUSH2 0x176B JUMP JUMPDEST POP PUSH1 0x60 SWAP1 DUP3 PUSH32 0x2D1BE871E8185F5374D350EC315DABFBDA8BD920997205E381EABC7DA8022484 SWAP5 SWAP6 PUSH1 0x0 SWAP1 SLOAD SWAP1 PUSH1 0x40 MLOAD SWAP6 DUP7 SWAP5 PUSH1 0x40 DUP7 MSTORE DUP2 PUSH1 0x40 DUP8 ADD MSTORE DUP7 DUP7 ADD CALLDATACOPY DUP4 DUP4 ADD DUP6 ADD MSTORE PUSH1 0x20 DUP4 ADD MSTORE PUSH1 0x1F ADD PUSH1 0x1F NOT AND DUP2 ADD SUB ADD SWAP1 LOG2 JUMP JUMPDEST PUSH4 0x4E487B71 PUSH1 0xE0 SHL DUP2 MSTORE PUSH1 0x11 PUSH1 0x4 MSTORE PUSH1 0x24 SWAP1 REVERT JUMPDEST SWAP1 POP DUP4 ADD CALLDATALOAD CODESIZE PUSH2 0x1722 JUMP JUMPDEST DUP3 DUP9 MSTORE PUSH1 0x20 DUP9 KECCAK256 SWAP2 POP DUP6 PUSH1 0x1F NOT DUP2 AND DUP10 JUMPDEST DUP2 DUP2 LT PUSH2 0x187E JUMPI POP LT PUSH2 0x1864 JUMPI JUMPDEST POP POP PUSH1 0x1 DUP5 DUP2 SHL ADD SWAP1 SSTORE PUSH2 0x1736 JUMP JUMPDEST DUP5 ADD CALLDATALOAD PUSH1 0x0 NOT PUSH1 0x3 DUP8 SWAP1 SHL PUSH1 0xF8 AND SHR NOT AND SWAP1 SSTORE CODESIZE DUP1 PUSH2 0x1855 JUMP JUMPDEST DUP8 DUP5 ADD CALLDATALOAD DUP6 SSTORE PUSH1 0x1 SWAP1 SWAP5 ADD SWAP4 PUSH1 0x20 SWAP4 DUP5 ADD SWAP4 DUP10 SWAP4 POP ADD PUSH2 0x1847 JUMP JUMPDEST DUP2 DUP8 MSTORE PUSH1 0x20 DUP8 KECCAK256 PUSH1 0x1F DUP7 ADD PUSH1 0x5 SHR DUP2 ADD SWAP2 PUSH1 0x20 DUP8 LT PUSH2 0x18D4 JUMPI JUMPDEST PUSH1 0x1F ADD PUSH1 0x5 SHR ADD SWAP1 JUMPDEST DUP2 DUP2 LT PUSH2 0x18C9 JUMPI POP PUSH2 0x170D JUMP JUMPDEST DUP8 DUP2 SSTORE PUSH1 0x1 ADD PUSH2 0x18BC JUMP JUMPDEST SWAP1 SWAP2 POP DUP2 SWAP1 PUSH2 0x18B3 JUMP JUMPDEST PUSH4 0x4E487B71 PUSH1 0xE0 SHL DUP7 MSTORE PUSH1 0x41 PUSH1 0x4 MSTORE PUSH1 0x24 DUP7 REVERT JUMPDEST POP POP POP POP POP POP PUSH2 0x14A6 PUSH2 0x1B2E JUMP JUMPDEST PUSH4 0x23A244EF PUSH1 0xE1 SHL PUSH1 0x0 MSTORE PUSH1 0x4 PUSH1 0x0 REVERT JUMPDEST PUSH4 0x2E845CD PUSH1 0xE6 SHL PUSH1 0x0 MSTORE PUSH1 0x4 PUSH1 0x0 REVERT JUMPDEST PUSH1 0xFF PUSH1 0xA SLOAD PUSH1 0x8 SHR AND PUSH1 0x4 DUP2 LT ISZERO PUSH2 0x578 JUMPI PUSH1 0x2 SUB PUSH2 0x1947 JUMPI PUSH2 0x1944 SWAP1 PUSH2 0x1F8F JUMP JUMPDEST SWAP1 JUMP JUMPDEST POP PUSH1 0x0 SWAP1 JUMP JUMPDEST SWAP2 SWAP1 SWAP2 PUSH1 0x5 DUP4 LT ISZERO PUSH2 0xA36 JUMPI PUSH1 0x1F SWAP1 DUP4 PUSH1 0x5 SHR ADD SWAP3 AND SWAP1 JUMP JUMPDEST PUSH1 0x5 DUP2 LT ISZERO PUSH2 0xA36 JUMPI PUSH1 0xB DUP2 MUL PUSH1 0xFF PUSH1 0x10 DUP3 ADD SLOAD AND PUSH1 0x6 DUP2 LT ISZERO PUSH2 0x578 JUMPI PUSH1 0x2 SUB PUSH2 0xA25 JUMPI PUSH1 0x0 DUP3 DUP2 MSTORE PUSH1 0x45 PUSH1 0x20 SWAP1 DUP2 MSTORE PUSH1 0x40 DUP1 DUP4 KECCAK256 CALLER DUP5 MSTORE SWAP1 SWAP2 MSTORE SWAP1 KECCAK256 SLOAD PUSH1 0xFF AND PUSH2 0x1AFB JUMPI PUSH1 0x0 SWAP1 PUSH1 0x11 DUP2 ADD SLOAD TIMESTAMP GT PUSH2 0x1AEF JUMPI CALLER DUP3 MSTORE PUSH1 0x44 PUSH1 0x20 MSTORE PUSH1 0x40 DUP3 KECCAK256 SLOAD SWAP2 PUSH1 0x7 SLOAD PUSH2 0x7D0 DUP2 MUL SWAP1 DUP1 DUP3 DIV PUSH2 0x7D0 EQ SWAP1 ISZERO OR ISZERO PUSH2 0x1ADB JUMPI PUSH2 0x2710 SWAP1 DIV DUP1 DUP5 GT PUSH2 0x1AD3 JUMPI JUMPDEST POP DUP4 DUP2 MSTORE PUSH1 0x45 PUSH1 0x20 SWAP1 DUP2 MSTORE PUSH1 0x40 DUP1 DUP4 KECCAK256 CALLER DUP1 DUP6 MSTORE SWAP1 DUP4 MSTORE DUP2 DUP5 KECCAK256 DUP1 SLOAD PUSH1 0xFF NOT AND PUSH1 0x1 OR SWAP1 SSTORE DUP4 MSTORE PUSH1 0x44 SWAP1 SWAP2 MSTORE DUP2 KECCAK256 PUSH2 0x1A29 SWAP1 DUP6 SWAP1 PUSH1 0x4 ADD PUSH2 0x194D JUMP JUMPDEST DUP2 SLOAD SWAP1 PUSH1 0x3 SHL SWAP1 PUSH1 0xFF PUSH1 0x1 DUP4 SHL SWAP3 SHL NOT AND OR SWAP1 SSTORE CALLER DUP2 MSTORE PUSH1 0x44 PUSH1 0x20 MSTORE PUSH1 0x5 PUSH1 0x40 DUP3 KECCAK256 ADD PUSH1 0xFF NOT DUP2 SLOAD AND SWAP1 SSTORE DUP1 DUP6 PUSH1 0x0 EQ PUSH2 0x1ABC JUMPI PUSH2 0xA36 JUMPI PUSH1 0x12 DUP3 ADD PUSH2 0x1A70 DUP5 DUP3 SLOAD PUSH2 0x1660 JUMP JUMPDEST SWAP1 SSTORE JUMPDEST PUSH2 0xA36 JUMPI PUSH1 0x14 ADD PUSH2 0x1A85 DUP3 DUP3 SLOAD PUSH2 0x1660 JUMP JUMPDEST SWAP1 SSTORE PUSH1 0x40 MLOAD SWAP3 ISZERO ISZERO DUP4 MSTORE PUSH1 0x20 DUP4 ADD MSTORE PUSH32 0xCBDF6214089CBA887ECBF35A0B6A734589959C9763342C756BB2A80CA2BC9F6E PUSH1 0x40 CALLER SWAP4 LOG3 JUMP JUMPDEST POP PUSH1 0x13 DUP3 ADD PUSH2 0x1ACC DUP5 DUP3 SLOAD PUSH2 0x1660 JUMP JUMPDEST SWAP1 SSTORE PUSH2 0x1A73 JUMP JUMPDEST SWAP3 POP CODESIZE PUSH2 0x19ED JUMP JUMPDEST PUSH4 0x4E487B71 PUSH1 0xE0 SHL DUP3 MSTORE PUSH1 0x11 PUSH1 0x4 MSTORE PUSH1 0x24 DUP3 REVERT JUMPDEST POP POP PUSH2 0x14A6 SWAP2 POP PUSH2 0x1B90 JUMP JUMPDEST PUSH4 0x7C9A1CF9 PUSH1 0xE0 SHL PUSH1 0x0 MSTORE PUSH1 0x4 PUSH1 0x0 REVERT JUMPDEST PUSH1 0x2 PUSH1 0x1 SLOAD EQ PUSH2 0x1B1D JUMPI PUSH1 0x2 PUSH1 0x1 SSTORE JUMP JUMPDEST PUSH4 0x3EE5AEB5 PUSH1 0xE0 SHL PUSH1 0x0 MSTORE PUSH1 0x4 PUSH1 0x0 REVERT JUMPDEST PUSH32 0x120BFC1DE29621F7872A5B3129B6524CEB18DF8C689A37496B8EE4007235DBC8 PUSH1 0x40 PUSH1 0xFF PUSH1 0xA SLOAD PUSH1 0x8 SHR AND PUSH2 0x200 PUSH2 0xFF00 NOT PUSH1 0xA SLOAD AND OR PUSH1 0xA SSTORE PUSH2 0x1B75 DUP3 MLOAD DUP1 SWAP3 PUSH2 0x13CB JUMP JUMPDEST PUSH1 0x2 PUSH1 0x20 DUP3 ADD MSTORE LOG1 JUMP JUMPDEST PUSH1 0xFF AND PUSH1 0xFF DUP2 EQ PUSH2 0x5FF JUMPI PUSH1 0x1 ADD SWAP1 JUMP JUMPDEST SWAP1 PUSH1 0x0 JUMPDEST PUSH1 0x46 SLOAD DUP2 LT ISZERO PUSH2 0x1CB6 JUMPI PUSH2 0x1BA7 DUP2 PUSH2 0x13B0 JUMP JUMPDEST PUSH1 0x1 DUP1 PUSH1 0xA0 SHL SUB SWAP2 SLOAD SWAP1 PUSH1 0x3 SHL SHR AND DUP1 PUSH1 0x0 MSTORE PUSH1 0x44 PUSH1 0x20 MSTORE PUSH1 0xFF PUSH2 0x1BD2 DUP6 PUSH1 0x4 PUSH1 0x40 PUSH1 0x0 KECCAK256 ADD PUSH2 0x194D JUMP JUMPDEST SWAP1 SLOAD SWAP1 PUSH1 0x3 SHL SHR AND ISZERO PUSH2 0x1BE9 JUMPI JUMPDEST POP PUSH1 0x1 ADD PUSH2 0x1B94 JUMP JUMPDEST DUP1 PUSH1 0x0 MSTORE PUSH1 0x44 PUSH1 0x20 MSTORE PUSH1 0x5 PUSH1 0x40 PUSH1 0x0 KECCAK256 ADD PUSH1 0xFF PUSH2 0x1C08 DUP2 DUP4 SLOAD AND PUSH2 0x1B7F JUMP JUMPDEST AND PUSH1 0xFF NOT DUP3 SLOAD AND OR SWAP1 SSTORE DUP1 PUSH1 0x0 MSTORE PUSH1 0x44 PUSH1 0x20 MSTORE PUSH1 0x2 PUSH1 0xFF PUSH1 0x5 PUSH1 0x40 PUSH1 0x0 KECCAK256 ADD SLOAD AND LT PUSH2 0x1BE0 JUMPI PUSH1 0x0 SWAP1 DUP2 MSTORE PUSH1 0x44 PUSH1 0x20 MSTORE PUSH1 0x40 SWAP1 KECCAK256 PUSH1 0x5 DUP2 ADD DUP1 SLOAD PUSH2 0xFF00 NOT AND PUSH2 0x100 OR SWAP1 SSTORE SLOAD PUSH1 0x7 SLOAD SWAP1 SWAP2 SWAP1 PUSH2 0x7D0 DUP1 DUP3 MUL SWAP2 DUP1 ISZERO SWAP1 DUP4 DIV SWAP1 SWAP2 EQ OR ISZERO PUSH2 0x5FF JUMPI PUSH2 0x2710 SWAP1 DIV DUP1 DUP4 GT PUSH2 0x1CAE JUMPI JUMPDEST POP PUSH1 0x5 DUP5 LT ISZERO PUSH2 0xA36 JUMPI PUSH1 0x1 SWAP2 PUSH2 0x1CA6 PUSH1 0x14 PUSH1 0xB DUP8 MUL PUSH1 0x12 DUP2 ADD PUSH2 0x1C9B DUP6 DUP3 SLOAD PUSH2 0x1660 JUMP JUMPDEST SWAP1 SSTORE ADD SWAP2 DUP3 SLOAD PUSH2 0x1660 JUMP JUMPDEST SWAP1 SSTORE SWAP1 PUSH2 0x1BE0 JUMP JUMPDEST SWAP2 POP CODESIZE PUSH2 0x1C76 JUMP JUMPDEST POP SWAP1 PUSH1 0x5 DUP2 LT ISZERO PUSH2 0xA36 JUMPI PUSH1 0xB DUP2 MUL SWAP1 PUSH1 0x12 DUP3 ADD SWAP1 DUP2 SLOAD SWAP3 PUSH1 0x0 PUSH1 0x13 DUP3 ADD SWAP5 PUSH2 0x1CE0 DUP7 SLOAD DUP3 PUSH2 0x1660 JUMP JUMPDEST DUP3 SWAP2 DUP2 ISZERO SWAP2 DUP3 ISZERO PUSH2 0x1F4B JUMPI JUMPDEST POP POP POP PUSH1 0x0 EQ PUSH2 0x1EB5 JUMPI PUSH2 0xA36 JUMPI PUSH1 0x10 ADD DUP1 SLOAD PUSH1 0xFF NOT AND PUSH1 0x3 OR DUP2 SSTORE PUSH2 0x1D11 DUP3 PUSH2 0x211E JUMP JUMPDEST SWAP3 DUP4 ISZERO DUP1 ISZERO PUSH2 0x1E23 JUMPI JUMPDEST POP PUSH1 0x4 SWAP4 POP PUSH1 0x60 DUP4 SWAP3 PUSH32 0x189A69C6603D31E1AFE639223C0BCE076C888E04D821629C66377946AA4FF5F6 SWAP3 PUSH1 0x0 SWAP2 PUSH1 0x5 PUSH1 0xFF NOT DUP3 SLOAD AND OR SWAP1 SSTORE PUSH2 0x1D5D DUP6 PUSH2 0x211E JUMP JUMPDEST SWAP2 POP SLOAD PUSH1 0x0 SWAP8 SLOAD SWAP1 PUSH1 0x40 MLOAD SWAP3 DUP4 MSTORE PUSH1 0x20 DUP4 ADD MSTORE PUSH1 0x40 DUP3 ADD MSTORE LOG2 SUB PUSH2 0x1E06 JUMPI PUSH2 0x100 PUSH2 0xFF00 NOT PUSH1 0xA SLOAD AND OR PUSH1 0xA SSTORE PUSH1 0x9 SLOAD DUP1 ISZERO DUP1 ISZERO PUSH2 0x1DCB JUMPI JUMPDEST POP POP PUSH1 0x40 DUP1 MLOAD SWAP2 DUP3 MSTORE PUSH1 0x1 PUSH1 0x20 DUP4 ADD MSTORE PUSH32 0x120BFC1DE29621F7872A5B3129B6524CEB18DF8C689A37496B8EE4007235DBC8 SWAP2 LOG1 JUMP JUMPDEST DUP3 DUP1 DUP1 SWAP4 DUP2 SWAP4 PUSH1 0x1 DUP1 PUSH1 0xA0 SHL SUB PUSH1 0x5 SLOAD AND SWAP1 DUP4 SWAP1 PUSH2 0x1DFD JUMPI JUMPDEST CALL ISZERO PUSH2 0x1DF1 JUMPI CODESIZE DUP1 PUSH2 0x1D96 JUMP JUMPDEST PUSH1 0x40 MLOAD SWAP1 RETURNDATASIZE SWAP1 DUP3 RETURNDATACOPY RETURNDATASIZE SWAP1 REVERT JUMPDEST POP PUSH2 0x8FC PUSH2 0x1DE4 JUMP JUMPDEST POP PUSH1 0xA SLOAD PUSH1 0xFF PUSH2 0x1E17 DUP2 DUP4 AND PUSH2 0x1B7F JUMP JUMPDEST AND SWAP1 PUSH1 0xFF NOT AND OR PUSH1 0xA SSTORE JUMP JUMPDEST PUSH1 0x0 DUP1 DUP1 DUP8 DUP2 SWAP5 PUSH1 0x1 DUP1 PUSH1 0xA0 SHL SUB PUSH1 0x5 SLOAD AND SWAP1 DUP4 SWAP1 PUSH2 0x1EAC JUMPI JUMPDEST CALL ISZERO PUSH2 0x87F JUMPI PUSH1 0x60 DUP4 SWAP3 PUSH32 0x189A69C6603D31E1AFE639223C0BCE076C888E04D821629C66377946AA4FF5F6 SWAP3 PUSH1 0x4 SWAP7 DUP6 PUSH32 0x807158A396C8CE26FB6A4A44930E1B49876133BA7806DBAAC491EA4713E4515E PUSH1 0x20 PUSH1 0x1 DUP1 PUSH1 0xA0 SHL SUB PUSH1 0x5 SLOAD AND SWAP4 PUSH1 0x40 MLOAD SWAP1 DUP2 MSTORE LOG3 SWAP3 POP SWAP3 POP PUSH2 0x1D1B JUMP JUMPDEST POP PUSH2 0x8FC PUSH2 0x1E3D JUMP JUMPDEST SWAP4 SWAP3 SWAP4 PUSH2 0xA36 JUMPI PUSH1 0x60 DUP2 PUSH1 0xFF PUSH1 0x10 PUSH32 0x48427260FA8E0DFEDF5EAFAFDBA9C430EAAC0ECD4DA5F57E1220727939ADF421 SWAP5 ADD SWAP7 PUSH1 0x4 DUP3 NOT DUP10 SLOAD AND OR DUP9 SSTORE PUSH1 0x16 PUSH1 0x0 SWAP4 ADD SWAP3 DUP3 PUSH2 0x1F05 DUP2 DUP7 SLOAD AND PUSH2 0x1B7F JUMP JUMPDEST AND DUP4 NOT DUP6 SLOAD AND OR DUP5 SSTORE POP SLOAD SWAP2 PUSH1 0x0 SWAP7 SLOAD SWAP7 POP SLOAD AND SWAP5 PUSH1 0x40 MLOAD SWAP2 DUP3 MSTORE PUSH1 0x20 DUP3 ADD MSTORE DUP5 PUSH1 0x40 DUP3 ADD MSTORE LOG2 PUSH1 0x0 SWAP1 PUSH1 0x2 GT PUSH2 0x1F40 JUMPI POP POP PUSH2 0x14A6 PUSH2 0x1B2E JUMP JUMPDEST POP DUP1 SLOAD PUSH1 0xFF NOT AND SWAP1 SSTORE JUMP JUMPDEST SWAP2 SWAP4 SWAP1 SWAP3 POP SWAP3 PUSH2 0x2710 DUP4 MUL SWAP3 DUP1 DUP5 DIV PUSH2 0x2710 EQ SWAP1 ISZERO OR ISZERO PUSH2 0x5FF JUMPI PUSH2 0x1F79 JUMPI PUSH2 0x1770 SWAP2 DIV LT ISZERO CODESIZE DUP1 DUP1 PUSH2 0x1CEC JUMP JUMPDEST PUSH4 0x4E487B71 PUSH1 0xE0 SHL PUSH1 0x0 MSTORE PUSH1 0x12 PUSH1 0x4 MSTORE PUSH1 0x24 PUSH1 0x0 REVERT JUMPDEST PUSH1 0x1 DUP1 PUSH1 0xA0 SHL SUB AND PUSH1 0x0 MSTORE PUSH1 0x44 PUSH1 0x20 MSTORE PUSH1 0x40 PUSH1 0x0 KECCAK256 PUSH1 0x40 MLOAD SWAP1 PUSH2 0x1FB1 DUP3 PUSH2 0x142F JUMP JUMPDEST DUP1 SLOAD DUP3 MSTORE PUSH1 0x1 DUP2 ADD SLOAD SWAP2 PUSH1 0x20 DUP2 ADD SWAP3 DUP4 MSTORE PUSH2 0x100 PUSH1 0x6 PUSH1 0x2 DUP5 ADD SLOAD SWAP4 PUSH1 0x40 DUP5 ADD SWAP5 DUP6 MSTORE PUSH2 0x1FE8 PUSH1 0xFF PUSH1 0x3 DUP4 ADD SLOAD AND PUSH1 0x60 DUP7 ADD PUSH2 0x168D JUMP JUMPDEST PUSH1 0x40 MLOAD PUSH1 0xFF PUSH1 0x4 DUP4 ADD SLOAD DUP2 DUP2 AND ISZERO ISZERO DUP4 MSTORE DUP2 DUP2 PUSH1 0x8 SHR AND ISZERO ISZERO PUSH1 0x20 DUP5 ADD MSTORE DUP2 DUP2 PUSH1 0x10 SHR AND ISZERO ISZERO PUSH1 0x40 DUP5 ADD MSTORE DUP2 DUP2 PUSH1 0x18 SHR AND ISZERO ISZERO PUSH1 0x60 DUP5 ADD MSTORE PUSH1 0x20 SHR AND ISZERO ISZERO PUSH1 0x80 DUP3 ADD MSTORE PUSH2 0x2036 PUSH1 0xA0 DUP3 PUSH2 0x144C JUMP JUMPDEST PUSH1 0x80 DUP6 ADD MSTORE PUSH1 0xFF PUSH1 0x5 DUP3 ADD SLOAD DUP2 DUP2 AND PUSH1 0xA0 DUP8 ADD MSTORE DUP2 DUP2 PUSH1 0x8 SHR AND ISZERO ISZERO PUSH1 0xC0 DUP8 ADD MSTORE PUSH1 0x10 SHR AND ISZERO ISZERO PUSH1 0xE0 DUP6 ADD MSTORE ADD SLOAD SWAP2 ADD MSTORE DUP2 MLOAD SWAP2 PUSH1 0x0 SWAP1 PUSH1 0xFF PUSH1 0xA SLOAD AND SWAP2 JUMPDEST DUP3 DUP2 LT PUSH2 0x20A4 JUMPI POP POP POP PUSH2 0x1944 SWAP2 PUSH2 0x208E SWAP2 MLOAD SWAP1 PUSH2 0x1660 JUMP JUMPDEST PUSH2 0x2710 PUSH2 0x209D PUSH1 0xC SLOAD DUP4 PUSH2 0x166D JUMP JUMPDEST DIV SWAP1 PUSH2 0x1680 JUMP JUMPDEST PUSH1 0x5 DUP2 LT ISZERO PUSH2 0xA36 JUMPI PUSH1 0xB DUP2 MUL PUSH1 0xFF PUSH1 0x10 DUP3 ADD SLOAD AND PUSH1 0x6 DUP2 LT ISZERO PUSH2 0x578 JUMPI PUSH1 0x5 EQ PUSH2 0x20D3 JUMPI JUMPDEST POP PUSH1 0x1 ADD PUSH2 0x2075 JUMP JUMPDEST PUSH1 0x1 SWAP2 SWAP6 PUSH2 0x2710 PUSH2 0x209D PUSH2 0x20EE SWAP4 PUSH1 0xE DUP8 MLOAD SWAP2 ADD SLOAD SWAP1 PUSH2 0x166D JUMP JUMPDEST SWAP5 SWAP1 PUSH2 0x20CA JUMP JUMPDEST PUSH1 0x0 SLOAD PUSH1 0x1 PUSH1 0x1 PUSH1 0xA0 SHL SUB AND CALLER SUB PUSH2 0x2109 JUMPI JUMP JUMPDEST PUSH4 0x118CDAA7 PUSH1 0xE0 SHL PUSH1 0x0 MSTORE CALLER PUSH1 0x4 MSTORE PUSH1 0x24 PUSH1 0x0 REVERT JUMPDEST PUSH1 0x8 SLOAD SWAP1 PUSH1 0x5 DUP2 LT ISZERO PUSH2 0xA36 JUMPI PUSH2 0x2710 SWAP2 PUSH1 0xE PUSH1 0xB PUSH2 0x2140 SWAP4 MUL ADD SLOAD SWAP1 PUSH2 0x166D JUMP JUMPDEST DIV SWAP1 JUMP INVALID LOG2 PUSH5 0x6970667358 0x22 SLT KECCAK256 0xDF 0xC 0x4F 0xD4 0xDE 0x2D SWAP10 PUSH9 0x1263548806239D4986 TSTORE TSTORE 0xAB GASPRICE 0xEF MSTORE XOR 0xE 0xEA EQ 0x28 0xF7 EXP SWAP8 SWAP6 PUSH5 0x736F6C6343 STOP ADDMOD BYTE STOP CALLER "},"methodIdentifiers":{"APPROVAL_THRESHOLD()":"3ab34290","MAX_WHALE_POWER()":"20577041","VOTING_PERIOD()":"b1610d7e","campaignData()":"edd5271e","claimRefund()":"b5545a3c","finalizeMilestone(uint256)":"4b959a4f","fund(uint8)":"34f6fd87","funders(address)":"031b3677","fundersList(uint256)":"47ff62c6","getCampaignData()":"c4176338","getCurrentMilestoneInfo()":"3658da1c","getFunder(address)":"d2d30010","getFundersList()":"0a5480d1","getMilestone(uint256)":"2442e1cb","getRefundAmount(address)":"5d306f34","hasVotedOnMilestone(uint256,address)":"3bcaea02","milestones(uint256)":"e89e4ed6","owner()":"8da5cb5b","paused()":"5c975abb","renounceOwnership()":"715018a6","submitMilestone(uint256,string)":"476a119b","transferOwnership(address)":"f2fde38b","triggerEmergencyFailure()":"c93ef58b","vote(uint256,bool)":"c9d27afe"}}}}}