{
  "_format": "hh-sol-artifact-1",
  "contractName": "Campaign",
  "sourceName": "contracts/Campaign.sol",
  "abi": [
    {
      "inputs": [
        {
          "internalType": "address",
          "name": "_founder",
          "type": "address"
        },
        {
          "internalType": "string",
          "name": "_title",
          "type": "string"
        },
        {
          "internalType": "string",
          "name": "_description",
          "type": "string"
        },
        {
          "internalType": "uint256",
          "name": "_fundingGoal",
          "type": "uint256"
        },
        {
          "internalType": "string[5]",
          "name": "_milestoneDescriptions",
          "type": "string[5]"
        },
        {
          "internalType": "uint256[5]",
          "name": "_milestoneDeadlines",
          "type": "uint256[5]"
        },
        {
          "internalType": "uint256[5]",
          "name": "_milestonePercentages",
          "type": "uint256[5]"
        },
        {
          "internalType": "uint256",
          "name": "_platformFeePercentage",
          "type": "uint256"
        }
      ],
      "stateMutability": "nonpayable",
      "type": "constructor"
    },
    {
      "inputs": [],
      "name": "AlreadyRefunded",
      "type": "error"
    },
    {
      "inputs": [],
      "name": "AlreadyVoted",
      "type": "error"
    },
    {
      "inputs": [],
      "name": "CampaignNotActive",
      "type": "error"
    },
    {
      "inputs": [],
      "name": "DeadlineNotPassed",
      "type": "error"
    },
    {
      "inputs": [],
      "name": "EnforcedPause",
      "type": "error"
    },
    {
      "inputs": [],
      "name": "ExpectedPause",
      "type": "error"
    },
    {
      "inputs": [],
      "name": "FundingGoalReached",
      "type": "error"
    },
    {
      "inputs": [],
      "name": "InsufficientFunds",
      "type": "error"
    },
    {
      "inputs": [],
      "name": "InvalidMilestone",
      "type": "error"
    },
    {
      "inputs": [],
      "name": "InvalidRiskProfile",
      "type": "error"
    },
    {
      "inputs": [],
      "name": "InvalidVotingPower",
      "type": "error"
    },
    {
      "inputs": [],
      "name": "MaxRejectionsReached",
      "type": "error"
    },
    {
      "inputs": [],
      "name": "MilestoneNotPending",
      "type": "error"
    },
    {
      "inputs": [],
      "name": "MilestoneNotSubmitted",
      "type": "error"
    },
    {
      "inputs": [],
      "name": "NotFunder",
      "type": "error"
    },
    {
      "inputs": [],
      "name": "OnlyFounder",
      "type": "error"
    },
    {
      "inputs": [
        {
          "internalType": "address",
          "name": "owner",
          "type": "address"
        }
      ],
      "name": "OwnableInvalidOwner",
      "type": "error"
    },
    {
      "inputs": [
        {
          "internalType": "address",
          "name": "account",
          "type": "address"
        }
      ],
      "name": "OwnableUnauthorizedAccount",
      "type": "error"
    },
    {
      "inputs": [],
      "name": "ReentrancyGuardReentrantCall",
      "type": "error"
    },
    {
      "inputs": [],
      "name": "RefundNotAvailable",
      "type": "error"
    },
    {
      "inputs": [],
      "name": "VotingNotActive",
      "type": "error"
    },
    {
      "inputs": [],
      "name": "VotingStillActive",
      "type": "error"
    },
    {
      "anonymous": false,
      "inputs": [
        {
          "indexed": false,
          "internalType": "enum Campaign.CampaignState",
          "name": "oldState",
          "type": "uint8"
        },
        {
          "indexed": false,
          "internalType": "enum Campaign.CampaignState",
          "name": "newState",
          "type": "uint8"
        }
      ],
      "name": "CampaignStateChanged",
      "type": "event"
    },
    {
      "anonymous": false,
      "inputs": [
        {
          "indexed": true,
          "internalType": "address",
          "name": "initiator",
          "type": "address"
        },
        {
          "indexed": false,
          "internalType": "uint256",
          "name": "votingDeadline",
          "type": "uint256"
        }
      ],
      "name": "EmergencyFailureTriggered",
      "type": "event"
    },
    {
      "anonymous": false,
      "inputs": [
        {
          "indexed": true,
          "internalType": "address",
          "name": "funder",
          "type": "address"
        },
        {
          "indexed": false,
          "internalType": "uint256",
          "name": "amount",
          "type": "uint256"
        },
        {
          "indexed": false,
          "internalType": "enum Campaign.RiskProfile",
          "name": "riskProfile",
          "type": "uint8"
        },
        {
          "indexed": false,
          "internalType": "uint256",
          "name": "committedAmount",
          "type": "uint256"
        },
        {
          "indexed": false,
          "internalType": "uint256",
          "name": "reserveAmount",
          "type": "uint256"
        }
      ],
      "name": "FundReceived",
      "type": "event"
    },
    {
      "anonymous": false,
      "inputs": [
        {
          "indexed": true,
          "internalType": "uint256",
          "name": "milestoneId",
          "type": "uint256"
        },
        {
          "indexed": false,
          "internalType": "uint256",
          "name": "amount",
          "type": "uint256"
        },
        {
          "indexed": true,
          "internalType": "address",
          "name": "founder",
          "type": "address"
        }
      ],
      "name": "FundsReleased",
      "type": "event"
    },
    {
      "anonymous": false,
      "inputs": [
        {
          "indexed": true,
          "internalType": "uint256",
          "name": "milestoneId",
          "type": "uint256"
        },
        {
          "indexed": false,
          "internalType": "uint256",
          "name": "fundsReleased",
          "type": "uint256"
        },
        {
          "indexed": false,
          "internalType": "uint256",
          "name": "yesVotes",
          "type": "uint256"
        },
        {
          "indexed": false,
          "internalType": "uint256",
          "name": "noVotes",
          "type": "uint256"
        }
      ],
      "name": "MilestoneCompleted",
      "type": "event"
    },
    {
      "anonymous": false,
      "inputs": [
        {
          "indexed": true,
          "internalType": "uint256",
          "name": "milestoneId",
          "type": "uint256"
        },
        {
          "indexed": false,
          "internalType": "uint256",
          "name": "yesVotes",
          "type": "uint256"
        },
        {
          "indexed": false,
          "internalType": "uint256",
          "name": "noVotes",
          "type": "uint256"
        },
        {
          "indexed": false,
          "internalType": "uint8",
          "name": "rejectionCount",
          "type": "uint8"
        }
      ],
      "name": "MilestoneRejected",
      "type": "event"
    },
    {
      "anonymous": false,
      "inputs": [
        {
          "indexed": true,
          "internalType": "uint256",
          "name": "milestoneId",
          "type": "uint256"
        },
        {
          "indexed": false,
          "internalType": "string",
          "name": "evidenceIPFS",
          "type": "string"
        },
        {
          "indexed": false,
          "internalType": "uint256",
          "name": "votingDeadline",
          "type": "uint256"
        }
      ],
      "name": "MilestoneSubmitted",
      "type": "event"
    },
    {
      "anonymous": false,
      "inputs": [
        {
          "indexed": true,
          "internalType": "address",
          "name": "previousOwner",
          "type": "address"
        },
        {
          "indexed": true,
          "internalType": "address",
          "name": "newOwner",
          "type": "address"
        }
      ],
      "name": "OwnershipTransferred",
      "type": "event"
    },
    {
      "anonymous": false,
      "inputs": [
        {
          "indexed": false,
          "internalType": "address",
          "name": "account",
          "type": "address"
        }
      ],
      "name": "Paused",
      "type": "event"
    },
    {
      "anonymous": false,
      "inputs": [
        {
          "indexed": true,
          "internalType": "address",
          "name": "funder",
          "type": "address"
        },
        {
          "indexed": false,
          "internalType": "uint256",
          "name": "refundAmount",
          "type": "uint256"
        },
        {
          "indexed": false,
          "internalType": "uint256",
          "name": "originalContribution",
          "type": "uint256"
        }
      ],
      "name": "RefundClaimed",
      "type": "event"
    },
    {
      "anonymous": false,
      "inputs": [
        {
          "indexed": false,
          "internalType": "address",
          "name": "account",
          "type": "address"
        }
      ],
      "name": "Unpaused",
      "type": "event"
    },
    {
      "anonymous": false,
      "inputs": [
        {
          "indexed": true,
          "internalType": "uint256",
          "name": "milestoneId",
          "type": "uint256"
        },
        {
          "indexed": true,
          "internalType": "address",
          "name": "voter",
          "type": "address"
        },
        {
          "indexed": false,
          "internalType": "bool",
          "name": "support",
          "type": "bool"
        },
        {
          "indexed": false,
          "internalType": "uint256",
          "name": "votingPower",
          "type": "uint256"
        }
      ],
      "name": "VoteCast",
      "type": "event"
    },
    {
      "inputs": [],
      "name": "APPROVAL_THRESHOLD",
      "outputs": [
        {
          "internalType": "uint256",
          "name": "",
          "type": "uint256"
        }
      ],
      "stateMutability": "view",
      "type": "function"
    },
    {
      "inputs": [],
      "name": "MAX_WHALE_POWER",
      "outputs": [
        {
          "internalType": "uint256",
          "name": "",
          "type": "uint256"
        }
      ],
      "stateMutability": "view",
      "type": "function"
    },
    {
      "inputs": [],
      "name": "VOTING_PERIOD",
      "outputs": [
        {
          "internalType": "uint256",
          "name": "",
          "type": "uint256"
        }
      ],
      "stateMutability": "view",
      "type": "function"
    },
    {
      "inputs": [],
      "name": "campaignData",
      "outputs": [
        {
          "internalType": "string",
          "name": "title",
          "type": "string"
        },
        {
          "internalType": "string",
          "name": "description",
          "type": "string"
        },
        {
          "internalType": "address",
          "name": "founder",
          "type": "address"
        },
        {
          "internalType": "uint256",
          "name": "fundingGoal",
          "type": "uint256"
        },
        {
          "internalType": "uint256",
          "name": "totalRaised",
          "type": "uint256"
        },
        {
          "internalType": "uint256",
          "name": "totalCommittedPool",
          "type": "uint256"
        },
        {
          "internalType": "uint256",
          "name": "totalReservePool",
          "type": "uint256"
        },
        {
          "internalType": "uint8",
          "name": "currentMilestone",
          "type": "uint8"
        },
        {
          "internalType": "enum Campaign.CampaignState",
          "name": "state",
          "type": "uint8"
        },
        {
          "internalType": "uint256",
          "name": "createdAt",
          "type": "uint256"
        },
        {
          "internalType": "uint256",
          "name": "platformFeePercentage",
          "type": "uint256"
        }
      ],
      "stateMutability": "view",
      "type": "function"
    },
    {
      "inputs": [],
      "name": "claimRefund",
      "outputs": [],
      "stateMutability": "nonpayable",
      "type": "function"
    },
    {
      "inputs": [
        {
          "internalType": "uint256",
          "name": "milestoneId",
          "type": "uint256"
        }
      ],
      "name": "finalizeMilestone",
      "outputs": [],
      "stateMutability": "nonpayable",
      "type": "function"
    },
    {
      "inputs": [
        {
          "internalType": "enum Campaign.RiskProfile",
          "name": "riskProfile",
          "type": "uint8"
        }
      ],
      "name": "fund",
      "outputs": [],
      "stateMutability": "payable",
      "type": "function"
    },
    {
      "inputs": [
        {
          "internalType": "address",
          "name": "",
          "type": "address"
        }
      ],
      "name": "funders",
      "outputs": [
        {
          "internalType": "uint256",
          "name": "totalContribution",
          "type": "uint256"
        },
        {
          "internalType": "uint256",
          "name": "committedAmount",
          "type": "uint256"
        },
        {
          "internalType": "uint256",
          "name": "reserveAmount",
          "type": "uint256"
        },
        {
          "internalType": "enum Campaign.RiskProfile",
          "name": "riskProfile",
          "type": "uint8"
        },
        {
          "internalType": "uint8",
          "name": "missedVotes",
          "type": "uint8"
        },
        {
          "internalType": "bool",
          "name": "isAutoYes",
          "type": "bool"
        },
        {
          "internalType": "bool",
          "name": "hasRefunded",
          "type": "bool"
        },
        {
          "internalType": "uint256",
          "name": "fundedAt",
          "type": "uint256"
        }
      ],
      "stateMutability": "view",
      "type": "function"
    },
    {
      "inputs": [
        {
          "internalType": "uint256",
          "name": "",
          "type": "uint256"
        }
      ],
      "name": "fundersList",
      "outputs": [
        {
          "internalType": "address",
          "name": "",
          "type": "address"
        }
      ],
      "stateMutability": "view",
      "type": "function"
    },
    {
      "inputs": [],
      "name": "getCampaignData",
      "outputs": [
        {
          "components": [
            {
              "internalType": "string",
              "name": "title",
              "type": "string"
            },
            {
              "internalType": "string",
              "name": "description",
              "type": "string"
            },
            {
              "internalType": "address",
              "name": "founder",
              "type": "address"
            },
            {
              "internalType": "uint256",
              "name": "fundingGoal",
              "type": "uint256"
            },
            {
              "internalType": "uint256",
              "name": "totalRaised",
              "type": "uint256"
            },
            {
              "internalType": "uint256",
              "name": "totalCommittedPool",
              "type": "uint256"
            },
            {
              "internalType": "uint256",
              "name": "totalReservePool",
              "type": "uint256"
            },
            {
              "internalType": "uint8",
              "name": "currentMilestone",
              "type": "uint8"
            },
            {
              "internalType": "enum Campaign.CampaignState",
              "name": "state",
              "type": "uint8"
            },
            {
              "internalType": "uint256",
              "name": "createdAt",
              "type": "uint256"
            },
            {
              "internalType": "uint256",
              "name": "platformFeePercentage",
              "type": "uint256"
            }
          ],
          "internalType": "struct Campaign.CampaignData",
          "name": "",
          "type": "tuple"
        }
      ],
      "stateMutability": "view",
      "type": "function"
    },
    {
      "inputs": [],
      "name": "getCurrentMilestoneInfo",
      "outputs": [
        {
          "internalType": "uint256",
          "name": "milestoneId",
          "type": "uint256"
        },
        {
          "internalType": "string",
          "name": "description",
          "type": "string"
        },
        {
          "internalType": "enum Campaign.MilestoneState",
          "name": "state",
          "type": "uint8"
        },
        {
          "internalType": "uint256",
          "name": "deadline",
          "type": "uint256"
        },
        {
          "internalType": "uint256",
          "name": "votingDeadline",
          "type": "uint256"
        }
      ],
      "stateMutability": "view",
      "type": "function"
    },
    {
      "inputs": [
        {
          "internalType": "address",
          "name": "funderAddress",
          "type": "address"
        }
      ],
      "name": "getFunder",
      "outputs": [
        {
          "components": [
            {
              "internalType": "uint256",
              "name": "totalContribution",
              "type": "uint256"
            },
            {
              "internalType": "uint256",
              "name": "committedAmount",
              "type": "uint256"
            },
            {
              "internalType": "uint256",
              "name": "reserveAmount",
              "type": "uint256"
            },
            {
              "internalType": "enum Campaign.RiskProfile",
              "name": "riskProfile",
              "type": "uint8"
            },
            {
              "internalType": "bool[5]",
              "name": "hasVoted",
              "type": "bool[5]"
            },
            {
              "internalType": "uint8",
              "name": "missedVotes",
              "type": "uint8"
            },
            {
              "internalType": "bool",
              "name": "isAutoYes",
              "type": "bool"
            },
            {
              "internalType": "bool",
              "name": "hasRefunded",
              "type": "bool"
            },
            {
              "internalType": "uint256",
              "name": "fundedAt",
              "type": "uint256"
            }
          ],
          "internalType": "struct Campaign.Funder",
          "name": "",
          "type": "tuple"
        }
      ],
      "stateMutability": "view",
      "type": "function"
    },
    {
      "inputs": [],
      "name": "getFundersList",
      "outputs": [
        {
          "internalType": "address[]",
          "name": "",
          "type": "address[]"
        }
      ],
      "stateMutability": "view",
      "type": "function"
    },
    {
      "inputs": [
        {
          "internalType": "uint256",
          "name": "milestoneId",
          "type": "uint256"
        }
      ],
      "name": "getMilestone",
      "outputs": [
        {
          "components": [
            {
              "internalType": "string",
              "name": "description",
              "type": "string"
            },
            {
              "internalType": "uint256",
              "name": "releasePercentage",
              "type": "uint256"
            },
            {
              "internalType": "uint256",
              "name": "deadline",
              "type": "uint256"
            },
            {
              "internalType": "enum Campaign.MilestoneState",
              "name": "state",
              "type": "uint8"
            },
            {
              "internalType": "uint256",
              "name": "votingDeadline",
              "type": "uint256"
            },
            {
              "internalType": "uint256",
              "name": "yesVotes",
              "type": "uint256"
            },
            {
              "internalType": "uint256",
              "name": "noVotes",
              "type": "uint256"
            },
            {
              "internalType": "uint256",
              "name": "totalVotingPower",
              "type": "uint256"
            },
            {
              "internalType": "string",
              "name": "evidenceIPFS",
              "type": "string"
            },
            {
              "internalType": "uint8",
              "name": "rejectionCount",
              "type": "uint8"
            },
            {
              "internalType": "uint256",
              "name": "submittedAt",
              "type": "uint256"
            }
          ],
          "internalType": "struct Campaign.Milestone",
          "name": "",
          "type": "tuple"
        }
      ],
      "stateMutability": "view",
      "type": "function"
    },
    {
      "inputs": [
        {
          "internalType": "address",
          "name": "funderAddress",
          "type": "address"
        }
      ],
      "name": "getRefundAmount",
      "outputs": [
        {
          "internalType": "uint256",
          "name": "",
          "type": "uint256"
        }
      ],
      "stateMutability": "view",
      "type": "function"
    },
    {
      "inputs": [
        {
          "internalType": "uint256",
          "name": "",
          "type": "uint256"
        },
        {
          "internalType": "address",
          "name": "",
          "type": "address"
        }
      ],
      "name": "hasVotedOnMilestone",
      "outputs": [
        {
          "internalType": "bool",
          "name": "",
          "type": "bool"
        }
      ],
      "stateMutability": "view",
      "type": "function"
    },
    {
      "inputs": [
        {
          "internalType": "uint256",
          "name": "",
          "type": "uint256"
        }
      ],
      "name": "milestones",
      "outputs": [
        {
          "internalType": "string",
          "name": "description",
          "type": "string"
        },
        {
          "internalType": "uint256",
          "name": "releasePercentage",
          "type": "uint256"
        },
        {
          "internalType": "uint256",
          "name": "deadline",
          "type": "uint256"
        },
        {
          "internalType": "enum Campaign.MilestoneState",
          "name": "state",
          "type": "uint8"
        },
        {
          "internalType": "uint256",
          "name": "votingDeadline",
          "type": "uint256"
        },
        {
          "internalType": "uint256",
          "name": "yesVotes",
          "type": "uint256"
        },
        {
          "internalType": "uint256",
          "name": "noVotes",
          "type": "uint256"
        },
        {
          "internalType": "uint256",
          "name": "totalVotingPower",
          "type": "uint256"
        },
        {
          "internalType": "string",
          "name": "evidenceIPFS",
          "type": "string"
        },
        {
          "internalType": "uint8",
          "name": "rejectionCount",
          "type": "uint8"
        },
        {
          "internalType": "uint256",
          "name": "submittedAt",
          "type": "uint256"
        }
      ],
      "stateMutability": "view",
      "type": "function"
    },
    {
      "inputs": [],
      "name": "owner",
      "outputs": [
        {
          "internalType": "address",
          "name": "",
          "type": "address"
        }
      ],
      "stateMutability": "view",
      "type": "function"
    },
    {
      "inputs": [],
      "name": "paused",
      "outputs": [
        {
          "internalType": "bool",
          "name": "",
          "type": "bool"
        }
      ],
      "stateMutability": "view",
      "type": "function"
    },
    {
      "inputs": [],
      "name": "renounceOwnership",
      "outputs": [],
      "stateMutability": "nonpayable",
      "type": "function"
    },
    {
      "inputs": [
        {
          "internalType": "uint256",
          "name": "milestoneId",
          "type": "uint256"
        },
        {
          "internalType": "string",
          "name": "evidenceIPFS",
          "type": "string"
        }
      ],
      "name": "submitMilestone",
      "outputs": [],
      "stateMutability": "nonpayable",
      "type": "function"
    },
    {
      "inputs": [
        {
          "internalType": "address",
          "name": "newOwner",
          "type": "address"
        }
      ],
      "name": "transferOwnership",
      "outputs": [],
      "stateMutability": "nonpayable",
      "type": "function"
    },
    {
      "inputs": [],
      "name": "triggerEmergencyFailure",
      "outputs": [],
      "stateMutability": "nonpayable",
      "type": "function"
    },
    {
      "inputs": [
        {
          "internalType": "uint256",
          "name": "milestoneId",
          "type": "uint256"
        },
        {
          "internalType": "bool",
          "name": "support",
          "type": "bool"
        }
      ],
      "name": "vote",
      "outputs": [],
      "stateMutability": "nonpayable",
      "type": "function"
    }
  ],
  "bytecode": "0x60806040523461096257612bfb8038038061001981610987565b9283398101610200828203126109625781516001600160a01b03811692908390036109625760208101516001600160401b038111610962578261005d9183016109ac565b60408201516001600160401b038111610962578361007c9184016109ac565b606083015160808401519194916001600160401b0381116109625784019482601f870112156109625760a0966100b188610987565b8097898101918683116109625781905b83821061093757505050506101e06100e96100de868b8a01610a17565b956101408901610a17565b96015192811561092157600080546001600160a01b031981168417825583916001600160a01b03909116907f8be0079c531659141344cd1fd0a4f28419497f9722a3daafe3b4186f6b6457e09080a360018055610144610967565b9586526020860192835260408601918252606086019081526080860160008152898701906000825260c08801926000845260e0890194600086526101008a0196600088526101208b019a428c526101408101998a525180519060018060401b03821161081e5760035490600182811c92168015610917575b60208310146107fe5781601f8493116108a7575b50602090601f831160011461083f57600092610834575b50508160011b916000199060031b1c1916176003555b518051906001600160401b03821161081e57600454600181811c91168015610814575b60208210146107fe57601f8111610799575b50602090601f83116001146107285760ff98979695949392916000918361071d575b50508160011b916000199060031b1c1916176004555b60018060a01b0390511660018060a01b0319600554161760055551600655516007555160085551600955511660ff19600a541617600a55519260048410156107075760009361ff00600a549160081b169061ff00191617600a5551600b5551600c55815b60058110156106f8576102e18186610a59565b516102ec8286610a59565b516102f78385610a59565b51620151808102908082046201518014901517156106e4574201908142116106e457610321610967565b9283526020830152604082015283606082015283608082015283878201528360c08201528360e0820152602061035681610987565b8581526101008301526101208201859052610140820185905281518051906001600160401b0382116106d057600b8502600d0154600181811c911680156106c6575b848210146106b2579081601f849311610661575b508390601f83116001146105f25788926105e7575b50508160011b916000199060031b1c191617600b8402600d01555b6020820151600e600b850201556040820151600f600b850201556010600b840201606083015160068110156105d357815460ff191660ff9190911617905560808201516011600b85029081019190915588830151601282015560c0830151601382015560e083015160148201556101008301518051601590920192906001600160401b0383116105bf578354600181811c911680156105b5575b838210146105a157601f811161055e575b5081601f84116001146104f057509180610140949260019796948a926104e5575b5050600019600383901b1c191690861b1790555b6016600b84020160ff6101208301511660ff1982541617905501516017600b83020155016102ce565b0151905038806104a8565b9190601f198416858a52838a20938a905b828210610546575050926001979694919288938361014098961061052d575b505050811b0190556104bc565b015160001960f88460031b161c19169055388080610520565b80600186978294978701518155019601940190610501565b848952828920601f850160051c810191848610610597575b601f0160051c01905b81811061058c5750610487565b89815560010161057f565b9091508190610576565b634e487b7160e01b89526022600452602489fd5b90607f1690610476565b634e487b7160e01b88526041600452602488fd5b634e487b7160e01b87526021600452602487fd5b0151905038806103c1565b600d600b88020189528489209250601f198416895b8682821061064b575050908460019594939210610632575b505050811b01600b8402600d01556103dc565b015160001960f88460031b161c1916905538808061061f565b6001859682939686015181550195019301610607565b909150600b8602600d018852838820601f840160051c81018585106106ab575b90849392915b601f830160051c8201811061069d5750506103ac565b8a8155859450600101610687565b5080610681565b634e487b7160e01b88526022600452602488fd5b90607f1690610398565b634e487b7160e01b87526041600452602487fd5b634e487b7160e01b86526011600452602486fd5b60405161217a9081610a818239f35b634e487b7160e01b600052602160045260246000fd5b015190503880610254565b90601f198316916004600052816000209260005b818110610781575091600193918560ff9c9b9a999897969410610768575b505050811b0160045561026a565b015160001960f88460031b161c1916905538808061075a565b9293602060018192878601518155019501930161073c565b60046000527f8a35acfbc15ff81a39ae7d344fd709f28e8600b4aa8c65c6b64bfe7fe36bd19b601f840160051c810191602085106107f4575b601f0160051c01905b8181106107e85750610232565b600081556001016107db565b90915081906107d2565b634e487b7160e01b600052602260045260246000fd5b90607f1690610220565b634e487b7160e01b600052604160045260246000fd5b0151905038806101e7565b600360009081528281209350601f198516905b81811061088f5750908460019594939210610876575b505050811b016003556101fd565b015160001960f88460031b161c19169055388080610868565b92936020600181928786015181550195019301610852565b60036000529091507fc2575a0e9e593c00f959f8c92f12db2869c3395a3b0502d05e2516446f71f85b601f840160051c8101916020851061090d575b90601f859493920160051c01905b8181106108fe57506101d0565b600081558493506001016108f1565b90915081906108e3565b91607f16916101bc565b631e4fbdf760e01b600052600060045260246000fd5b81516001600160401b038111610962576020916109578a849387016109ac565b8152019101906100c1565b600080fd5b6040519061016082016001600160401b0381118382101761081e57604052565b6040519190601f01601f191682016001600160401b0381118382101761081e57604052565b81601f82011215610962578051906001600160401b03821161081e576109db601f8301601f1916602001610987565b92828452602083830101116109625760005b828110610a0257505060206000918301015290565b806020809284010151828287010152016109ed565b9080601f8301121561096257610a2d60a0610987565b809260a0810192831161096257905b828210610a495750505090565b8151815260209182019101610a3c565b906005811015610a6a5760051b0190565b634e487b7160e01b600052603260045260246000fdfe608080604052600436101561001357600080fd5b60003560e01c908163031b3677146112aa575080630a5480d1146111de57806320577041146111c15780632442e1cb1461101c57806334f6fd8714610c165780633658da1c14610b995780633ab3429014610b7c5780633bcaea0214610b24578063476a119b14610a8e57806347ff62c614610a4c5780634b959a4f146109ac5780635c975abb146109895780635d306f341461095e578063715018a6146109055780638da5cb5b146108dc578063b1610d7e146108be578063b5545a3c146107a6578063c417633814610615578063c93ef58b1461059f578063c9d27afe14610512578063d2d3001014610345578063e89e4ed61461026b578063edd5271e146101b55763f2fde38b1461012757600080fd5b346101b05760203660031901126101b05761014061133f565b6101486120f5565b6001600160a01b0316801561019a57600080546001600160a01b03198116831782556001600160a01b0316907f8be0079c531659141344cd1fd0a4f28419497f9722a3daafe3b4186f6b6457e09080a3005b631e4fbdf760e01b600052600060045260246000fd5b600080fd5b346101b05760003660031901126101b0576101ce61146e565b6101606101d9611527565b60018060a01b03600554169060065461025b60075460085460095490600a5492600b5495610227600c54986102196040519d8d8f9e8f9081520190611362565b8c810360208e015290611362565b9860408b015260608a0152608089015260a088015260c087015260ff811660e087015260ff61010087019160081c166113cb565b6101208401526101408301520390f35b346101b05760203660031901126101b05760043560058110156101b057610300600b6020920261029d81600d016115be565b610334600e8301549183600f81015460ff6010830154166011830154601284015490610312601386015493601487015495601760ff60166102e060158c016115be565b9a0154169c01549a6040519e8f9e8f9b6101608d526101608d0190611362565b9a015260408d015260608c01906113a3565b60808a015260a089015260c088015260e0870152858203610100870152611362565b916101208401526101408301520390f35b346101b05760203660031901126101b05761035e61133f565b6040519061036b8261142f565b60008252600060208301526000604083015260006060830152600061010060a093604051610399868261144c565b85368237608082015282858201528260c08201528260e0820152015260018060a01b03166000526044602052604060002090604051906103d88261142f565b82548252600183015490602083019182526002840154936040840194855260ff60038201541661040c60608601918261168d565b6104bd6040519160ff600485015481811615158552818160081c1615156020860152818160101c1615156040860152818160181c161515606086015260201c161515608084015261045d858461144c565b6080870192835260058401549487019760ff86168952600660c089019560ff8860081c161515875260ff60e08b019860101c1615158852015496610100890197885260405198518952516020890152516040880152516060870190611355565b51946000608086015b600582106104fa5750505160ff16610120850152511515610140840152511515610160830152516101808201526101a09150f35b6020806001928a5115158152019801910190966104c6565b346101b05760403660031901126101b05760243580151581036101b0573360005260446020526040600020541561058e5760ff600a5460081c166004811015610578576105675761056590600435611966565b005b63219a945b60e11b60005260046000fd5b634e487b7160e01b600052602160045260246000fd5b6352cc575f60e11b60005260046000fd5b346101b05760003660031901126101b0573360005260446020526040600020541561058e5762093a8042018042116105ff576040519081527f3d4a468b9058af86d7283a57423506c1f897b6fa8bf9058684a02d55e936010160203392a2005b634e487b7160e01b600052601160045260246000fd5b346101b05760003660031901126101b057600061014060405161063781611412565b60608152606060208201528260408201528260608201528260808201528260a08201528260c08201528260e08201528261010082015282610120820152015260405161068281611412565b61068a61146e565b8152610694611527565b6020820190815260018060a01b036005541660408301908152600654916060840192835260075490608085019182526008549360a0860194855260095460c08701908152600a5460ff60e0890191818116835260081c1690610100890192600483101561057857610744988a976107949660ff958752610758600b54996101208c019a8b52610140600c549c019b8c526040519e8f9e8f9160208352516101606020840152610180830190611362565b9151906040601f1982850301910152611362565b9a516001600160a01b031660608d01525160808c01525160a08b01525160c08a01525160e08901525116610100870152516101208601906113cb565b51610140840152516101608301520390f35b346101b05760003660031901126101b0576107bf611b0c565b3360005260446020526040600020541561058e5760ff600a5460081c166004811015610578576002036108ad5733600052604460205260ff60056040600020015460101c1661089c57336000526044602052604060002061081f33611f8f565b90811561088b5760058101805462ff00001916620100001790556000808080853382f11561087f575460405191825260208201527f17c1d890f3ffba4991a771a0b55802a1eff3159d0cce950fb68d1360530393d960403392a260018055005b6040513d6000823e3d90fd5b63356680b760e01b60005260046000fd5b63542f378d60e11b60005260046000fd5b630b4d698160e01b60005260046000fd5b346101b05760003660031901126101b057602060405162093a808152f35b346101b05760003660031901126101b0576000546040516001600160a01b039091168152602090f35b346101b05760003660031901126101b05761091e6120f5565b600080546001600160a01b0319811682556001600160a01b03167f8be0079c531659141344cd1fd0a4f28419497f9722a3daafe3b4186f6b6457e08280a3005b346101b05760203660031901126101b057602061098161097c61133f565b611922565b604051908152f35b346101b05760003660031901126101b057602060ff600254166040519015158152f35b346101b05760203660031901126101b05760043560ff600a5460081c16600481101561057857610567576005811015610a3657600b81029060ff601083015416600681101561057857600203610a255760116000920154421115610a1657610a1390611b90565b80f35b633483eb6360e01b8252600482fd5b639b8cc47560e01b60005260046000fd5b634e487b7160e01b600052603260045260246000fd5b346101b05760203660031901126101b0576004356046548110156101b057610a756020916113b0565b905460405160039290921b1c6001600160a01b03168152f35b346101b05760403660031901126101b05760243567ffffffffffffffff81116101b057366023820112156101b057806004013567ffffffffffffffff81116101b05736602482840101116101b0576005546001600160a01b03163303610b135760ff600a5460081c166004811015610578576105675760246105659201600435611699565b630b42e6cb60e21b60005260046000fd5b346101b05760403660031901126101b0576024356001600160a01b03811681036101b057600435600052604560205260406000209060018060a01b0316600052602052602060ff604060002054166040519015158152f35b346101b05760003660031901126101b05760206040516117708152f35b346101b05760003660031901126101b05760ff600a54166005811015610a3657600b81029060ff601083015416600f83015492610bdd601182015491600d016115be565b93610c08610bfd604051968796875260a0602088015260a0870190611362565b9360408601906113a3565b606084015260808301520390f35b60203660031901126101b05760043560038110156101b057610c36611b0c565b60ff600a5460081c16600481101561057857610567573415610fe7576000600260ff831611610fd857610c6b34600754611660565b60065410610fc9579080610fa157612710610c896113885b3461166d565b0491610c958334611680565b9033600052604460205260406000205415600014610ed3575060465468010000000000000000811015610ebd57806001610cd292016046556113b0565b81546001600160a01b0360039290921b91821b19163390911b1790556040519260a0840167ffffffffffffffff811185821017610ebd576040526000845260006020850152600060408501526000606085015260006080850152604051610d388161142f565b3481526020810182815260408201958487526060830196610d59878961168d565b6080840191825260a08401916000835260c08501906000825260e0860192600084526101008701954287523360005260446020526040600020975188555160018801555160028701556003860199519960038b10156105785760009a60ff80198354169116179055519860009060005b60058110610e94575050600486015591516005850180549351925162ff000090151560101b1661ff0093151560081b9390931660ff90921662ffffff19909416939093171717905551600690910155919250905b610e2934600754611660565b600755610e3881600854611660565b600855610e4782600954611660565b600955610e5e604051933485526020850190611355565b604083015260608201527f5ed175eddba01e1e8e9b7deb170e66689a1ea850c3acf88c71d86b071020a96460803392a260018055005b909160206001918d5115159060ff808660031b9316831b921b1916179c0191019a91909a610dc9565b634e487b7160e01b600052604160045260246000fd5b9290919233600052604460205260ff6003604060002001541690610578576003811015610578578303610f5c573360005260446020526040600020610f19348254611660565b90553360005260446020526001604060002001610f37828254611660565b90553360005260446020526002604060002001610f55838254611660565b9055610e1d565b60405162461bcd60e51b815260206004820152601a60248201527f43616e6e6f74206368616e6765207269736b2070726f66696c650000000000006044820152606490fd5b6000915060018103610fbb57612710610c89611b58610c83565b612710610c89612328610c83565b634fbf92cf60e01b8152600490fd5b63da47a88760e01b8152600490fd5b60405162461bcd60e51b815260206004820152600d60248201526c09aeae6e840e6cadcc8408aa89609b1b6044820152606490fd5b346101b05760203660031901126101b057600435600061014060405161104181611412565b606081528260208201528260408201528260608201528260808201528260a08201528260c08201528260e082015260606101008201528261012082015201526005811015610a3657600b0260405161109881611412565b6110a482600d016115be565b8152600e8201549160208201928352600f810154926040830193845260ff6010830154169060608401916006811015610578578252601183015460808501908152601284015460a08601908152601385015460c08701908152601486015460e0880190815291611116601588016115be565b936101008901948552601688015460ff16976101208a0198895260170154966101408a019788526040519a8b9a60208c525160208c0161016090526101808c0161115f91611362565b975160408c01525160608b01525160808a0161117a916113a3565b5160a08901525160c08801525160e08701525161010086015251848203601f19016101208601526111ab9190611362565b915160ff16610140840152516101608301520390f35b346101b05760003660031901126101b05760206040516107d08152f35b346101b05760003660031901126101b0576040518060206046549283815201809260466000527f128667f541fed74a8429f9d592c26c2c6a4beb9ae5ead9912c98b2595c8423109060005b81811061128b575050508161123f91038261144c565b6040519182916020830190602084525180915260408301919060005b818110611269575050500390f35b82516001600160a01b031684528594506020938401939092019160010161125b565b82546001600160a01b0316845260209093019260019283019201611229565b346101b05760203660031901126101b057610100906001600160a01b036112cf61133f565b166000526044602052604060002060ff81549161131860018201546002830154846003850154169160066005860154950154968852602088015260408701526060860190611355565b8181166080850152818160081c16151560a085015260101c16151560c083015260e0820152f35b600435906001600160a01b03821682036101b057565b9060038210156105785752565b919082519283825260005b84811061138e575050826000602080949584010152601f8019910116010190565b8060208092840101518282860101520161136d565b9060068210156105785752565b604654811015610a3657604660005260206000200190600090565b9060048210156105785752565b90600182811c92168015611408575b60208310146113f257565b634e487b7160e01b600052602260045260246000fd5b91607f16916113e7565b610160810190811067ffffffffffffffff821117610ebd57604052565b610120810190811067ffffffffffffffff821117610ebd57604052565b90601f8019910116810190811067ffffffffffffffff821117610ebd57604052565b6040519060008260035491611482836113d8565b808352926001811690811561150857506001146114a8575b6114a69250038361144c565b565b506003600090815290917fc2575a0e9e593c00f959f8c92f12db2869c3395a3b0502d05e2516446f71f85b5b8183106114ec5750509060206114a69282010161149a565b60209193508060019154838589010152019101909184926114d4565b602092506114a694915060ff191682840152151560051b82010161149a565b604051906000826004549161153b836113d8565b8083529260018116908115611508575060011461155e576114a69250038361144c565b506004600090815290917f8a35acfbc15ff81a39ae7d344fd709f28e8600b4aa8c65c6b64bfe7fe36bd19b5b8183106115a25750509060206114a69282010161149a565b602091935080600191548385890101520191019091849261158a565b90604051918260008254926115d2846113d8565b808452936001811690811561163e57506001146115f7575b506114a69250038361144c565b90506000929192526020600020906000915b8183106116225750509060206114a692820101386115ea565b6020919350806001915483858901015201910190918492611609565b9050602092506114a694915060ff191682840152151560051b820101386115ea565b919082018092116105ff57565b818102929181159184041417156105ff57565b919082039182116105ff57565b60038210156105785752565b909160ff600a54168203611911576005821015610a3657600b8202926010840160ff815416600681101561057857611900576000600f86015442116118f25750805460ff191660021790556000936015810167ffffffffffffffff84116118de5761170481546113d8565b601f8111611899575b508386601f821160011461183657879161182b575b508460011b906000198660031b1c19161790555b62093a804201948542116118175750601181019485554260178201556000601282018190556013820181905560149091018190555b6046548110156117bc57600190846000526045602052604080600020611790836113b0565b905460039190911b1c60a085901b85900316600090815260209190915220805460ff191690550161176b565b50606090827f2d1be871e8185f5374d350ec315dabfbda8bd920997205e381eabc7da80224849495600090549060405195869460408652816040870152868601378383018501526020830152601f01601f19168101030190a2565b634e487b7160e01b81526011600452602490fd5b905083013538611722565b82885260208820915085601f198116895b81811061187e575010611864575b5050600184811b019055611736565b840135600019600387901b60f8161c191690553880611855565b87840135855560019094019360209384019389935001611847565b81875260208720601f860160051c810191602087106118d4575b601f0160051c01905b8181106118c9575061170d565b8781556001016118bc565b90915081906118b3565b634e487b7160e01b86526041600452602486fd5b5050505050506114a6611b2e565b6323a244ef60e11b60005260046000fd5b6302e845cd60e61b60005260046000fd5b60ff600a5460081c166004811015610578576002036119475761194490611f8f565b90565b50600090565b9190916005831015610a3657601f908360051c01921690565b6005811015610a3657600b810260ff601082015416600681101561057857600203610a2557600082815260456020908152604080832033845290915290205460ff16611afb5760009060118101544211611aef5733825260446020526040822054916007546107d08102908082046107d01490151715611adb576127109004808411611ad3575b5083815260456020908152604080832033808552908352818420805460ff19166001179055835260449091528120611a2990859060040161194d565b81549060031b9060ff6001831b921b191617905533815260446020526005604082200160ff1981541690558085600014611abc57610a365760128201611a70848254611660565b90555b610a3657601401611a85828254611660565b9055604051921515835260208301527fcbdf6214089cba887ecbf35a0b6a734589959c9763342c756bb2a80ca2bc9f6e60403393a3565b5060138201611acc848254611660565b9055611a73565b9250386119ed565b634e487b7160e01b82526011600452602482fd5b50506114a69150611b90565b637c9a1cf960e01b60005260046000fd5b600260015414611b1d576002600155565b633ee5aeb560e01b60005260046000fd5b7f120bfc1de29621f7872a5b3129b6524ceb18df8c689a37496b8ee4007235dbc8604060ff600a5460081c1661020061ff0019600a541617600a55611b75825180926113cb565b60026020820152a1565b60ff1660ff81146105ff5760010190565b9060005b604654811015611cb657611ba7816113b0565b60018060a01b0391549060031b1c1680600052604460205260ff611bd285600460406000200161194d565b90549060031b1c1615611be9575b50600101611b94565b806000526044602052600560406000200160ff611c0881835416611b7f565b1660ff19825416179055806000526044602052600260ff6005604060002001541610611be057600090815260446020526040902060058101805461ff001916610100179055546007549091906107d080820291801590830490911417156105ff576127109004808311611cae575b506005841015610a3657600191611ca66014600b870260128101611c9b858254611660565b905501918254611660565b905590611be0565b915038611c76565b50906005811015610a3657600b810290601282019081549260006013820194611ce0865482611660565b82918115918215611f4b575b505050600014611eb557610a3657601001805460ff19166003178155611d118261211e565b9283158015611e23575b5060049350606083927f189a69c6603d31e1afe639223c0bce076c888e04d821629c66377946aa4ff5f692600091600560ff19825416179055611d5d8561211e565b915054600097549060405192835260208301526040820152a203611e065761010061ff0019600a541617600a5560095480158015611dcb575b505060408051918252600160208301527f120bfc1de29621f7872a5b3129b6524ceb18df8c689a37496b8ee4007235dbc891a1565b82808093819360018060a01b0360055416908390611dfd575bf115611df1573880611d96565b604051903d90823e3d90fd5b506108fc611de4565b50600a5460ff611e17818316611b7f565b169060ff191617600a55565b6000808087819460018060a01b0360055416908390611eac575bf11561087f57606083927f189a69c6603d31e1afe639223c0bce076c888e04d821629c66377946aa4ff5f692600496857f807158a396c8ce26fb6a4a44930e1b49876133ba7806dbaac491ea4713e4515e602060018060a01b036005541693604051908152a392509250611d1b565b506108fc611e3d565b939293610a365760608160ff60107f48427260fa8e0dfedf5eafafdba9c430eaac0ecd4da5f57e1220727939adf421940196600482198954161788556016600093019282611f0581865416611b7f565b1683198554161784555054916000965496505416946040519182526020820152846040820152a2600090600211611f405750506114a6611b2e565b50805460ff19169055565b91939092509261271083029280840461271014901517156105ff57611f795761177091041015388080611cec565b634e487b7160e01b600052601260045260246000fd5b60018060a01b03166000526044602052604060002060405190611fb18261142f565b8054825260018101549160208101928352610100600660028401549360408401948552611fe860ff6003830154166060860161168d565b60405160ff600483015481811615158352818160081c1615156020840152818160101c1615156040840152818160181c161515606084015260201c161515608082015261203660a08261144c565b608085015260ff600582015481811660a0870152818160081c16151560c087015260101c16151560e0850152015491015281519160009060ff600a5416915b8281106120a4575050506119449161208e915190611660565b61271061209d600c548361166d565b0490611680565b6005811015610a3657600b810260ff6010820154166006811015610578576005146120d3575b50600101612075565b6001919561271061209d6120ee93600e87519101549061166d565b94906120ca565b6000546001600160a01b0316330361210957565b63118cdaa760e01b6000523360045260246000fd5b600854906005811015610a365761271091600e600b612140930201549061166d565b049056fea2646970667358221220df0c4fd4de2d99681263548806239d49865d5dab3aef52180eea1428f70a979564736f6c634300081a0033",
  "linkReferences": {},
  "deployedLinkReferences": {}
}